:020000040808EA
:1000000000000808784B0808000006000A000501F7
:080010000402FD0800000000DD
:04001800A0440808F0
:1000200008B5024B1B689B6D019308BD2C000608A8
:1000300009480A4908B5884205D0094A824202D0D7
:10004000121A04F0B6F80748074A0021121A04F001
:10005000BEF8064808BD00BF00000020C84A0808D6
:100060008800002088000020D1060020D106002052
:1000700070B502F091FF0025054E064CA41BA408A4
:10008000A54200D170BD56F8043B98470135F7E70B
:10009000904A0808B04A080800F042BD08B500F0D0
:1000A00041FFBDE8084002F02FBF01F061BC01F044
:1000B0005FBC01F065BC0078B0FA80F04009704781
:1000C0000123037070470368C9B29B681847002278
:1000D0004270704770B506460C46154603F040F86E
:1000E000317802F0D7F903F03BF8210AFFF7EBFF74
:1000F00003F036F8E1B2FFF7E6FF03F031F80368EA
:1001000029469B68984703F02BF8BDE8704002F041
:10011000E4B938B504460D4603F022F8217802F020
:10012000B9F903F01DF8290AFFF7CDFF03F018F81D
:10013000E9B2FFF7C8FF03F013F802F0CEF903F0BD
:100140000FF80122217802F0A2F903F009F8036800
:100150005B699847C0B238BDF8B5044616460F46ED
:1001600002F0FEFF7C2102F099F902F0F9FF2178FC
:100170004900FFF7A8FF02F0F3FF002102F0A9F900
:1001800002F0EEFF03227C2102F081F902F0E8FF89
:1001900003685B699847054602F0E2FF0368EDB229
:1001A0005B699847044602F0DBFF03685B69984788
:1001B000C4F30313240204F47064C0B203EB051506
:1001C00004443D803480F8BD13B50446017002F04C
:1001D000C7FF02F02DF920460DF1060201A9FFF735
:1001E000BBFFBDF804300A2B08D1BDF80630B3F5CB
:1001F000A26F03D10120607002B010BD0020FBE7A8
:1002000008B5044902F064FB18B104220120024B36
:100210001A7008BD1D450808D800002008B5074B16
:100220001B784BB10121062002F043FFBDE80840D6
:100230000021062002F03DBF08BD00BF04000020E1
:1002400008B5054902F044FB20B10420012102F069
:1002500030FF012008BD00BF1D45080837B5044622
:100260009DF818501D438DF800503C2301F0A8FE66
:10027000204603B030BD00224068114601F030BB7B
:1002800081B20148FFF745BFB90000200A4681B29C
:100290000148FFF71FBF00BFB900002070B5074E2F
:1002A00084B221463046FFF734FF611C054689B20F
:1002B0003046FFF72EFF05EB002070BDB90000208F
:1002C00070B50D46074E84B2CAB23046214601349D
:1002D000FFF700FF3046C5F30722A1B2BDE870402A
:1002E000FFF7F8BEB900002008B50A4902F0F0FA9D
:1002F00070B100210220FFF7C9FF0021064B142036
:100300001960064B1970064B1960FFF7D9FF0120E1
:1003100008BD00BF1D450808D0000020B80000201F
:10032000B40000202DE9F0410F4E84B22146304642
:10033000FFF7EFFE611C054689B23046FFF7E9FE84
:10034000A11C804689B23046FFF7E3FEE11C074658
:1003500089B23046FFF7DDFE05EB082505EB0745C2
:1003600005EB0060BDE8F081B900002070B50D46D6
:100370000E4E84B2CAB230462146FFF7ABFE611C76
:100380003046C5F3072289B2FFF7A4FEA11C304610
:10039000C5F3074289B20334FFF79CFE30462A0EAC
:1003A000A1B2BDE87040FFF795BE00BFB9000020C4
:1003B00030B5174D99B004AC0FCD0FC40FCD0FC49D
:1003C00095E8030084E8030012490EA801F074FBCD
:1003D0000EA801F0C4FB04460EA801F0DFFB0546A1
:1003E0000EA801F005FC18AB03EB840403F07AF8C7
:1003F000CDE90201284603F075F8CDE90001064A6F
:10040000112154F8503C054801F0D2FA19B030BD22
:1004100080470808F40000201F45080800400240FB
:1004200008B50A2002F05EFE03F04AF814A3D3E9EF
:10043000002303F0AFF803F007FB4FF0665103F021
:1004400061FC03F04FF800220F4B02F0EBFE00229C
:100450000E4B03F09FF803F0AFFA03F031F80022DF
:100460000B4B03F097F800220A4B03F0BDF9002272
:10047000094B02F0D9FE03F09FFA084B186008BD43
:100480006666666666660A400000E03F0000594006
:10049000000022400000144000004040E80000201E
:1004A0002DE9F0472F4D2846FFF7E5FE044608B337
:1004B00000F0E6FF2C4D4FF0000A286001F0A8F98B
:1004C00001F0AEF9002000F0EBFF47F22F58044690
:1004D0004FF00009002000F0E3FF061B61EB0A0764
:1004E000B94508BFB04532D301F0A2F978BB01F09D
:1004F0008FF9EFE7034602460146686801F0F8F914
:10050000234622462146686801F0D2F9204600F0D1
:10051000C7FF8246002000F0C3FF0023B0EB0A08AB
:10052000124A61EB04094B4508BF424506D32846F1
:10053000FFF7A1FE10B901F06BF9EBE70948FFF7EF
:100540009AFE0028B4D100242046BDE8F08701F0CF
:100550006FF904460028F6D000F092FF286001F001
:1005600057F9F1E7F4000020FC0500208F5F01003F
:1005700008B501F05DF980F00100C0B208BD0000CF
:100580002DE9F043002485B001A8CDE90144ADF880
:100590000C4001F001FC204600F082FF42F20F788F
:1005A00005464FF00009002000F07AFF461B61EB82
:1005B0000407B94508BFB04505D3FFF7D9FF10B907
:1005C00001F026F9EFE70B4CFFF7D2FF00220221E2
:1005D000606801F07DF940F6B83001F009FA0023B7
:1005E00060681A46194601F08BF9012005B0BDE894
:1005F000F08300BFF4000020002210B586B0182060
:1006000002A9029201F08CF8B8B9029C0CB12369DE
:1006100023B900210A200E4A01F07AF80023ADF830
:100620000E300C23ADF80C3001AB049304230121F0
:1006300005932046236903AA9847002805DB019803
:10064000013818BF012006B010BD0120FBE700BF34
:10065000711408082DE9F047A64D0720FFF710FE9A
:1006600095F800A0A44BA54FC3F800A00023387054
:10067000A3482B70FFF7FFFD08B1FFF799FEFFF7C6
:10068000CFFEA04801F06CFE03F002FD9E4B9F4E92
:10069000186033789E4C13F0010FBFF35B8F09D1C4
:1006A0003046FFF708FD28B100F00AFF2060304611
:1006B000FFF706FD2368D3F85031D3F81080337864
:1006C000BFF35B8FD80709D49048FFF7F4FC28B13B
:1006D00000F0F6FE20608D48FFF7F2FC2368B3F8C7
:1006E000543113EA080F40F0B4803378BFF35B8FC6
:1006F000D90709D48548FFF7DEFC28B100F0E0FEF9
:1007000020608248FFF7DCFC2368D3F8BC32D3F8C2
:1007100010803378BFF35B8FDA0709D47B48FFF78B
:10072000CAFC28B100F0CCFE20607848FFF7C8FC76
:100730002368B3F8C03213EA080F02BF2B7843F0E6
:1007400001032B703378BFF35B8FDB0709D46F484D
:10075000FFF7B1FC28B100F0B3FE20606B48FFF753
:10076000AFFC2368D3F8D832D3F810803378BFF3C6
:100770005B8FD80709D46548FFF79DFC28B100F0CE
:100780009FFE20606148FFF79BFC2368B3F8DC32D2
:1007900013EA080F02BF2B7843F002032B70337863
:1007A000BFF35B8FD90709D45848FFF784FC28B101
:1007B00000F086FE20605548FFF782FC2368D3F8DE
:1007C000F432D3F810803378BFF35B8FDA0709D4A3
:1007D0004E48FFF770FC28B100F072FE20604B48D5
:1007E000FFF76EFC2368B3F8F83213EA080F02BF74
:1007F0002B7843F004032B703378BFF35B8FDB0758
:1008000009D44248FFF757FC28B100F059FE206098
:100810003E48FFF755FC2368D3F81033D3F8108017
:100820003378BFF35B8FD80709D43848FFF743FC10
:1008300028B100F045FE20603448FFF741FC2368F2
:10084000B3F8143313EA080F02BF2B7843F0080300
:100850002B703378BFF35B8FD90709D42B48FFF790
:100860002AFC28B100F02CFE20602848FFF728FC65
:100870002368D3F88831D3F810803378BFF35B8FC7
:10088000DA0709D42148FFF716FC28B100F018FE5A
:1008900020601E48FFF714FC23683978B3F88C31C8
:1008A00013EA080F38D12B78022943F010032B707C
:1008B00011D002F078F98046164B01464FEAE079F4
:1008C0000E20C3E90089FFF751FD3978072041F078
:1008D0000201FFF7DBFCFFF78FFE18B12B7863F006
:1008E0007F032B702878B0EB0A0018BF0120BDE809
:1008F000F08700BFA1000020A4000020B00000206D
:10090000F4000020A8000020DC0000208800002067
:100910008C000020C80000208B07DCD581F002018C
:100920000720FFF7B3FC02F03EF9114BC117D3E9E2
:10093000002303F037FC0F4C80462068894602F004
:10094000BFFD002206460F46404649460A4B02F0CC
:100950004BFF02460B463046394602F065FC03F079
:100960002BF8014620601420FFF7AAFCB3E700BF74
:10097000C8000020B400002000004E4008B500F080
:100980007FFD054B1B68C01A044B1B68984234BF9F
:100990000020012008BD00BFBC000020080000208E
:1009A00008B5FFF7EBFF10B900F032FFF9E7BDE83B
:1009B0000840FFF7E3BF000008B500F061FD054BFC
:1009C0001B68C01A044B1B68984234BF00200120EA
:1009D00008BD00BFC000002014000020002330B577
:1009E00085B001A8CDE90133ADF80C3001F0D4F9A0
:1009F00000F046FD43F69725044600F019FF40B18C
:100A000000F03EFD001BA84203D8642000F0F0FF78
:100A1000F3E7002147F230520846084B00F0F8FC9B
:100A20004FF47A7000F0E4FF054B0A2201211B68A5
:100A300001A801F0C9FF05B030BD00BF3845080866
:100A40009C00002038B5046805467CB16368013B12
:100A500063605BB9236820469B689847A368013BA5
:100A6000A3601BB923682046DB689847284638BD39
:100A70002DE9FF410720FFF703FC00238DF800302C
:100A8000204B214A1B782149054602A8FFF7E6FBC7
:100A900003A8FFF7D7FF08241D4E1E4FDFF87C8008
:100AA00000212046FFF7F2FBB4F5005F13D102F0FE
:100AB0008BF9194901F058FE0134B4F5004FEFD11C
:100AC00029460720FFF7E2FB09210020FFF7DEFBA4
:100AD00004B0BDE8F081B4F5804F03D102F074F9A1
:100AE0004146E7E7B4F5C04F03D102F06DF939464E
:100AF000E0E747F6FF739C42DED102F065F931462C
:100B0000D8E700BFA000002045450808C5450808F3
:100B1000764508086D4508085B45080864450808DF
:100B200030B50024A9B00021192002F0B1FA00214B
:100B30001A2002F0ADFA00211B2002F0A9FA0021D0
:100B40001C2002F0A5FA00210E2002F0A1FA0021DB
:100B5000112002F09DFA0021052002F099FA0121EE
:100B6000072002F095FA01211D2002F091FA0121DF
:100B70001D2002F09EFA0121062002F089FAFFF7FB
:100B80004DFB0121042002F083FA04A800F058FE76
:100B900000237D2208A904A801F0ACFE23462246CA
:100BA0006849CDE9004408A800F05AFE2346022215
:100BB0006549664800F01CFE2346042264496548E6
:100BC00000F016FE234602226349644800F010FE3E
:100BD000234602226249634800F00AFE6249234626
:100BE00004220968614800F003FE2346022260499E
:100BF000604800F0FDFD234602225F495F4800F097
:100C0000F7FD5F4A5F49604801F0B5F85F4A604907
:100C10005D4801F0B0F85F4A5F495B4801F0ABF80E
:100C20005E4A5F49584801F0A6F85E4A5E49564858
:100C300001F0A1F85D4A5E49534801F09CF850214B
:100C40005C48FFF7C1FA5C4D002868D100F018FC41
:100C50005A4B186001232B700220FFF711FB002272
:100C60003D4C1146206003A8039200F0F1FB039B6A
:100C7000142B06D12168022001312160C9B2FFF78F
:100C800005FB2368052B05DD04210220FFF7FEFA92
:100C9000FFF7A4FE0420FFF7F3FA00F10B03DBB229
:100CA000162B4DD840B202F0D9FF01F009FF072002
:100CB000FFF7E6FA424C434B2070C0F3C0001870B7
:100CC0001420FFF7EBFA2C4B186023789B0706D50E
:100CD0000E20FFF727FB00223B4B18605A603B4871
:100CE00001F03EFB03F0D4F9214B1860384B1B6830
:100CF000984201DDFFF7D4FB002301223549009320
:100D000011204FF0FF3301F0FFFB2B7804A8012BDB
:100D10001CBF02232B7001F064FD29B030BD2046BA
:100D2000FFF7AEFA092897D0FFF7A2FE2046FFF79B
:100D3000A7FA09288AD121460720FFF7A7FA8BE7EF
:100D40002548B2E76D110808A40000207B4508087B
:100D50000040024082450808D0000020894508086C
:100D6000E8000020944508080C000020A045080871
:100D7000DC000020A8450808B4000020B34508089E
:100D8000BF450808DD0D08084B1D0808CA450808BE
:100D9000E9020808D745080841020808E2450808A2
:100DA00001020808EB45080819120808F845080868
:100DB000CD120808B9000020D8000020D40000207F
:100DC000B0000020EC000020C8000020A800002097
:100DD000000000201D0208080000A0C008B504495A
:100DE00001F076FD10B1FFF743FE012008BD00BF02
:100DF0001D450808002110B5A4B07C2205A8049167
:100E000003F0E5F91E4B1C78E20703D51D4904A841
:100E100003F00AFAA30703D51B4904A803F004FA58
:100E2000600703D5194904A803F0FEF9210703D58B
:100E3000174904A803F0F8F9E20603D5154904A8F8
:100E400003F0F2F9230603D5134904A803F0ECF9E3
:100E5000FFF7A6FD114B1B7863B100238DF800301E
:100E60000F4B02A81B780F4904AAFFF7F7F903A854
:100E7000FFF7E8FD00F004FB0B4B186024B010BD39
:100E8000A1000020054608081A4608082F46080851
:100E9000434608085446080865460808EC00002048
:100EA000A00000207B450808BC00002000B5144BC2
:100EB000C7B01B684FF480710393124B124A1B6832
:100EC00006A80293114B1B680193114B1B680093FA
:100ED000104B1B7800F06CFD00238DF800300E4B9A
:100EE00006AA1B780D4904A8FFF7B8F905A8FFF773
:100EF000A9FD01220A4B1A7047B05DF804FB00BF40
:100F0000D0000020E800002070460808DC00002027
:100F1000B4000020A1000020A0000020B74608086F
:100F2000B800002030B5794C85B02378013B042B04
:100F300054D8DFE803F0C20335558F00FFF73CFDBE
:100F400010B900F065FCF9E7FFF736FDFFF782FB0B
:100F500008B10423237000F093FA6D4B186001F080
:100F600033FE6C4B1B78984211D00423237001F0A0
:100F70002BFE054658B9684B014618601420FFF750
:100F80009FF900F055FC10B1284600F071FC634B4E
:100F90001A68634B1B689A4220DC032323701DE010
:100FA00000F046FC08B1FFF7EBFA00245D4B214648
:100FB00007201C7002F07DF821461D2002F079F810
:100FC000FFF72CF901F00CFE3C22574BC0F13C001E
:100FD000424301211B6802A801F0F6FC05B030BDB8
:100FE000FFF71CF90023514D2B7000F021FC40B994
:100FF000FFF756FA28B900F043FA4D4B1860012369
:10100000CCE74C4B1B780BB1FFF7F4FEFFF74EFF1C
:1010100000F036FA484B186001F0D6FD3D4B1870D1
:10102000FFF7BEFC454B1B7863B100238DF8003001
:10103000434B02A81B78434A4349FFF70FF903A823
:10104000FFF700FD00F01CFA404B186001232B70E5
:101050000523A3E73E4B1D78BDB902232370FFF79C
:101060009FFC364B1B785BB1354B8DF800501B78DD
:10107000384A02A83449FFF7F1F803A8FFF7E2FC69
:1010800000F0FEF9314B1860A8E700F0F9F92A4B9F
:101090001B68C01A304B1B6898429FD300F0F0F9D0
:1010A000234B186001232370FFF77AFC00238DF88F
:1010B0000030234B294A1B78DBE700F0E1F91C4B99
:1010C0001B68C01A264B1B68984287D300241C4B10
:1010D0008DF800401B78234A1B4902A8FFF7BEF891
:1010E00003A8FFF7AFFC4FF4FA6000F081FC1E4B41
:1010F0001B68032B02DC01F064FC6FE72146022031
:10110000FFF7C4F8FFF76AFC68E700BFD8000020CB
:10111000C0000020B1000020B4000020DC0000204E
:1011200000000020C40000209C00002004000020DB
:10113000D4000020A1000020F0000020EC000020DE
:10114000A0000020C9460808DE460808BC000020B0
:10115000B8000020E446080818000020E946080806
:101160001000002000470808D00000201FB50C46E2
:1011700099B9FFF715FC204B8DF800401B781F4AEA
:101180001F4902A8FFF76AF803A8FFF75BFC00F00D
:1011900077F91C4B186004B010BD084602F0FEFF42
:1011A000C838012819D8FFF7FBFB174B1B7863B130
:1011B00000238DF80030104B02A81B78134A144905
:1011C000FFF74CF803A8FFF73DFC00F059F90022A7
:1011D0000C4B18600F4B1A70DDE700238DF80030C0
:1011E000054B02A822461B780549FFF737F803A8EC
:1011F000FFF728FCCFE700BFA00000201847080831
:1012000020470808BC000020EC0000202D470808FB
:10121000DE460808B800002030B5234985B00546F1
:1012200001F056FB044618B30124204B07201C7024
:10123000FFF726F81E4B0720197841F008011970B6
:10124000FFF724F8FFF7ACFB00238DF80030194BB3
:10125000194A1B78194902A8FFF700F803A8FFF7FD
:10126000F1FB00F00DF9164B1860012005B030BD00
:101270002846144901F02CFB0028F7D00B4B07201F
:101280001C70FEF7FDFF0A4B0720197801F0F701EB
:101290001970FEF7FBFFFFF783FB064B8DF800404C
:1012A0001B78094AD6E700BF1D450808EC0000205E
:1012B000B0000020A00000203F470808624708084F
:1012C000BC0000205047080852470808F0B5CBB0D2
:1012D0000A22006803A903F071F8C5B205F10C03F6
:1012E000DBB2182B44D844B2204602F0B7FC01F020
:1012F000E7FB29460420FEF7C9FF01F054FC002655
:101300001C4FC1172346C7E900011B4A4FF48071E7
:101310001A4D0AA800F04CFBFFF742FB8DF8006065
:1013200017492B780AAA06A8FEF798FF07A8FFF727
:1013300089FB00F0A5F8134C2060FFF731FBD7E9DB
:10134000002306A801F0DAFB8DF800602B78069ADE
:101350000B4904A8FEF782FF05A8FFF773FB06A858
:1013600001F03FFA00F08CF8206001204BB0F0BD96
:101370000020FBE7E000002067470808A0000020ED
:101380007B470808BC00002038B500240125114B1C
:1013900011481C60114B1D70FEF799FE104B114A4D
:1013A0001C609C809C719A60022000F0CBF9214661
:1013B000284600F0DFF92946042000F041F82146D4
:1013C000094800F07FFF2146BDE83840074801F09A
:1013D0008EB900BF9C000020B9000020A0000020B2
:1013E000900000200000FFFFA8000020C5000020A2
:1013F00008B5024B1B68DB6B019308BD2000060893
:1014000008B5024B1B685B6C019308BD2000060801
:1014100008B5024B1B689B6C019308BD20000608B1
:1014200008B5024B1B685B6C019308BDD001040832
:1014300008B5024B1B689B6C019308BDD0010408E2
:1014400008B5024B1B685B6E019308BDB801040828
:1014500008B5024B1B68DB6E019308BDB801040898
:1014600008B5024B1B685B68019308BD9C0104082A
:1014700008B5024B1B68DB68019308BD9C0104089A
:1014800008B5024B1B685B69019308BD9C01040809
:1014900008B5024B1B689B6D019308BD9C010408B5
:1014A00008B5024B1B68DB6D019308BD9C01040865
:1014B00008B5024B1B685B6E019308BD9C010408D4
:1014C00008B5024B1B681B68019308BDB0010408F6
:1014D00008B5024B1B685B68019308BDB0010408A6
:1014E00008B5024B1B689B68019308BDB001040856
:1014F00008B5024B1B68DB68019308BDB001040806
:1015000008B5024B1B681B69019308BDB0010408B4
:1015100008B5024B1B689B69019308BDB001040824
:1015200008B5024B1B68DB69019308BDB0010408D4
:1015300008B5024B1B681B6B019308BDB001040882
:1015400008B5024B1B68DB68019308BDAC010408B9
:1015500008B5024B1B689B69019308BDAC010408E8
:1015600008B5024B1B68DB69019308BDAC01040898
:1015700008B5024B1B681B6A019308BDAC01040847
:1015800008B5024B1B685B6A019308BDAC010408F7
:1015900008B5024B1B689B6A019308BDAC010408A7
:1015A00008B5024B1B68DB6A019308BDAC01040857
:1015B00008B5024B1B681B6B019308BDAC01040806
:1015C00008B5024B1B685B6B019308BDAC010408B6
:1015D00008B5024B1B681B6C019308BDAC010408E5
:1015E00008B5024B1B689B6C019308BDAC01040855
:1015F00008B5024B1B68DB6C019308BDAC01040805
:1016000008B5024B1B681B6D019308BDAC010408B3
:1016100008B5024B1B68DB69019308BDB4010408DF
:1016200008B5024B1B681B6A019308BDB40104088E
:1016300008B5024B1B689B69019308BDC4010408EF
:1016400008B5024B1B685B6A019308BDC40104081E
:1016500008B5024B1B689B6A019308BDC4010408CE
:1016600008B5024B1B68DB6A019308BDC40104087E
:1016700008B5024B1B681B6B019308BDC40104082D
:1016800008B5024B1B685B6B019308BDC4010408DD
:1016900008B5024B1B689B6B019308BDC40104088D
:1016A00008B5024B1B681B6C019308BDC4010408FC
:1016B00008B5024B1B681B68019308BD1C00060897
:1016C00008B5024B1B681B69019308BD1C00060886
:1016D00008B5024B1B685B69019308BD1C00060836
:1016E00008B5024B1B689B69019308BD1C000608E6
:1016F00008B5024B1B68DB69019308BD1C00060896
:1017000008B5024B1B681B6A019308BD1C00060844
:1017100008B5024B1B685B6B019308BDA001020872
:1017200008B5034B1B68D3F89830019308BD00003F
:10173000A001020808B5024B1B681B68019308BD95
:10174000A401040808B5024B1B685B68019308BD3F
:10175000A401040808B5024B1B685B69019308BD2E
:10176000A401040808B5024B1B689B69019308BDDE
:10177000A401040808B5024B1B68DB6A019308BD8D
:10178000A401040808B5024B1B68DB6C019308BD7B
:10179000A401040808B5024B1B685B6D019308BDEA
:1017A000A401040808B5024B1B689B6D019308BD9A
:1017B000A401040808B5034B1B68D3F890300193CB
:1017C00008BD0000A401040808B5034B1B68D3F84A
:1017D0009C30019308BD0000A401040808B5034B28
:1017E0001B68D3F8B830019308BD0000A4010408B9
:1017F00008B5024B1B681B68019308BDCC010408A7
:1018000008B5024B1B685B68019308BDCC01040856
:1018100008B5024B1B689B68019308BDCC01040806
:1018200008B5024B1B68DB68019308BDCC010408B6
:1018300008B5024B1B685B69019308BDCC01040825
:1018400008B5024B1B68DB69019308BDCC01040895
:1018500008B5024B1B681B6A019308BDCC01040844
:1018600008B5024B1B685B6A019308BDCC010408F4
:1018700008B5024B1B68DB6A019308BDCC01040864
:1018800008B5024B1B681B6B019308BDCC01040813
:1018900008B5024B1B68DB6B019308BDCC01040843
:1018A00008B5024B1B685B6C019308BDCC010408B2
:1018B00008B5024B1B685B68019308BDC8010408AA
:1018C00008B5024B1B689B68019308BDC80104085A
:1018D00008B5024B1B68DB68019308BDC80104080A
:1018E00008B5024B1B681B69019308BDC8010408B9
:1018F00008B5024B1B685B69019308BDC801040869
:1019000008B5024B1B689B69019308BDC801040818
:1019100008B5024B1B68DB69019308BDC8010408C8
:1019200008B5024B1B681B6A019308BDC801040877
:1019300008B5024B1B681B6B019308BDC801040866
:1019400008B5024B1B685B6B019308BDC801040816
:1019500008B5024B1B681B6C019308BDC801040845
:1019600008B5024B1B685B6C019308BDC8010408F5
:1019700008B5024B1B681B68019308BDA001040851
:1019800008B5024B1B685B68019308BDA001040801
:1019900008B5024B1B689B68019308BDA0010408B1
:1019A00008B5024B1B681B69019308BDA001040820
:1019B00008B5024B1B68DB69019308BDA001040850
:1019C00008B5024B1B68DB6A019308BDA00104083F
:1019D00008B5024B1B681B6B019308BDA0010408EE
:1019E00008B5024B1B685B6C019308BDA00104089D
:1019F0000021FFF7AFBE10B5836804460BB901F0B4
:101A000009FCC3689847A3681BB1032221462046FE
:101A100098472046BDE81040102101F0F7BBF0B513
:101A2000002685B0044610460F461546039602F080
:101A300030FC7B6881B20096284603AAFFF7D8FCE9
:101A400030B13146204600F0BBFD204605B0F0BD68
:101A5000204603A900F0ACFDF7E7002240681146DC
:101A6000FFF75EBF002240681146FFF769BF002202
:101A70004068FFF75DBF0022406881F00101FFF779
:101A800047BF002340681A461946FFF739BF0023B5
:101A900040681A461946FFF72BBF002240681146DE
:101AA000FFF70EBF002202214068FFF711BF00239D
:101AB00040681A46FFF7FCBEF0B5002518260F4611
:101AC000194B3246036030332946C0E9025589B0CC
:101AD00043600446103002F07AFB2A4629467868B3
:101AE000FFF7FEFE18B9A060204609B0F0BD2946F8
:101AF000324602A8CDE9005502F069FB684602A90A
:101B0000ADF80860FFF77CFC10B10123A360EBE7A0
:101B1000009B019AA360E2600BB90223A3602046F8
:101B200002A900F0B8F8DFE7EC47080810B5282450
:101B3000074B22461846002102F049FB4FF0FF32C6
:101B400042600422034B04805A60034A1A6010BDAD
:101B5000FC000020F4000020B04708087047007D1A
:101B600070470346007D70B19A69B2F1004F07D00B
:101B7000022807D0186AB0F1004018BF0120704752
:101B8000002070470120704703681B6A184710B592
:101B90000446282101F03AFB204610BD08B5037D1C
:101BA0005BB1C069002808DB02F058F8044902F074
:101BB0005DF9044902F0A6F808BD0348FCE700BF40
:101BC00000FF7F470000C842000080BF08B5037DCA
:101BD0004BB18069B0F1004F05D002F03FF80349E6
:101BE00002F044F908BD0020FCE700BF0000C84235
:101BF00008B5037D5BB1406A002808DB02F02EF8CF
:101C0000044902F033F9044902F07CF808BD0348A6
:101C1000FCE700BF00FF7F470000C842000080BF14
:101C200008B5037D4BB1006AB0F1004F05D002F05A
:101C300015F8034902F01AF908BD0020FCE700BFBF
:101C40000000C84270B50C1E06460ADA2D2100F0CD
:101C50007CFD054661420A22304600F08FFD284493
:101C600070BD21460025F6E770B50C460546816833
:101C70002046FFF7E7FF2C210646204600F065FDD1
:101C8000E96806442046FFF7DDFF304470BDA0F14F
:101C90000400FFF7E9BF30B50D4600F110040FCD89
:101CA0000FC495E8030084E80300012030BD7047AD
:101CB0000020704710B50446102101F0A7FA204615
:101CC00010BD08B5FFF7F6FF08BD10B583680446E0
:101CD00013B1032201469847204610BD002230B5BB
:101CE0004FF69C74026084808D888C800C6885809F
:101CF00004600A6030BD10B504460068FFF740FE7E
:101D0000204610BD38B5C468F4B12378022B03D146
:101D100004F10C00FFF7EFFF656835B12846FFF7C7
:101D2000D4FF1021284601F071FAA56835B1284684
:101D3000FFF7CBFF1021284601F068FA2046BDE8E6
:101D40003840142101F062BA38BD10B588B004469D
:101D5000684600F090FD694604A800F0AEFD04A8B6
:101D6000A047044604A800F03CFD684600F039FD99
:101D7000204608B010BD1FB500231024CDE9020194
:101D8000019269461A461846ADF80230ADF8004097
:101D9000FFF736FD04B010BD1FB50C230021ADF8D0
:101DA00004300368ADF80D108DF80630037A8DF815
:101DB0000F108DF8073043680293437A01A88DF81D
:101DC0000C30FFF76DFD05B05DF804FB0B68036098
:101DD00013B15A6801325A60704773B50E46044613
:101DE00056F8043B0D4601A831460093FFF7EEFF7D
:101DF000009B019A23600023626001A80193009375
:101E0000FEF720FE3046FEF71DFE2846082101F0B1
:101E1000FDF9204602B070BD13B56C460B46024674
:101E200003C884E8030093E8030082E8030094E811
:101E3000030083E8030002B010BD826810B50AB940
:101E400001F0E8F9C368BDE81040184708B500681C
:101E500000F11001FFF7F1FF08BD826810B50AB963
:101E600001F0D8F9C368BDE81040184708B500680C
:101E700000F11001FFF7F1FF08BD000038B50023A5
:101E80000446036010200D46FEF70FF928B1012328
:101E9000C0E90133024BC56003602060204638BDB5
:101EA0002848080838B5002383608B6804460D462F
:101EB0002BB102229847EB68E360AB68A360204631
:101EC00038BD0000F0B589B004686846FFF706FF2A
:101ED0004FF00203D4E84F2F002A03D1C4E8413F5A
:101EE0000029F7D125D104F10C0569462846FFF7F2
:101EF000F5FE0123BFF35B8F63700020BFF35B8FA0
:101F000004F1080353E8006F43E80002002AF9D106
:101F1000BFF35B8F6EB1FFF735FC78B129463046D1
:101F2000FFF78BFF3046FFF7D0FE1021304601F05F
:101F30006DF96846FFF7DFFE09B0F0BD314602A833
:101F4000FFF7B0FFE068B4F9105008B102F086F96D
:101F500006901020ADF81C50FEF7A7F80546E8B132
:101F6000002787601820FEF7A0F8044688B10146D4
:101F7000876002A8FFF750FF049BA268A360059B3F
:101F80000492E26806A9E36004F110000592FFF7ED
:101F9000A5FE084B2C60EB60074BAB6006A8FFF773
:101FA000AAFE02A8FFF791FE002229460348FFF788
:101FB000F1FBB7E74D1E0808E5200808F7190808E7
:101FC0002DE9F0478AB005460C46174698469DF81D
:101FD0004890FFF72DFC07AE824638BB4FF62E73B4
:101FE000059005A93046ADF81830FFF777FE1420AC
:101FF000FEF75BF8044648B1022303700123C0E9F1
:1020000001AA437031460C30FFF768FE284621468E
:1020100040F8044BFFF732FF3046FFF76CFE05A88F
:10202000FFF769FE28460AB0BDE8F0870C234FF0A1
:10203000000A1420CDE908AA0793FEF736F80146F6
:1020400028B1C0E901AA80F800A080F801A004A886
:102050000391FFF713FF224B08200893FEF725F8A2
:10206000824628B1039B04A940F8043BFFF7AEFE6B
:1020700042463946204600965FFA89F3CDF824A0FF
:10208000FFF7E6FBB8B9039B5B7803F0FF0293B957
:102090004FF69C7305A903A80592ADF81830FFF719
:1020A00011FF05A8FFF727FE05A80999FFF795FE80
:1020B00006A8FEF7C7FC039B04A906A80593FFF733
:1020C00085FE059B069A2B6000236A6006A806938E
:1020D0000593FEF7B7FC04A8FEF7B4FCA2E700BF27
:1020E000A9210808022AF8B5054607D0032A18D006
:1020F000012A01D10B6803600020F8BD18200E688A
:10210000FDF7D3FF044650B13146FFF7CBFE3069EF
:10211000B6F9147008B102F0A1F82061A7822C6012
:10212000EAE70468002CE7D004F11000FFF7E3FDB4
:102130002046FFF7CAFD1821204601F067F8DBE7CB
:1021400038B5002383608B6804460D462BB102220C
:102150009847EB68E360AB68A360204638BD022A6D
:1021600070B5044607D0032A12D0012A01D10B68AA
:102170000360002070BD14200E68FDF796FF054631
:1021800020B13146FFF7DCFF337C2B742560F0E78C
:102190000468002CEDD02046FFF797FD142120465F
:1021A00001F034F8E5E70000F0B5044689B00D46CB
:1021B00001A81146FFF711FEA4B124B21DB12846B3
:1021C00002F04CF8054601A803A90395ADF81040AC
:1021D000FFF778FE03A8FFF78EFD02A8FEF732FC9A
:1021E00009B0F0BD0123019DD5E84F2F002A03D18E
:1021F000C5E8413F0029F7D1EFD12B73BFF35B8FC7
:102200006B70BFF35B8F2B1D53E8006F43E80042F8
:10221000002AF9D1BFF35B8F002EDED02046FFF7F6
:10222000B1FA074660B1304605F10C01FFF715FE23
:102230003046FFF74AFD1021304600F0E7FFCCE7BB
:10224000314603A8FFF77CFF2B7B10208DF81C3054
:10225000FDF72BFF0546D0B187601420FDF725FF61
:10226000044678B10146876003A8FFF7D5FD059BBA
:10227000A268A360069B0592E268E3609DF81C30AB
:1022800006922374064B2C60EB60064BAB6003A8F0
:10229000FFF71BFD002229460348FFF77BFAC7E73B
:1022A0006D1E08085F210808F7190808006800F08B
:1022B00017B910B50446016002710AB1FFF7F6FFC5
:1022C000204610BD38B504460D4600F06DFF2A4685
:1022D00001462046FFF7EDFF204638BD006800F0BC
:1022E00008B92DE9FF4104460D4617461E46FFF783
:1022F000DDFF36238DF8003000234FF001080193F5
:102300000A236946206803938DF8088000F0C9F815
:102310002068294603689B6898474146206800F07A
:10232000D8F8054640B16FF09F052046FFF7D6FF6D
:10233000284604B0BDE8F081022369462068019375
:1023400000F07CF80228EED1206803685B699847AA
:102350003870206803685B6998473070E5E70000D3
:10236000002313B504218DF806308DF807300DF1E8
:1023700006020DF10703FFF7B4FFA0B99DF80700AF
:1023800001F09EF80022094B01F004F901F05CFB1A
:1023900004469DF8060001F061FC0146204601F06C
:1023A000A9FB02B010BD0248FBE700BF0000703F70
:1023B000000080BF7047F8B5064615460C468F18DA
:1023C000BC4206D0336830469B6814F8011B98471E
:1023D000F6E72846F8BD0022007CFFF7C9B80021C7
:1023E000007CFFF7CDB80021007CFFF7D1B80021B9
:1023F000007CFFF7D5B80021007CFFF7D9B810B5F5
:102400000446142100F002FF204610BD10B54FF421
:102410007A73044608460021C4E90113034B1146B0
:1024200023602074FFF7D4F8204610BD4448080804
:102430000023007C1A461946FFF782B87FB50022B8
:102440001423CDE90122ADF804300B78007C8DF81F
:1024500008304B680393CB6804930B7A01A905936A
:10246000FFF7CEF807B05DF804FB1FB5003B8DF811
:1024700000104FF0640118BF0123039169460192D7
:102480008DF80830FFF7DAFF05B05DF804FB012393
:10249000FFF7EBBF0022007CFFF75AB8C9B2FFF785
:1024A000F9BF7FB500220B46CDE901221422ADF819
:1024B00004205A6809780392DA681B7A0492007C37
:1024C00001AA8DF808100593FFF742F807B05DF8F0
:1024D00004FB0022007CFFF743B80121FFF7F9BF9E
:1024E00008B50021007CFFF77BF8B0FA80F04009C6
:1024F00008BD08B50021007CFFF77AF8B0FA80F03B
:10250000400908BD004700002DE9FF4100241D4699
:102510000F4690460646FFF703F80423A5428DF8C0
:102520000C30A8BF9DF82830ADF80D408DF80F4055
:10253000A4BF03AC8DF80E303A46434630460649F8
:102540000094A8BF8DF80D50FEF7E2FFB0FA80F0BE
:10255000400904B0BDE8F08105250808704710B5B2
:102560000446082100F052FE204610BDF8B50E4684
:10257000002400F10807051D17F8011D0A22304646
:1025800000F0FCF8AF42044401D12046F8BD002C15
:10259000F2D02E21304600F0D8F80444ECE70000D9
:1025A000024A026000224260704700BF6C4808087F
:1025B000024A02600A684260704700BF6C4808081F
:1025C000014AC0E9002170476C48080810B59DF821
:1025D000084044EA032444EA024444EA01644460B3
:1025E00010BD000037B5044D05609DF818500095EA
:1025F000FFF7ECFF03B030BD6C480808014B024AFE
:102600001A607047240100207848080800234068B9
:102610001A46FFF74DB9002202214068FFF758B96A
:10262000002240681146FFF74BB90022406811466E
:10263000FFF756B9002340681A461946FFF758B904
:10264000002340681A461946FFF75AB9002140682E
:10265000FFF77EB900214068FFF782B90022406889
:1026600081F00101FFF754B900224068FFF760B91B
:10267000002240681146FFF763B900224068114606
:10268000FFF74EB970B51546002686B0044604A87B
:10269000FFF786FF2846039601F0FBFD0A4B0096E4
:1026A00081B25B68284603AAFEF7A2FE30B131462C
:1026B0002046FFF785FF204606B070BD204603A9DF
:1026C000FFF776FFF7E700BFF4000020024B034A54
:1026D0001A6000225A6070472801002084480808C8
:1026E00008B500F061FDBDE80840FFF7F9BE10B580
:1026F0000446017009B1FFF7F3FF204610BDF8B59D
:1027000006460D4600248F18BD420CD03368304673
:102710009B6815F8011B9847031E01DB1C44F3E777
:10272000002C08BF1C462046F8BD70B505460C4677
:10273000084649B101F0ADFD2B6802462146284606
:10274000BDE87040DB68184770BD03689B68184798
:1027500038B50D210546FFF7F8FF0A210446284643
:10276000FFF7F3FF204438BD38B50546FFF7DDFF1E
:1027700004462846FFF7ECFF204438BD0023012A19
:1027800098BF0A2230B58BB00C468DF8243009A9C9
:102790002546B4FBF2F404FB1253DBB2092B94BFC1
:1027A00030333733DBB2AA4201F8013DF0D9FFF7ED
:1027B000BCFF0BB030BD00000022014B9A60704797
:1027C0003001002070B5002604460D4640F8086F21
:1027D000FEF726FE28462570FEF71AFF20466660A3
:1027E00070BD10B504460068FFF7CAF8204610BD5A
:1027F00010B50446006808B1FFF7C2F80023C4E929
:102800000133236010BD38B504460D460068013120
:10281000FFF7BEF810B1C4E90005012038BD10B5BE
:102820000368044623B143688B4201D3012010BDE5
:102830002046FFF7E8FF0028F9D0A368002BF5D168
:1028400022681370F2E770B50E461146044615462D
:10285000FFF7E5FF20B92046FFF7CAFF204670BD0D
:102860002A4631462068A56001F0A3FC00212268B9
:10287000A368D154F2E738B5002304460D46C0E9F9
:1028800000338360037339B1084601F002FD294625
:1028900002462046FFF7D7FF204638BD884210B5D4
:1028A0000B46044604D0096821B19A68FFF7CBFFB4
:1028B000204610BDFFF79CFFFAE7002310B5044641
:1028C000C0E9003383600373FFF7E8FF204610BDC3
:1028D00008B582683AB921B10878B0FA80F04009A9
:1028E00000E0012008BD006809B90078F5E701F0B3
:1028F000AAFCF2E758B50E462AB121B18468A3427A
:1029000002D300230B7058BDE41A013A944228BF49
:102910001446016822461944304601F0C2FC0023E7
:102920003355F0E710B50446006818B1FFF728F8F2
:102930000023236010BD38B5B1F904300D46838003
:102940000B4653F8062F0446C0F806209B884381A7
:10295000FFF7E8FF2B6813B1236000232B602046AC
:1029600038BDB1F9043010B50A6833B932B951F83D
:10297000063F03608B88838010BD22B19488012CB0
:1029800003D0042C06D0042205E092898C710B81BF
:102990004A81ECE702220B814FF6FF738A714B816B
:1029A000E5E707B50B4600210246009101208C2186
:1029B000FEF714FF03B05DF804FB01460020FFF7AB
:1029C000F0BF0020FFF7F9BF30B5044685B00846D8
:1029D00011461A460023FEF7C5FE00230193ADF809
:1029E00008308DF80A304FF6FF73094D01A9ADF894
:1029F0000C002846ADF80E30FFF79DFF01A8FFF749
:102A000091FF20462946FFF7ACFF204605B030BDB8
:102A10004001002002220020044B1A60044B054AAA
:102A20001860988098719A60FEF78CBE4C01002067
:102A3000400100200000FFFF2DE9F041154ADFF8BA
:102A40006080D2E90032C01842EB0101124A8CB01A
:102A5000D2E90032C61841EB0207D8E90023BB4295
:102A600008BFB24213D003A96846CDE90067FDF75D
:102A7000D7FA089B094D03F26C7303AC08930FCC93
:102A80000FC50FCC0FC5C8E9006723682B600CB0D9
:102A9000BDE8F08180010020780100205401002071
:102AA0008801002008B50020FEF7EAFE28B1FEF7F5
:102AB000BFFE80F00100C0B208BD0120FCE70000AD
:102AC00010B50A49044601F0BBFA68B92046084926
:102AD00001F0D4FA40B90749204601F013F901F09A
:102AE000FDFA054BC3E9000110BD00BF000040C165
:102AF00000006041000061458001002030B50446BF
:102B0000184893B0D0E90010521840EB0303164860
:102B10000025D0E90010521840EB0303CDE9002353
:102B2000242200210DEB020001F051FB09A96846A7
:102B3000FDF776FA1622294603A8029501F047FB15
:102B400002A909A801F0FEFA02A801F0A2FB12AB4B
:102B5000184400F8415C02A92046FFF78CFE20468D
:102B600013B030BD800100207801002010B5002096
:102B7000FEF78EFC0446A0B9FEF7DCFD012810D15B
:102B80002046FEF70FFE60B9FFF78CFF10B9FEF785
:102B90003FFEF9E7FFF786FFBDE810400020FEF793
:102BA00077BC204610BD1FB5FFF7E0FF10220021C3
:102BB000684601F00CFB00216846FEF779FC00989E
:102BC00005B05DF804FB000008B5FFF7ECFFC11786
:102BD000FFF732FF014B986808BD00BF5401002089
:102BE00008B5FFF7E0FFC117FFF726FF014B586854
:102BF00008BD00BF54010020024B1A68024B1A6046
:102C0000704700BF1C000020500100207047417435
:102C10007047704708B5007CFEF742FD20EAE0707F
:102C200008BD08B5007CFEF713FD20EAE07008BD82
:102C300008B5007CFEF71CFD40EAE07008BD08B551
:102C4000007CFEF70DFD40EAE07008BD007CFEF759
:102C500017BD70B5467C04460D462EB12946207C32
:102C6000BDE87040FEF7ECBC007CFEF719FD0028C3
:102C7000F4DC304670BD10B50446142100F0C6FAED
:102C8000204610BD4FF0000C10B504460846114612
:102C90004FF47A72C4E901C2044A2074226001220E
:102CA00062741A46FEF7C4FC204610BDDC480808D2
:102CB00038B50C4D2978BFF35B8F11F001040FD1AB
:102CC0002846FDF7F8F958B12146074B074A08484E
:102CD000FFF7D8FF2846FDF7F3F9064801F058FA48
:102CE000034838BD90010020180200209401002004
:102CF0009C020020132C08084174704770477047ED
:102D000008B50021007CFEF7EBFC40EAE07008BD4E
:102D100008B50121007CFEF7E3FC40EAE07008BD45
:102D200008B5007CFEF7D4FC20EAE07008BD08B5C9
:102D3000007CFEF7C5FC20EAE07008BD38B504460B
:102D4000007C0D46FEF7C4FC002801DC607C28B145
:102D50002946207CFEF7CCFC20EAE07038BD007CE0
:102D6000FEF7CEBC10B50446142100F04FFA204601
:102D700010BD704710B54FF47A7304460846002121
:102D8000C4E90113044B20742360012311466374CA
:102D9000FEF78EFC204610BD0C49080810B504460D
:102DA0001422002101F013FA054B20466360054B05
:102DB000E36040F2011323818123238210BD00BF11
:102DC000E0020020E103002030B50E4D87B001A8DD
:102DD000FFF7E4FF2978BFF35B8F11F001040ED1F8
:102DE0002846FDF768F950B1214601AA0648FFF7C9
:102DF000C1FF2846FDF764F9044801F0C9F902480B
:102E000007B030BDB0020020B8020020FD2C080839
:102E100010B504461422002101F0D9F9054B2046D3
:102E20006360054BE36040F2011323818123238219
:102E300010BD00BF620400206305002010B50E4CD9
:102E400086B001A8FFF7E4FF2378BFF35B8FDB07B1
:102E50000ED42046FDF72FF950B1012101AA0748F1
:102E6000FFF788FF2046FDF72BF9054801F090F9A0
:102E7000024806B010BD00BFB4020020CC02002002
:102E8000732D0808014B1860704700BF2000002018
:102E900008B5174B43B1FFF797FF03681B699847C5
:102EA000002801DDAFF30080124B43B1FFF700FFB4
:102EB00003681B699847002801DDAFF300800E4BC3
:102EC0000BB1AFF300800D4B0BB1AFF300800C4B97
:102ED0000BB1AFF300800B4B43B1FFF7AFFF0368BB
:102EE0001B699847002801DDAFF3008008BD00BFD3
:102EF00000000000000000000000000000000000D2
:102F0000000000000000000008B5FFF7C1FFFEF759
:102F1000B7FA014B186008BDFC0500200548064AB9
:102F200008B5121A054901F044F9054B054A1A6023
:102F300008BD00BF0040024018400240B04A0808E7
:102F4000144002401E1C279A002307B51A466FF052
:102F500077010093FEF738FC03B05DF804FB000036
:102F600007B543880A2B08D0502B0BD1094B1B689F
:102F70004BB103B05DF804EB1847FFF7E5FF03B072
:102F80005DF804FB00231A466FF077010093FEF70B
:102F90001BFCF4E7E8050020002110B51148FEF7FE
:102FA0001FFD114B1A68114B9A420CBF01220022DF
:102FB0000F4B1A7001D0FFF7B1FFFEF751FA04462C
:102FC00001F00EF90B4B13B12046AFF30080002146
:102FD0000848FEF75DFCBDE8104000210648FEF7FA
:102FE000E9BB00BF852E0808144002401E1C279A2A
:102FF000E405002000000000612F0808024B9868DB
:1030000008B1FEF715BA7047F00500202E2870B5FC
:10301000044601D9002070BDA0F10D03022B0BD98D
:10302000012824D800F09CF80021007CFEF7C8FAA3
:1030300080F00100C0B2EEE7124E3178BFF35B8F33
:1030400011F001050DD13046FDF735F848B129469C
:103050000D48FFF7B7FB3046FDF732F80B4801F09B
:1030600097F8094B1878FEF7DBFA0028D2D1123C0A
:10307000012C05D8FFF71CFE007CFEF709FBD7E703
:103080000120C8E7EC050020F0050020FD2F08080E
:103090002E2838B504460D460AD8FF2908D0FFF778
:1030A000B5FF28B129462046BDE83840FEF718BADA
:1030B00038BD38B504460D46FEF71AFAFF2810D081
:1030C000062804D84D2323FA00F0C30709D420466C
:1030D000FFF79CFF28B129462046BDE83840FEF79F
:1030E0000FBA38BD10B5044609289CBF0A34A4B2F3
:1030F0002046FFF78BFF50B103212046FEF7E8F989
:10310000032804D12046BDE81040FEF711BA002084
:1031100010BD7047002370B5202543801423084E4E
:1031200004460380314685600561284600F070F84A
:1031300031466060284600F06BF8E060204670BDC4
:1031400034490808704710B50446FFF7E3FF2046EE
:1031500010BD10B50446FFF7DDFF204610BD00008E
:1031600030B50E4D87B02978BFF35B8F11F00104A5
:1031700011D12846FCF79FFF68B101A8FFF7E3FFD4
:10318000214601AA0648FFF741F92846FCF798FFB7
:10319000044800F0FDFF024807B030BD00060020E3
:1031A000080600201331080810B50E4C86B02378AD
:1031B000BFF35B8FDB0711D42046FCF77CFF68B1BF
:1031C00001A8FFF7C6FF022101AA0748FFF71EF971
:1031D0002046FCF775FF054800F0DAFF024806B00C
:1031E00010BD00BF040600201C0600204531080861
:1031F000002307B51A46194600930348FFF7F2F972
:1032000003B05DF804FB00BF30060020FCF751BF9F
:10321000FCF74DBF08B5FEF7D3FB000081F000417D
:1032200002E000BF83F0004330B54FEA41044FEAAB
:10323000430594EA050F08BF90EA020F1FBF54EA46
:10324000000C55EA020C7FEA645C7FEA655C00F0E2
:10325000E2804FEA5454D4EB5555B8BF6D420CDDB3
:103260002C4480EA020281EA030382EA000083EA36
:10327000010180EA020281EA0303362D88BF30BDD6
:1032800011F0004F4FEA01314FF4801C4CEA11312C
:1032900002D0404261EB410113F0004F4FEA03338B
:1032A0004CEA133302D0524263EB430394EA050F16
:1032B00000F0A780A4F10104D5F1200E0DDB02FA85
:1032C0000EFC22FA05F2801841F1000103FA0EF219
:1032D000801843FA05F359410EE0A5F120050EF1DF
:1032E000200E012A03FA0EFC28BF4CF0020C43FA10
:1032F00005F3C01851EBE37101F0004507D54FF01D
:10330000000EDCF1000C7EEB00006EEB0101B1F56C
:10331000801F1BD3B1F5001F0CD349085FEA3000B2
:103320004FEA3C0C04F101044FEA445212F5800FBD
:1033300080F09A80BCF1004F08BF5FEA500C50F15A
:10334000000041EB045141EA050130BD5FEA4C0C3D
:10335000404141EB0101013C28BFB1F5801FE9D29A
:1033600091F0000F04BF01460020B1FA81F308BFBD
:103370002033A3F10B03B3F120020CDA0C3208DD89
:1033800002F1140CC2F10C0201FA0CF021FA02F164
:103390000CE002F11402D8BFC2F1200C01FA02F1D4
:1033A00020FA0CFCDCBF41EA0C019040E41AA2BFF9
:1033B00001EB0451294330BD6FEA04041F3C1CDAC1
:1033C0000C340EDC04F11404C4F1200220FA04F0E1
:1033D00001FA02F340EA030021FA04F345EA03018B
:1033E00030BDC4F10C04C4F1200220FA02F001FA4D
:1033F00004F340EA0300294630BD21FA04F02946CF
:1034000030BD94F0000F83F4801306BF81F4801167
:103410000134013D4EE77FEA645C18BF7FEA655CDA
:1034200029D094EA050F08BF90EA020F05D054EAAC
:10343000000C04BF1946104630BD91EA030F1EBFB1
:103440000021002030BD5FEA545C05D140004941B5
:1034500028BF41F0004130BD14F580043CBF01F5A8
:10346000801130BD01F0004545F0FE4141F470018E
:103470004FF0000030BD7FEA645C1ABF1946104669
:103480007FEA655C1CBF0B46024650EA013406BF6A
:1034900052EA033591EA030F41F4002130BD00BF29
:1034A00090F0000F04BF0021704730B54FF48064E6
:1034B00004F132044FF000054FF0000150E700BF67
:1034C00090F0000F04BF0021704730B54FF48064C6
:1034D00004F1320410F0004548BF40424FF00001B3
:1034E0003EE700BF42004FEAE2014FEA31014FEAF6
:1034F00002701FBF12F07F4393F07F4F81F0605145
:10350000704732F07F4208BF704793F07F4F04BF8F
:1035100041F40021704730B54FF4607401F000456C
:1035200021F000411CE700BF50EA010208BF7047CC
:1035300030B54FF000050AE050EA010208BF7047BD
:1035400030B511F0004502D5404261EB41014FF426
:10355000806404F132045FEA915C3FF4D8AE4FF02E
:1035600003025FEADC0C18BF03325FEADC0C18BF11
:10357000033202EBDC02C2F1200300FA03FC20FA62
:1035800002F001FA03FE40EA0E0021FA02F11444AF
:10359000BDE600BF70B54FF0FF0C4CF4E06C1CEAC8
:1035A00011541DBF1CEA135594EA0C0F95EA0C0F39
:1035B00000F0DEF82C4481EA030621EA4C5123EAAC
:1035C0004C5350EA013518BF52EA033541F48011DB
:1035D00043F4801338D0A0FB02CE4FF00005E1FB8E
:1035E00002E506F00042E0FB03E54FF00006E1FBD8
:1035F00003569CF0000F18BF4EF0010EA4F1FF041B
:10360000B6F5007F64F5407404D25FEA4E0E6D415A
:1036100046EB060642EAC62141EA55514FEAC5206B
:1036200040EA5E504FEACE2EB4F1FD0C88BFBCF5E7
:10363000E06F1ED8BEF1004F08BF5FEA500E50F198
:10364000000041EB045170BD06F0004646EA01015E
:1036500040EA020081EA0301B4EB5C04C2BFD4EB90
:103660000C0541EA045170BD41F480114FF0000E89
:10367000013C00F3AB8014F1360FDEBF002001F0F7
:10368000004170BDC4F10004203C35DA0C341BDC71
:1036900004F11404C4F1200500FA05F320FA04F043
:1036A00001FA05F240EA020001F0004221F0004177
:1036B00010EBD37021FA04F642EB06015EEA430EEA
:1036C00008BF20EAD37070BDC4F10C04C4F120051A
:1036D00000FA04F320FA05F001FA04F240EA0200CD
:1036E00001F0004110EBD37041F100015EEA430E9E
:1036F00008BF20EAD37070BDC4F1200500FA05F2BE
:103700004EEA020E20FA04F301FA05F243EA02033C
:1037100021FA04F001F0004121FA04F220EA02004B
:1037200000EBD3705EEA430E08BF20EAD37070BD91
:1037300094F0000F0FD101F00046400041EB010171
:1037400011F4801F08BF013CF7D041EA060195F053
:10375000000F18BF704703F00046520043EB03030D
:1037600013F4801F08BF013DF7D043EA06037047FA
:1037700094EA0C0F0CEA135518BF95EA0C0F0CD005
:1037800050EA410618BF52EA4306D1D181EA03014B
:1037900001F000414FF0000070BD50EA410606BF45
:1037A0001046194652EA430619D094EA0C0F02D18A
:1037B00050EA013613D195EA0C0F05D152EA0336CF
:1037C0001CBF104619460AD181EA030101F00041ED
:1037D00041F0FE4141F470014FF0000070BD41F036
:1037E000FE4141F4780170BD70B54FF0FF0C4CF410
:1037F000E06C1CEA11541DBF1CEA135594EA0C0F2F
:1038000095EA0C0F00F0A7F8A4EB050481EA030E7B
:1038100052EA03354FEA013100F088804FEA033362
:103820004FF0805545EA131343EA12634FEA022230
:1038300045EA111545EA10654FEA00260EF00041F1
:103840009D4208BF964244F1FD0404F5407402D243
:103850005B084FEA3202B61A65EB03055B084FEAD4
:1038600032024FF480104FF4002CB6EB020E75EBD1
:10387000030E22BFB61A754640EA0C005B084FEAF9
:103880003202B6EB020E75EB030E22BFB61A754676
:1038900040EA5C005B084FEA3202B6EB020E75EBC1
:1038A000030E22BFB61A754640EA9C005B084FEA39
:1038B0003202B6EB020E75EB030E22BFB61A754646
:1038C00040EADC0055EA060E18D04FEA051545EA35
:1038D00016754FEA06164FEAC30343EA52734FEADE
:1038E000C2025FEA1C1CC0D111F4801F0BD141EA57
:1038F00000014FF000004FF0004CB6E711F4801FBC
:1039000004BF01430020B4F1FD0C88BFBCF5E06F9B
:103910003FF6AFAEB5EB030C04BFB6EB020C5FEAAB
:10392000500C50F1000041EB045170BD0EF0004E00
:103930004EEA113114EB5C04C2BFD4EB0C0541EA32
:10394000045170BD41F480114FF0000E013C90E62F
:1039500045EA060E8DE60CEA135594EA0C0F08BFF3
:1039600095EA0C0F3FF43BAF94EA0C0F0AD150EAF2
:1039700001347FF434AF95EA0C0F7FF425AF104685
:1039800019462CE795EA0C0F06D152EA03353FF4AD
:10399000FDAE1046194622E750EA410618BF52EA2A
:1039A00043067FF4C5AE50EA41047FF40DAF52EAFE
:1039B00043057FF4EBAE12E74FEA410212F5001225
:1039C00015D211D56FF47873B3EB625212D94FEA66
:1039D000C12343F0004343EA505311F0004F23FA50
:1039E00002F018BF404270474FF00000704750EAA5
:1039F000013005D111F0004008BF6FF00040704762
:103A00004FF00000704700BF4A0011D212F50012BB
:103A100011D20DD56FF47873B3EB62520ED44FEA26
:103A2000C12343F0004343EA505323FA02F07047A6
:103A30004FF00000704750EA013002D14FF0FF30E4
:103A400070474FF0000070474FEA4102B2F1E04387
:103A500024BFB3F5001CDCF1FE5C0DD901F0004C75
:103A60004FEAC0024CEA5070B2F1004F40EB8300C5
:103A700008BF20F00100704711F0804F21D113F1F1
:103A80003872BCBF01F00040704741F480114FEA2A
:103A90005252C2F11802C2F1200C10FA0CF320FAB3
:103AA00002F018BF40F001004FEAC1234FEAD323D0
:103AB00003FA0CFC40EA0C0023FA02F34FEA43033A
:103AC000CCE77FEA625307D150EA01331EBF4FF0C3
:103AD000FE4040F44000704701F0004040F0FE40DE
:103AE00040F40000704700BF80F0004002E000BFDB
:103AF00081F0004142001FBF5FEA410392EA030FD9
:103B00007FEA226C7FEA236C6AD04FEA1262D2EB22
:103B10001363C1BFD218414048404140B8BF5B4227
:103B2000192B88BF704710F0004F40F4000020F0C0
:103B30007F4018BF404211F0004F41F4000121F0D6
:103B40007F4118BF494292EA030F3FD0A2F1010220
:103B500041FA03FC10EB0C00C3F1200301FA03F15E
:103B600000F0004302D5494260EB4000B0F5000F81
:103B700013D3B0F1807F06D340084FEA310102F140
:103B80000102FE2A51D2B1F1004F40EBC25008BFF2
:103B900020F0010040EA03007047490040EB0000BC
:103BA000013A28BFB0F5000FEDD2B0FA80FCACF1BD
:103BB000080CB2EB0C0200FA0CF0AABF00EBC250EA
:103BC00052421843BCBFD0401843704792F0000FD8
:103BD00081F4000106BF80F400000132013BB5E72B
:103BE0004FEA41037FEA226C18BF7FEA236C21D0A1
:103BF00092EA030F04D092F0000F08BF0846704706
:103C000090EA010F1CBF0020704712F07F4F04D1D3
:103C1000400028BF40F00040704712F100723CBFE6
:103C200000F50000704700F0004343F0FE4040F410
:103C3000000070477FEA226216BF08467FEA2363CE
:103C40000146420206BF5FEA412390EA010F40F4B9
:103C5000800070474FF0000304E000BF10F0004305
:103C600048BF40425FEA000C08BF704743F09643EC
:103C700001464FF000001CE050EA010208BF704707
:103C80004FF000030AE000BF50EA010208BF70478E
:103C900011F0004302D5404261EB41015FEA010CA3
:103CA00002BF84460146002043F0B64308BFA3F19B
:103CB0008053A3F50003BCFA8CF2083AA3EBC2537D
:103CC00010DB01FA02FC634400FA02FCC2F120029C
:103CD000BCF1004F20FA02F243EB020008BF20F0D3
:103CE0000100704702F1200201FA02FCC2F1200239
:103CF00050EA4C0021FA02F243EB020008BF20EA2E
:103D0000DC7070474FF0FF0C1CEAD0521EBF1CEA5B
:103D1000D15392EA0C0F93EA0C0F6FD01A4480EA49
:103D2000010C400218BF5FEA41211ED04FF0006332
:103D300043EA501043EA5111A0FB01310CF000405E
:103D4000B1F5000F3EBF490041EAD3715B0040EA84
:103D5000010062F17F02FD2A1DD8B3F1004F40EB54
:103D6000C25008BF20F00100704790F0000F0CF027
:103D7000004C08BF49024CEA502040EA51207F3AEB
:103D8000C2BFD2F1FF0340EAC250704740F40000C6
:103D90004FF00003013A5DDC12F1190FDCBF00F0B7
:103DA00000407047C2F10002410021FA02F1C2F165
:103DB000200200FA02FC5FEA310040F1000053EA01
:103DC0004C0308BF20EADC70704792F0000F00F04F
:103DD000004C02BF400010F4000F013AF9D040EA55
:103DE0000C0093F0000F01F0004C02BF490011F4E9
:103DF000000F013BF9D041EA0C018FE70CEAD153E7
:103E000092EA0C0F18BF93EA0C0F0AD030F0004C66
:103E100018BF31F0004CD8D180EA010000F000401A
:103E2000704790F0000F17BF90F0004F084691F0D8
:103E3000000F91F0004F14D092EA0C0F01D1420212
:103E40000FD193EA0C0F03D14B0218BF084608D1DB
:103E500080EA010000F0004040F0FE4040F4000025
:103E6000704740F0FE4040F4400070474FF0FF0CB8
:103E70001CEAD0521EBF1CEAD15392EA0C0F93EAFF
:103E80000C0F69D0A2EB030280EA010C49024FEA51
:103E9000402037D04FF0805343EA111143EA10130A
:103EA0000CF000408B4238BF5B0042F17D024FF4C2
:103EB000000C8B4224BF5B1A40EA0C00B3EB510F9D
:103EC00024BFA3EB510340EA5C00B3EB910F24BF86
:103ED000A3EB910340EA9C00B3EBD10F24BFA3EB0B
:103EE000D10340EADC001B0118BF5FEA1C1CE0D1D3
:103EF000FD2A3FF650AF8B4240EBC25008BF20F086
:103F0000010070470CF0004C4CEA50207F32C2BFD9
:103F1000D2F1FF0340EAC250704740F400004FF076
:103F20000003013A37E792F0000F00F0004C02BFA7
:103F3000400010F4000F013AF9D040EA0C0093F071
:103F4000000F01F0004C02BF490011F4000F013BCB
:103F5000F9D041EA0C0195E70CEAD15392EA0C0F33
:103F600008D142027FF47DAF93EA0C0F7FF470AF6B
:103F7000084676E793EA0C0F04D14B023FF44CAFAE
:103F800008466EE730F0004C18BF31F0004CCAD143
:103F900030F000427FF45CAF31F000437FF43CAF7F
:103FA0005FE700BF4FF0FF3C06E000BF4FF0010CA1
:103FB00002E000BF4FF0010C4DF804CD4FEA400283
:103FC0004FEA41037FEA226C18BF7FEA236C11D0CD
:103FD00001B052EA530C18BF90EA010F58BFB2EB80
:103FE000030088BFC81738BF6FEAE17018BF40F000
:103FF000010070477FEA226C02D15FEA402C05D1B4
:104000007FEA236CE4D15FEA412CE1D05DF8040B38
:10401000704700BF844608466146FFE70FB5FFF7CB
:10402000C9FF002848BF10F1000F0FBD4DF808ED83
:10403000FFF7F4FF0CBF012000205DF808FB00BF74
:104040004DF808EDFFF7EAFF34BF012000205DF8CE
:1040500008FB00BF4DF808EDFFF7E0FF94BF01201B
:1040600000205DF808FB00BF4DF808EDFFF7D2FF18
:1040700094BF012000205DF808FB00BF4DF808ED5B
:10408000FFF7C8FF34BF012000205DF808FB00BF28
:104090004FEA4002B2F1FE4F0FD34FF09E03B3EB55
:1040A00012620DD94FEA002343F0004310F0004F95
:1040B00023FA02F018BF404270474FF000007047EB
:1040C00012F1610F01D1420205D110F0004008BF8A
:1040D0006FF0004070474FF00000704710B50021AE
:1040E0000446FFF7ADFF20B92046BDE8104000F0C0
:1040F00009B804F1004000F005F8404261EB4101CD
:1041000010BD00BFD0B5FFF7EDF900220B4B0646FE
:104110000F46FFF73FFAFFF777FC0446FFF7C0F9B9
:104120000022074BFFF736FA02460B463046394667
:10413000FFF778F8FFF768FC2146D0BD0000F03D9E
:104140000000F04110B50C46416986B001F26C7177
:10415000036982690491016803EB43030391416899
:1041600002EB4202029181680191C16820460091F0
:1041700004490B4404490A440449FDF711FC204654
:1041800006B010BD6A4908085549080835490808AD
:10419000002301461A46184600F01AB90A220021E7
:1041A00000F00CB908B5801A61EB0301FFF7C4F900
:1041B00008BD0A44914200F1FF3300D1704710B5A9
:1041C00011F8014B914203F8014FF9D110BD03469C
:1041D0000244934200D1704703F8011BF9E7000045
:1041E00038B50D4B04461D68AB6B7BB91820FDF745
:1041F000BFFB0A4A0A4BA863C0E90023094B01220E
:1042000083600B2383810023C0E904230022AB6B6E
:104210001C615A6138BD00BF200000200E33CDABB9
:1042200034126DE6ECDE0500024610B51478134634
:104230000132002CFAD1013B11F8012B03F8012FB8
:10424000002AF9D110BD10F8012B11F8013B012A09
:1042500028BF9A42F7D0D01A70470000024B01469F
:10426000186800F003B800BF2000002070B50446B5
:1042700008460D4600F00DF8461C31462046FDF775
:10428000A7FB044618B132462946FFF792FF2046A5
:1042900070BD034613F8012B002AFBD1181A013810
:1042A0007047034610B5013932B111F8014F013A98
:1042B00003F8014B002CF7D100211A44934200D19E
:1042C00010BD03F8011BF9E72DE9F0478C4686463F
:1042D000394E60461CF8014BA55D15F00805F8D174
:1042E0002D2C33D14FF001089CF8004000F1020C56
:1042F000002B5CD0102B0CD1302C0AD19CF8000084
:1043000000F0DF0058284DD110239CF801400CF13B
:10431000020C002608F10047013FB7FBF3F93046D5
:1043200003FB197AA4F13005092D18D82C46A342B5
:1043300024DD751C07D081451DD301D1A2451ADBB0
:10434000012600FB03401CF8014BEBE72B2C08BFB8
:104350009CF80040A84608BF00F1020CC8E7A4F191
:104360004105192D01D8373CE1E7A4F16105192D6C
:1043700004D8573CDBE74FF0FF36E4E7731C06D167
:1043800022233846CEF8003042B9BDE8F087B8F1B4
:10439000000F00D04042002AF7D00EB10CF1FF31DF
:1043A0001160F2E73024002BB3D10823B1E7302CA1
:1043B000A4D00A23ADE700BF8F49080813460A4678
:1043C000014602480068FFF77FBF00BF20000020C1
:1043D0002DE9F843DFF8BC800646D8F800001F46F8
:1043E0000D46914600F058F8264B1C6834B9264C0F
:1043F0001C60264B13B11B68C4F8883063681F2B00
:1044000007DDD8F8000000F049F84FF0FF30BDE8B4
:10441000F8835EB3D4F8880088B91D4B23B9D8F867
:10442000000000F03AF8F0E74FF48470FDF7A0FACE
:104430000028F4D00023C0E94033C4F888000122EA
:104440006368022E40F8239002FA03F200EB830126
:10445000D0F8003143EA0203C0F80031C1F880709F
:1044600002BFD0F804311A43C0F804216368D8F8B9
:1044700000005A1C0233626044F8235000F00EF82A
:104480000020C4E7C4060020380600200000000019
:1044900071190808840000207047704770470000B9
:1044A0003100080871000808990008089D000808F4
:1044B00000000000556E6B6E6F776E004E6F6E657C
:1044C00000576946690047534D00554D545300430A
:1044D000444D41004C544500494545453830323142
:1044E0003534004C54455F4341545F4D31004C54CA
:1044F000455F4341545F4E423100506F6F72004C34
:104500006F77004D656469756D0056657279204757
:104510006F6F6400477265617400302E373100257B
:104520007320533A25322E306625252C20513A250A
:10453000322E30662525200041542B4346554E3DF2
:1045400031360D0A00526573657474696E672069AF
:104550006E2070726F677265737300323525206448
:104560006F6E650035302520646F6E650037352528
:1045700020646F6E6500446F6E6500416C657274F7
:1045800073005369676E616C005265736574436FA5
:10459000756E740054656D70657261747572650036
:1045A00052656C656173650073746174654F664331
:1045B00068670070756D704D696E75746573005233
:1045C000657365742D4652414D0052657365742DB7
:1045D000436F756E747300486172642D5265736524
:1045E000740053656E642D4E6F7700566572626F6E
:1045F00073652D4D6F6465005365742D54696D6549
:104600007A6F6E6500426F6F73746572204E6F2013
:10461000466C6F772031202D2000426F6F737465D8
:1046200072204E6F20466C6F772032202D20005371
:10463000746F726167652054616E6B204C6F7720D8
:104640002D200050756D7020312043616C6C6564C5
:10465000202D200050756D7020322043616C6C65F8
:1046600064202D20004C6F737420506F77657200AA
:104670007B22616C65727456616C7565223A25699E
:104680002C202270756D704D696E73223A25692C4D
:10469000202262617474657279223A25692C202285
:1046A00074656D70223A25692C20227265736574D9
:1046B00073223A25697D004D6F6E69746F72696E61
:1046C000675F486F75726C790057616974696E67CE
:1046D00020666F7220526573706F6E73650053743D
:1046E0006174650049646C6500526573706F6E7328
:1046F000652054696D656F7574204572726F720024
:104700004552524F525F5354415445202D2052651B
:1047100073657474696E67004E6F20446174610044
:10472000556269646F747320486F6F6B00526573D4
:10473000706F6E73652052656365697665640053BA
:10474000657420566572626F7365204D6F646500F5
:104750003000436C656172656420566572626F73E8
:1047600065204D6F64650054696D65207A6F6E65D4
:10477000206F66667365742025690054696D650055
:10478000B4440808BC440808C1440808C6440808E2
:10479000CA440808CF440808D4440808D844080884
:1047A000E3440808EE440808000000000000000090
:1047B000AF1A0808A51A08089B1A08087702080803
:1047C0008F1A0808831A08084D2608085526080875
:1047D000771A08086F1A0808651A08085B1A08088B
:1047E0001F1A080800000000000000005D1B0808F8
:1047F0008F1B08085F1B08089D1B0808CD1B0808B5
:10480000F11B0808211C0808691C0808631B08081C
:10481000891B0808FCFFFFFF000000008F1C080830
:104820000000000000000000AF1C0808B51C0808CC
:10483000051D0808C31C0808B11C0808000000007A
:1048400000000000B5230808FF230808D723080844
:10485000B7230808DF230808E7230808EF23080820
:10486000F723080800000000000000006D2508087C
:104870005D2508085F2508086170700000000000D1
:10488000000000000D260808172608082126080841
:104890002B26080835260808412608084D26080852
:1048A000552608085D2608086926080871260808A4
:1048B0007B2608088526080825592D256D2D256499
:1048C0005425483A254D3A2553257A00617363747F
:1048D000696D650000000000000000000D2C080854
:1048E000772C0808532C0808FF260808232C0808F2
:1048F0003F2C0808312C08084D2C08080F2C0808FC
:10490000152C08080000000000000000FF2C08081B
:10491000652D08083D2D0808FF2608082F2D0808DA
:10492000012D0808112D08085F2D0808212D080801
:10493000F92C080800252E337320252E33732533D8
:104940006420252E32643A252E32643A252E3264B4
:104950002025640A0053756E4D6F6E54756557655A
:10496000645468754672695361744A616E46656243
:104970004D61724170724D61794A756E4A756C4134
:1049800075675365704F63744E6F7644656300209E
:1049900020202020202020202828282828202020EF
:1049A000202020202020202020202020202020889F
:1049B0001010101010101010101010101010100403
:1049C0000404040404040404041010101010101053
:1049D0004141414141410101010101010101010147
:1049E000010101010101010101011010101010105D
:1049F0004242424242420202020202020202020217
:104A00000202020202020202020210101010200032
:104A10000000000000000000000000000000000096
:104A20000000000000000000000000000000000086
:104A30000000000000000000000000000000000076
:104A40000000000000000000000000000000000066
:104A50000000000000000000000000000000000056
:104A60000000000000000000000000000000000046
:104A70000000000000000000000000000000000036
:104A80000000000000000000000000000000000026
:104A9000891308082D1B0808FD250808CD260808DD
:104AA000B9270808152A0808F92B0808F131080861
:104AB00000000000000000000000000000000000F6
:084AC0000000000000000000EE
:104AC8001E00000001000000E80300001A45080865
:104AD80030750000D0070000C8AF0000CC480808B7
:104AE800240000200000000000000000000000007A
:104AF80000000000000000000000000000000000AE
:104B0800000000000000000000000000000000009D
:104B1800000000000000000000000000000000008D
:104B2800000000000000000000000000000000007D
:104B3800000000000000000000000000000000006D
:084B480000000000C906002076
:104B5000FFFFFFFF00000102030405060708090A22
:104B60000B0C0D0E0F101112131415161718191A1D
:084B70001B1C1D1E1F20280064
:044B78007856341225
:0400000508080020C7
:00000001FF
