:020000040808EA
:1000000000000808A0680808000006000A000501B2
:080010000402FD0800000000DD
:04001800545F080821
:1000200008B5024B1B689B6D019308BD2C000608A8
:1000300009480A4908B5884205D0094A824202D0D7
:10004000121A05F0B2FD0748074A0021121A05F0FE
:10005000D4FD064808BD00BF0000002078670808EE
:100060000001002000010020B1070020B10700209E
:1000700070B504F08BFC0025054E064CA41BA408AB
:10008000A54200D170BD56F8043B98470135F7E70B
:100090003C6708085C67080801F0F0B908B501F092
:1000A00077F8BDE8084004F029BC01F03DBF01F03D
:1000B0003BBF01F041BF000000210C2008B5024AFF
:1000C00001F0E2FDFEE700BFA91908080078B0FAC8
:1000D00080F0400970470123037070470368C9B27C
:1000E0009B68184700224270704770B506460C4660
:1000F000154604F02FFD317802F0AAFC04F02AFD29
:10010000210AFFF7EBFF04F025FDE1B2FFF7E6FF60
:1001100004F020FD036829469B68984704F01AFD07
:10012000BDE8704002F0B7BC38B504460D4604F097
:1001300011FD217802F08CFC04F00CFD290AFFF778
:10014000CDFF04F007FDE9B2FFF7C8FF04F002FDA0
:1001500002F0A1FC04F0FEFC0122217802F075FC03
:1001600004F0F8FC03685B699847C0B238BDF8B585
:10017000044616460F4604F0EDFC7C2102F06CFCB0
:1001800004F0E8FC21784900FFF7A8FF04F0E2FC46
:10019000002102F07CFC04F0DDFC03227C2102F053
:1001A00054FC04F0D7FC03685B699847054604F0EB
:1001B000D1FC0368EDB25B699847044604F0CAFCC1
:1001C00003685B699847C4F30313240204F4706462
:1001D000C0B203EB051504443D803480F8BD13B56F
:1001E0000446017004F0B6FC02F000FC20460DF15C
:1001F000060201A9FFF7BBFFBDF804300A2B08D1A6
:10020000BDF80630B3F5A26F03D10120607002B0D3
:1002100010BD0020FBE77047006A0368DB681847E1
:1002200008B5044904F03CF818B104220120024B3F
:100230001A7008BDAC5F08088001002008B5074BA4
:100240001B784BB10121062004F02DFCBDE80840CD
:100250000021062004F027BC08BD00BF04000020D8
:1002600008B5054904F01CF820B10420012104F070
:100270001AFC012008BD00BFAC5F080837B5044672
:100280009DF818501D438DF800503C2302F076F97C
:10029000204603B030BD000010B50446094B036092
:1002A00002F0BEFF214603F0CBF904F087FA04F018
:1002B0006BFA2046044B40F8043B03F0AFF82046AD
:1002C00010BD00BF2C6308081463080810B504466D
:1002D000FFF7E2FF2046242104F092FC204610BDE7
:1002E000002340681A46194601F0E6BD0022406826
:1002F000114601F0D1BD0EB410B5002301682020D5
:100300008DB00FAA52F8044BCDE90403CDE90042A9
:1003100003921E2004AA01F0BFFC0DB0BDE81040FE
:1003200003B0704781B20148FFF7FEBE39010020DB
:100330000A4681B20148FFF7D8BE00BF390100204C
:1003400070B5074E84B221463046FFF7EDFE611CC2
:10035000054689B23046FFF7E7FE05EB002070BD89
:100360003901002070B50D46074E84B2CAB230463E
:1003700021460134FFF7B9FE3046C5F30722A1B28A
:10038000BDE87040FFF7B1BE3901002008B50A4949
:1003900003F086FF70B100210220FFF7C9FF0021A2
:1003A000064B14201960064B1970064B1960FFF7B5
:1003B000D9FF012008BD00BFAC5F0808780100200C
:1003C00038010020340100202DE9F0410F4E84B2A5
:1003D00021463046FFF7A8FE611C054689B230462B
:1003E000FFF7A2FEA11C804689B23046FFF79CFEB3
:1003F000E11C074689B23046FFF796FE05EB08255B
:1004000005EB074505EB0060BDE8F08139010020F0
:1004100070B50D460E4E84B2CAB230462146FFF783
:1004200064FE611C3046C5F3072289B2FFF75DFE0A
:10043000A11C3046C5F3074289B20334FFF755FECD
:1004400030462A0EA1B2BDE87040FFF74EBE00BF95
:100450003901002030B5174D99B004AC0FCD0FC451
:100460000FCD0FC495E8030084E8030012490EA8DD
:1004700001F000FE0EA801F050FE04460EA801F0A7
:100480006BFE05460EA801F091FE18AB03EB840449
:1004900004F024FDCDE90201284604F01FFDCDE95A
:1004A0000001064A112154F8503C054801F05CFD5A
:1004B00019B030BD3C6308089C010020D35F0808D8
:1004C000004002400000000008B50A2004F004FBD0
:1004D00004F0F2FC14A3D3E9002304F057FD04F068
:1004E000AFFF4FF0665105F009F904F0F7FC002268
:1004F0000F4B04F093FB00220E4B04F047FD04F079
:1005000057FF04F0D9FC00220B4B04F03FFD002202
:100510000A4B04F065FE0022094B04F081FB04F055
:1005200047FF084B186008BD6666666666660A4047
:100530000000E03F0000594000002240000014404D
:1005400000004040900100202DE9F0472F4D284643
:10055000FFF7CCFE044608B301F02EFA2C4D4FF005
:10056000000A286001F028FC01F02EFC002001F0B8
:1005700033FA47F22F5804464FF00009002001F0EB
:100580002BFA061B61EB0A07B94508BFB04532D309
:1005900001F022FC78BB01F00FFCEFE703460246B6
:1005A0000146686801F080FC2346224621466868BF
:1005B00001F05AFC204601F00FFA8246002001F0BB
:1005C0000BFA0023B0EB0A08124A61EB04094B4511
:1005D00008BF424506D32846FFF788FE10B901F050
:1005E000EBFBEBE70948FFF781FE0028B4D10024BC
:1005F0002046BDE8F08701F0EFFB04460028F6D066
:1006000001F0DAF9286001F0D7FBF1E79C01002046
:10061000DC0600208F5F010008B501F0DDFB80F0F3
:100620000100C0B208BD00002DE9F043002485B0F0
:1006300001A8CDE90144ADF80C4001F08BFE204645
:1006400001F0CAF942F20F7805464FF00009002088
:1006500001F0C2F9461B61EB0407B94508BFB0457C
:1006600005D3FFF7D9FF10B901F0A6FBEFE7094C5E
:10067000FFF7D2FF00220221606801F005FC40F67E
:10068000B83001F099FC2046FFF72AFE012005B0A2
:10069000BDE8F0839C010020002210B586B0182030
:1006A00002A9029201F010FBB8B9029C0CB12369B7
:1006B00023B900210A200E4A01F0E6FA0023ADF822
:1006C0000E300C23ADF80C3001AB04930423012150
:1006D00005932046236903AA9847002805DB019863
:1006E000013818BF012006B010BD0120FBE700BF94
:1006F000A919080808B501F05FF9054B1B68C01A75
:10070000044B1B68984234BF0020012008BD00BF85
:10071000400100200800002008B5FFF7EBFF10B9EA
:1007200001F04AFBF9E7BDE80840FFF7E3BF00002E
:1007300010B501F041F9074C2368C01A064B1B683D
:10074000984204D301F038F92060012010BD002048
:10075000FCE700BF1C01002014000020002330B57E
:1007600085B001A8CDE90133ADF80C3001F0F2FD00
:1007700001F022F943F69725044601F02DFB40B124
:1007800001F01AF9001BA84203D8642001F014FC00
:10079000F3E70848FFF7A4FD42F2107001F00CFCEB
:1007A000054B0A2201211B6801A803F0F5FD05B0E5
:1007B00030BD00BF9C0100201401002038B5046842
:1007C00005467CB16368013B63605BB923682046E2
:1007D0009B689847A368013BA3601BB92368204628
:1007E000DB689847284638BD2DE9FF410720FFF711
:1007F00099FD00238DF80030204B214A1B782149B8
:10080000054602A8FFF73AFD03A8FFF7D7FF082423
:100810001D4E1E4FDFF87C8000212046FFF788FD2B
:10082000B4F5005F13D103F0C9FF194903F02CFCA4
:100830000134B4F5004FEFD129460720FFF778FDCA
:1008400009210020FFF774FD04B0BDE8F081B4F584
:10085000804F03D103F0B2FF4146E7E7B4F5C04F44
:1008600003D103F0ABFF3946E0E747F6FF739C4244
:10087000DED103F0A3FF3146D8E700BF1801002006
:10088000EC5F0808BD6208081D60080814600808CD
:10089000026008080B60080808B5044903F000FD71
:1008A00010B1FFF7A1FF012008BD00BFAC5F080831
:1008B000002110B5A4B07C2205A8049105F09DF993
:1008C000204B1C78E20703D51F4904A805F0C2F9A4
:1008D000A30703D51D4904A805F0BCF9600703D59B
:1008E0001B4904A805F0B6F9210703D5194904A846
:1008F00005F0B0F9E20603D5174904A805F0AAF9F6
:10090000230603D5154904A805F0A4F9FFF704FF51
:10091000134B1B7863B100238DF80030114B02A8F4
:100920001B78114904AAFFF7A9FC03A8FFF746FFAB
:1009300004A90E48FFF7DFFC01F03EF80C4B1860ED
:1009400024B010BD2001002022600808376008088C
:100950004C60080860600808716008088260080838
:1009600094010020180100208D600808D8010020A3
:100970004001002000B5144BC7B01B684FF48071D4
:100980000393124B124A1B6806A80293114B1B6873
:100990000193114B1B680093104B1B7801F0E4FA94
:1009A00000238DF800300E4B06AA1B780D4904A8D1
:1009B000FFF764FC05A8FFF701FF01220A4B1A703C
:1009C00047B05DF804FB00BF7801002090010020D3
:1009D00094600808840100203401002020010020D8
:1009E00018010020DB600808380100201FB50C4604
:1009F00099B9FFF791FE204B8DF800401B781F4AF4
:100A00001F4902A8FFF73AFC03A8FFF7D7FE00F042
:100A1000D3FF1C4B186004B010BD084605F0BAF8AF
:100A2000C838012819D8FFF777FE174B1B7863B138
:100A300000238DF80030104B02A81B78134A14498C
:100A4000FFF71CFC03A8FFF7B9FE00F0B5FF00227A
:100A50000C4B18600F4B1A70DDE700238DF8003047
:100A6000054B02A822461B780549FFF707FC03A89F
:100A7000FFF7A4FECFE700BF18010020ED600808D3
:100A8000F560080840010020940100200261080878
:100A900004630808380100202DE9F04FA94CC7B0C5
:100AA0000720FFF73FFC94F800B0A74BA74EC3F810
:100AB00000B000233070A6482370FFF717FCA24651
:100AC00008B1FFF7C7FCFFF7FFFCA24801F026FFC3
:100AD00004F0DAFFA04BA14D18602B78A04C13F066
:100AE000010FBFF35B8F09D12846FFF7EFFA28B15A
:100AF00000F082FF20602846FFF7EDFA2368D3F864
:100B000050311F692B78BFF35B8FD90709D4934805
:100B1000FFF7DCFA28B100F06FFF20608F48FFF785
:100B2000DAFA2368B3F854313B4240F0B4802B78B2
:100B3000BFF35B8FDA0709D48848FFF7C7FA28B1FB
:100B400000F05AFF20608548FFF7C5FA2368D3F804
:100B5000BC321F692B78BFF35B8FDB0709D47F485A
:100B6000FFF7B4FA28B100F047FF20607B48FFF799
:100B7000B2FA2368B3F8C0323B4202BF9AF80030A1
:100B800043F001038AF800302B78BFF35B8FD8075E
:100B900009D47248FFF79AFA28B100F02DFF2060BF
:100BA0006E48FFF798FA2368D3F8D8321F692B787C
:100BB000BFF35B8FD90709D46848FFF787FA28B1DC
:100BC00000F01AFF20606548FFF785FA2368B3F844
:100BD000DC323B4202BF9AF8003043F002038AF84D
:100BE00000302B78BFF35B8FDA0709D45B48FFF73F
:100BF0006DFA28B100F000FF20605848FFF76BFA4B
:100C00002368D3F8F4321F692B78BFF35B8FDB07BF
:100C100009D45248FFF75AFA28B100F0EDFE2060DF
:100C20004E48FFF758FA2368B3F8F8323B4202BF48
:100C30009AF8003043F004038AF800302B78BFF3B1
:100C40005B8FD80709D44548FFF740FA28B100F078
:100C5000D3FE20604148FFF73EFA2368D3F81033F3
:100C60001F692B78BFF35B8FD90709D43B48FFF787
:100C70002DFA28B100F0C0FE20603848FFF72BFAAB
:100C80002368B3F814333B4202BF9AF8003043F0B4
:100C900008038AF800302B78BFF35B8FDA0709D49A
:100CA0002E48FFF713FA28B100F0A6FE20602B486B
:100CB000FFF711FA2368D3F888311F692B78BFF347
:100CC0005B8FDB0709D42548FFF700FA28B100F055
:100CD00093FE20602148FFF7FEF923683178B3F8CE
:100CE0008C313B4240F0AE809AF80030022943F04C
:100CF00010038AF8003010D003F03DFC0246014694
:100D0000C3171848C0E900230E20FFF781FB317894
:100D1000072041F00201FFF70BFB134B1B78002B60
:100D20007ED02B78BFF35B8FD8071FD40B48FFF71B
:100D3000CDF9D8B100F060FE20600848FFF7CBF98C
:100D400014E000BF20010020240100203001002019
:100D50009C010020280100208401002000010020C7
:100D60000401002070010020940100202368D3F8C2
:100D700010331E692B78BFF35B8FD90709D447481E
:100D8000FFF7A4F928B100F037FE20604348FFF7D1
:100D9000A2F92368B3F814333342414B414E18BFD4
:100DA0001E462B78BFF35B8FDA0709D43B48FFF769
:100DB0008DF928B100F020FE20603848FFF78BF94C
:100DC0002368D3F888311F692B78BFF35B8FDB076B
:100DD00009D43248FFF77AF928B100F00DFE2060FF
:100DE0002E48FFF778F923682D4AB3F88C314FF479
:100DF00080713B422B4B18BF134606A82A4A00932A
:100E0000334601F0B1F800238DF80030274B04A8D9
:100E10001B78274906AAFFF731FA05A8FFF7CEFC91
:100E2000FFF73AFC28B19AF8003063F07F038AF8A4
:100E300000309AF80000B0EB0B0018BF012047B05B
:100E4000BDE8F08F8E077FF568AF81F002010720C3
:100E5000FFF76EFA03F08FFB164BC117D3E900239F
:100E600004F09CFE144E80463068894604F024F855
:100E70000022CDE90201114B4046494604F0B0F989
:100E800002460B46DDE9020103F0CAFE04F090FAC7
:100E9000014630601420FFF765FA3EE700010020AC
:100EA00014610808FA610808186108081801002090
:100EB0003B610808700100203401002000004E4012
:100EC00030B5234985B0054603F0EAF9044618B366
:100ED0000124204B07201C70FFF724FA1E4B07202B
:100EE000197841F008011970FFF722FAFFF714FC96
:100EF00000238DF80030194B194A1B78194902A8B4
:100F0000FFF7BCF903A8FFF759FC00F055FD164B9D
:100F10001860012005B030BD2846144903F0C0F91F
:100F20000028F7D00B4B07201C70FFF7FBF90A4B8A
:100F30000720197801F0F7011970FFF7F9F9FFF7A9
:100F4000EBFB064B8DF800401B78094AD6E700BF43
:100F5000AC5F080894010020300100201801002037
:100F600040610808636108084001002051610808D9
:100F70005361080830B5254985B0054603F090F95E
:100F8000044620B3224A234C137843F01003137015
:100F90002360FFF7C1FB00238DF800301E4B1F4A72
:100FA0001F491B7802A8FFF769F903A8FFF706FCA1
:100FB00022681C491C48FFF79EF900F0FDFC1B4B02
:100FC0000422186001201A4B1A7005B030BD284663
:100FD000184903F065F90028F7D00D4A0D4D137834
:100FE00003F0EF0313702B60FFF796FB0A4B8DF8AD
:100FF0000040114A0A491B7802A8FFF73FF903A8ED
:10100000FFF7DCFB2A680D49D4E700BFAC5F080896
:101010002001002024010020180100206861080838
:10102000636108087E610808D801002040010020A3
:10103000800100205161080896610808AA6108082B
:10104000F0B5CBB00A22006803A904F011FFC5B2C5
:1010500005F10C03DBB2182B44D844B2204604F04F
:10106000F9FA03F015FA29460420FFF761F903F0B5
:1010700082FA00261C4FC1172346C7E900011B4A0C
:101080004FF480711A4D0AA800F06EFFFFF744FB81
:101090008DF8006017492B780AAA06A8FFF7EEF82A
:1010A00007A8FFF78BFB00F087FC134C2060FFF7CD
:1010B00033FBD7E9002306A803F008FA8DF8006097
:1010C0002B78069A0B4904A8FFF7D8F805A8FFF774
:1010D00075FB06A803F045F800F06EFC20600120C7
:1010E0004BB0F0BD0020FBE788010020C561080877
:1010F00018010020D9610808400100200E2330B5F6
:10110000194C1A4922781A4D03FB021228788FB025
:1011100003FB001300922821164A04A800F024FFC4
:1011200000F05AFE88B1144B1B7873B1FFF7F4FA44
:1011300000238DF80030114B02A81B78104904AA37
:10114000FFF79CF803A8FFF739FB04A90D48FFF748
:10115000D2F80D4B0D491A780A48FFF7CCF82378DE
:101160002B700FB030BD00BF8001002018000020A0
:101170006C010020DE6108089401002018010020A5
:10118000EC610808D801002020010020FD6108085A
:1011900030B5924C85B02378013B042B5ED8DFE854
:1011A00013F0EE00050039007400B4008C4B1B787E
:1011B000022B01D0FFF7A2FFFFF7BAFA10B900F037
:1011C000FBFDF9E7FFF7B4FAFFF766FC08B104236B
:1011D000237003F0E1F9834B1B78984211D004236C
:1011E000237003F0D9F9054658B97F4B01461860C2
:1011F0001420FFF7B7F800F0EFFD10B1284600F01B
:101200000BFE7A4B1A687A4B1B689A4226DC032342
:10121000237023E0724B1B78032B01D0FFF76EFF86
:1012200000F0DAFD08B1FFF7FFF90024714B214609
:1012300007201C7003F037FC21461D2003F033FC0F
:10124000FEF7FCFF03F0B4F93C226B4BC0F13C000D
:10125000424301211B6802A803F09EF800F0BCFD88
:1012600088B900F0A9FB654C2368C01A47F23053D7
:10127000984208D900F0A8FD00F09EFB604920606C
:101280006048FFF738F805B030BD554B1B78042B8C
:1012900001D0FFF733FFFEF7D1FF00235A4D2B702B
:1012A00000F09AFD40B9FFF74FF928B900F084FB30
:1012B000564B18600123ABE7554B1B780BB1FFF77A
:1012C000F7FAFFF757FB00F077FB524B186003F07B
:1012D00063F9444B1870FFF71FFA4F4B1B7863B14B
:1012E00000238DF800304D4B02A81B784C4A4D4925
:1012F000FEF7C4FF03A8FFF761FA00F05DFB4A4B5D
:10130000186001232B70052382E7354B1B78052BD2
:1013100001D0FFF7F3FE454B1D78BDB902232370C2
:10132000FFF7FAF93C4B1B785BB13C4B8DF8005052
:101330001B783F4A02A83B49FEF7A0FF03A8FFF72E
:101340003DFA00F039FB384B186087E700F034FBBA
:10135000304B1B68C01A374B1B689842FFF47EAFB6
:1013600000F02AFB294B186001232370FFF7D4F902
:1013700000238DF80030294B2F4A1B78DAE7184BF1
:101380001B78012B01D0FFF7B9FE00F015FB1F4BB6
:101390001B68C01A294B1B689842FFF45FAF0024FA
:1013A0001E4B8DF800401B78254A1E4902A8FEF707
:1013B00065FF03A8FFF702FA4FF4FA6000F0FCFDA6
:1013C000204B1B68032B02DC02F0E3FF46E72146BB
:1013D0000220FEF7ADFFFFF7C1F93FE780010020D3
:1013E0006C01002031010020340100208401002024
:1013F0000000002044010020140100203C010020D6
:1014000056620808D8010020040000207C0100205A
:1014100020010020980100209401002018010020E4
:101420000D6208080463080840010020380100200C
:1014300022620808880000202762080810000020A7
:101440003E6208087801002070B51426D0E90053E8
:10145000044606FB0356AE4204D0284602F081FE45
:101460001435F8E7206800F067FD204670BD0000E5
:101470000246014800F05DBF0723080830B500248C
:10148000A9B04FF47A7000F097FD0021192003F005
:10149000F9FA00211A2003F0F5FA00211B2003F0CD
:1014A000F1FA00211C2003F0EDFA00210E2003F0D8
:1014B000E9FA0021112003F0E5FA0021052003F0EC
:1014C000E1FA0121072003F0DDFA01211D2003F0DC
:1014D000D9FA01211D2003F0E6FA0121062003F0CC
:1014E000D1FAFEF7ABFE0121042003F0CBFA04A8E9
:1014F00000F07AFC00237D2208A904A802F0E2FE95
:10150000234622467049CDE9004408A800F07CFC3F
:10151000234602226D496E4800F03EFC2346042219
:101520006C496D4800F038FC234602226B496C4838
:1015300000F032FC234602226A496B4800F02CFC82
:101540006A49234604220968694800F025FC2346BD
:1015500002226849684800F01FFC234602226749BE
:10156000674800F019FC674A6749684800F0E1FEE7
:1015700067496848FFF77CFF674A6849634800F09D
:10158000D8FE674A6749614800F0D3FE664967485C
:10159000FFF76EFF66496748FFF76AFF66496748CD
:1015A000FFF766FF50216648FEF719FE654D0028DB
:1015B00076D100F001FA644B186001232B700220F1
:1015C000FEF7B0FE0022454C1146206002A80292B0
:1015D00000F0DAF9029B142B06D1216802200131B8
:1015E0002160C9B2FEF7A4FE2368052B05DD0421A6
:1015F0000220FEF79DFEFFF7B1F80420FEF792FEF1
:1016000000F10B03DBB2162B5CD840B204F022F8D9
:1016100002F03EFF0720FEF785FE4C4C4C4B20703D
:10162000C0F3C00018701420FEF78AFE334B186018
:1016300023789B0706D50E20FEF7C6FE0022454BF9
:1016400018605A60444801F069F904F01DFA294B0A
:101650001860424B1B68984201DDFEF775FF0024BD
:101660004FF0FF3301223E490094112001F02AFA85
:101670002B784EF66021012B1CBF02232B70082310
:10168000ADF8083001230393002302AA1846ADF8F1
:101690000A4000F0D1FB04A802F063FD29B030BD80
:1016A0002046FEF73FFE092889D0FFF79DF8204627
:1016B000FEF738FE09287FF47CAF21460720FEF7AD
:1016C00037FE7CE72748A3E7ED090808240100203E
:1016D0008D600808004002407A6208087801002006
:1016E00081620808900100208C6208080C0000202C
:1016F0009862080884010020A062080834010020D4
:10170000AB620808B76208089908080807230808A8
:101710008D030808C2620808CF6208086102080841
:10172000DA62080821020808C10E0808E362080806
:1017300041100808F0620808750F0808FD620808E3
:1017400039010020800100207C01002030010020B0
:1017500094010020700100202801002000000020DA
:101760003D0208080000A0C08842F8B504460D46B6
:10177000164616D9904215D2A2F11406751AA1F197
:1017800014072C44B7421CD02CB13146204602F03D
:1017900062FD337C2374304602F0E3FC143E143CBB
:1017A000F0E70ED0B5420CD02CB12946204602F00D
:1017B00052FD2B7C2374284602F0D3FC14351434DC
:1017C000F0E7F8BD00232DE9F041C0E90033836064
:1017D0004F6804469F420E4624DD4FF0140808FB74
:1017E00007F000F0A1FB0546E0B1D4E9001208FBC8
:1017F0000212FFF7B9FF206800F09EFB2560A7608A
:10180000D6E9007308FB0378B84509D03946284665
:1018100002F03BFD3B7C143505F8043C1437F3E73C
:10182000736863602046BDE8F08100002DE9F04157
:10183000002401262D4B8CB01C602D4B2D481E70B2
:10184000FEF750FCCDE90044029402F0B7FF2A4DA8
:101850000746A846694603A8FFF7B4FF03A906A8F0
:10186000FFF7B0FF254B06A948F8043B09A8FFF78E
:10187000A9FF09AA1E21404602F03AF809A8FFF77D
:10188000E3FD06A8FFF7E0FD1D4B03A82B602F62C8
:10189000FFF7DAFD1B4B2B6002F090FF4FF416515F
:1018A00002F06EFF01F0BCFC294601F0B4FF68466F
:1018B000FFF7CAFD144B154A1C609C809C719A600E
:1018C000022000F013FA2146304600F027FA314694
:1018D000042000F051F821460D4800F0D1FF2146C8
:1018E0000C4802F094FB0CB0BDE8F081140100201C
:1018F0001801002039010020480100201463080865
:10190000D06408082C630808080100200000FFFFCD
:10191000280100206D01002008B5024B1B68DB6B1D
:10192000019308BD2000060808B5024B1B685B6CDC
:10193000019308BD2000060808B5024B1B685B6CCC
:10194000019308BDD001040808B5024B1B689B6CCD
:10195000019308BDD001040808B5024B1B68DB6C7D
:10196000019308BDD001040808B5024B1B685B6DEC
:10197000019308BDD001040808B5024B1B685B6EDB
:10198000019308BDB801040808B5024B1B68DB6E63
:10199000019308BDB801040808B5024B1B685B68D9
:1019A000019308BD9C01040808B5024B1B68DB6865
:1019B000019308BD9C01040808B5024B1B685B69D4
:1019C000019308BD9C01040808B5024B1B689B6D80
:1019D000019308BD9C01040808B5024B1B68DB6D30
:1019E000019308BD9C01040808B5024B1B685B6E9F
:1019F000019308BD9C01040808B5024B1B681B68D5
:101A0000019308BDB001040808B5024B1B685B6870
:101A1000019308BDB001040808B5024B1B689B6820
:101A2000019308BDB001040808B5024B1B68DB68D0
:101A3000019308BDB001040808B5024B1B681B697F
:101A4000019308BDB001040808B5024B1B689B69EF
:101A5000019308BDB001040808B5024B1B68DB699F
:101A6000019308BDB001040808B5024B1B681B6B4D
:101A7000019308BDB001040808B5024B1B68DB6880
:101A8000019308BDAC01040808B5024B1B689B69B3
:101A9000019308BDAC01040808B5024B1B68DB6963
:101AA000019308BDAC01040808B5024B1B681B6A12
:101AB000019308BDAC01040808B5024B1B685B6AC2
:101AC000019308BDAC01040808B5024B1B689B6A72
:101AD000019308BDAC01040808B5024B1B68DB6A22
:101AE000019308BDAC01040808B5024B1B681B6BD1
:101AF000019308BDAC01040808B5024B1B685B6B81
:101B0000019308BDAC01040808B5024B1B681B6CAF
:101B1000019308BDAC01040808B5024B1B689B6C1F
:101B2000019308BDAC01040808B5024B1B68DB6CCF
:101B3000019308BDAC01040808B5024B1B681B6D7E
:101B4000019308BDAC01040808B5024B1B68DB69B2
:101B5000019308BDB401040808B5024B1B681B6A59
:101B6000019308BDB401040808B5024B1B689B69CA
:101B7000019308BDC401040808B5024B1B681B6A29
:101B8000019308BDC401040808B5024B1B685B6AD9
:101B9000019308BDC401040808B5024B1B689B6A89
:101BA000019308BDC401040808B5024B1B68DB6A39
:101BB000019308BDC401040808B5024B1B681B6BE8
:101BC000019308BDC401040808B5024B1B685B6B98
:101BD000019308BDC401040808B5024B1B689B6B48
:101BE000019308BDC401040808B5024B1B681B6CB7
:101BF000019308BDC401040808B5024B1B68DB6CE7
:101C0000019308BDC401040808B5024B1B681B689A
:101C1000019308BD1C00060808B5024B1B685B68F1
:101C2000019308BD1C00060808B5024B1B689B68A1
:101C3000019308BD1C00060808B5024B1B681B6910
:101C4000019308BD1C00060808B5024B1B685B69C0
:101C5000019308BD1C00060808B5024B1B689B6970
:101C6000019308BD1C00060808B5024B1B68DB6920
:101C7000019308BD1C00060808B5024B1B681B6ACF
:101C8000019308BD1C00060808B5024B1B685B6B7E
:101C9000019308BDA001020808B5024B1B685B6DEB
:101CA000019308BDA001020808B5024B1B68DB6E5A
:101CB000019308BDA001020808B5024B1B681B6F09
:101CC000019308BDA001020808B5034B1B68D3F8B7
:101CD0009830019308BD0000A001020808B5024B2E
:101CE0001B681B68019308BDA401040808B5024BDA
:101CF0001B685B68019308BDA401040808B5024B8A
:101D00001B685B69019308BDA401040808B5024B78
:101D10001B689B69019308BDA401040808B5024B28
:101D20001B68DB6A019308BDA401040808B5024BD7
:101D30001B68DB6C019308BDA401040808B5024BC5
:101D40001B685B6D019308BDA401040808B5024B34
:101D50001B689B6D019308BDA401040808B5034BE3
:101D60001B68D3F89030019308BD0000A40104085B
:101D700008B5034B1B68D3F89C30019308BD0000E5
:101D8000A401040808B5034B1B68D3F8B8300193CD
:101D900008BD0000A401040808B5024B1B681B68BD
:101DA000019308BDCC01040808B5024B1B685B68B1
:101DB000019308BDCC01040808B5024B1B689B6861
:101DC000019308BDCC01040808B5024B1B68DB6811
:101DD000019308BDCC01040808B5024B1B685B6980
:101DE000019308BDCC01040808B5024B1B68DB69F0
:101DF000019308BDCC01040808B5024B1B681B6A9F
:101E0000019308BDCC01040808B5024B1B685B6A4E
:101E1000019308BDCC01040808B5024B1B68DB6ABE
:101E2000019308BDCC01040808B5024B1B681B6B6D
:101E3000019308BDCC01040808B5024B1B689B6BDD
:101E4000019308BDCC01040808B5024B1B68DB6B8D
:101E5000019308BDCC01040808B5024B1B685B6CFC
:101E6000019308BDCC01040808B5024B1B685B68F0
:101E7000019308BDC801040808B5024B1B689B68A4
:101E8000019308BDC801040808B5024B1B68DB6854
:101E9000019308BDC801040808B5024B1B681B6903
:101EA000019308BDC801040808B5024B1B685B69B3
:101EB000019308BDC801040808B5024B1B689B6963
:101EC000019308BDC801040808B5024B1B68DB6913
:101ED000019308BDC801040808B5024B1B681B6AC2
:101EE000019308BDC801040808B5024B1B681B6BB1
:101EF000019308BDC801040808B5024B1B685B6B61
:101F0000019308BDC801040808B5024B1B681B6C8F
:101F1000019308BDC801040808B5024B1B685B6C3F
:101F2000019308BDC801040808B5024B1B681B6873
:101F3000019308BDA001040808B5024B1B685B684B
:101F4000019308BDA001040808B5024B1B689B68FB
:101F5000019308BDA001040808B5024B1B681B696A
:101F6000019308BDA001040808B5024B1B68DB699A
:101F7000019308BDA001040808B5024B1B685B6A09
:101F8000019308BDA001040808B5024B1B68DB6A79
:101F9000019308BDA001040808B5024B1B681B6B28
:101FA000019308BDA001040808B5024B1B685B6CD7
:101FB000019308BDA00104080021FFF79FBE10B5E2
:101FC000836804460BB902F021FEC3689847A368F2
:101FD0001BB103222146204698472046BDE8104009
:101FE000102102F00DBEF0B5002685B00446104663
:101FF0000F461546039603F080FE7B6881B200967B
:10200000284603AAFFF788FC30B13146204600F08D
:10201000B5FD204605B0F0BD204603A900F0A6FDA1
:10202000F7E7002240681146FFF756BF00224068DC
:102030001146FFF761BF00224068FFF755BF00223D
:10204000406881F00101FFF73FBF002340681A4656
:102050001946FFF729BF002240681146FFF70CBF61
:10206000002202214068FFF70FBF002340681A4694
:10207000FFF7FABEF0B5002518260F46194B324679
:10208000036030332946C0E9025589B043600446F5
:10209000103003F0B2FD2A4629467868FFF7FCFEAF
:1020A00018B9A060204609B0F0BD2946324602A802
:1020B000CDE9005503F0A1FD684602A9ADF808601E
:1020C000FFF732FC10B10123A360EBE7009B019AFC
:1020D000A360E2600BB90223A360204602A900F0CE
:1020E000B8F8DFE7A863080810B52824074B224694
:1020F0001846002103F081FD4FF0FF3242600422B8
:10210000034B04805A60034A1A6010BDA4010020EA
:102110009C0100206C6308087047007D70470346EF
:10212000007D70B19A69B2F1004F07D0022807D044
:10213000186AB0F1004018BF0120704700207047B6
:102140000120704703681B6A184710B50446282110
:1021500002F056FD204610BD08B5037D5BB1C06995
:10216000002808DB03F076FA044903F07BFB0449FE
:1021700003F0C4FA08BD0348FCE700BF00FF7F4737
:102180000000C842000080BF08B5037D4BB18069E4
:10219000B0F1004F05D003F05DFA034903F062FB94
:1021A00008BD0020FCE700BF0000C84208B5037D61
:1021B0005BB1406A002808DB03F04CFA044903F0E5
:1021C00051FB044903F09AFA08BD0348FCE700BF3D
:1021D00000FF7F470000C842000080BF08B5037DB4
:1021E0004BB1006AB0F1004F05D003F033FA034958
:1021F00003F038FB08BD0020FCE700BF0000C84228
:1022000070B50C1E06460ADA2D2101F02EFF054698
:1022100061420A22304601F041FF284470BD214648
:102220000025F6E770B50C46054681682046FFF7A5
:10223000E7FF2C210646204601F017FFE968064417
:102240002046FFF7DDFF304470BDA0F10400FFF72A
:10225000E9BF30B50D4600F110040FCD0FC495E86D
:10226000030084E80300012030BD70470020704760
:1022700010B50446102102F0C3FC204610BD08B57D
:10228000FFF7F6FF08BD10B58368044613B10322BB
:1022900001469847204610BD002230B54FF69C7489
:1022A000026084808D888C800C68858004600A6060
:1022B00030BD10B504460068FFF73EFE204610BD55
:1022C00038B5C468F4B12378022B03D104F10C00B3
:1022D000FFF7EFFF656835B12846FFF7D4FF1021FF
:1022E000284602F08DFCA56835B12846FFF7CBFFE4
:1022F0001021284602F084FC2046BDE83840142115
:1023000002F07EBC38BD10B588B00446684601F0C6
:1023100072FF694604A801F0B8FF04A8A04704466C
:1023200004A801F01EFF684601F01BFF204608B01C
:1023300010BD1FB500231024CDE9020101926946AA
:102340001A461846ADF80230ADF80040FFF72CFDF4
:1023500004B010BD1FB50C230021ADF80430036894
:10236000ADF80D108DF80630037A8DF80F108DF84A
:10237000073043680293437A01A88DF80C30FFF7C9
:102380006BFD05B05DF804FB0B68036013B15A6880
:1023900001325A60704773B50E46044656F8043B46
:1023A0000D4601A831460093FFF7EEFF009B019A0E
:1023B00023600023626001A801930093FEF7FEF9F9
:1023C0003046FEF7FBF92846082102F019FC2046AA
:1023D00002B070BD13B56C460B46024603C884E8D4
:1023E000030093E8030082E8030094E8030083E815
:1023F000030002B010BD826810B50AB902F006FCF5
:10240000C368BDE81040184708B5006800F1100126
:10241000FFF7F1FF08BD826810B50AB902F0F6FBBC
:10242000C368BDE81040184708B5006800F1100106
:10243000FFF7F1FF08BD000038B500230446036034
:1024400010200D46FDF731FE28B10123C0E901330C
:10245000024BC56003602060204638BDE463080875
:1024600038B5002383608B6804460D462BB10222E9
:102470009847EB68E360AB68A360204638BD000076
:10248000F0B589B004686846FFF706FF4FF0020315
:10249000D4E84F2F002A03D1C4E8413F0029F7D1E7
:1024A00025D104F10C0569462846FFF7F5FE012306
:1024B000BFF35B8F63700020BFF35B8F04F10803F1
:1024C00053E8006F43E80002002AF9D1BFF35B8FA5
:1024D0006EB1FFF72BFC78B129463046FFF78BFF32
:1024E0003046FFF7D0FE1021304602F089FB6846E7
:1024F000FFF7DFFE09B0F0BD314602A8FFF7B0FFDD
:10250000E068B4F9105008B103F0DCFB069010202D
:10251000ADF81C50FDF7C9FD0546E8B100278760FE
:102520001820FDF7C2FD044688B10146876002A865
:10253000FFF750FF049BA268A360059B0492E2682A
:1025400006A9E36004F110000592FFF7A5FE084B11
:102550002C60EB60074BAB6006A8FFF7AAFE02A851
:10256000FFF791FE002229460348FFF7E7FBB7E794
:1025700009240808A1260808BF1F08082DE9F0470C
:102580008AB005460C46174698469DF84890FFF7D6
:1025900023FC07AE824638BB4FF62E73059005A983
:1025A0003046ADF81830FFF777FE1420FDF77DFDBB
:1025B000044648B1022303700123C0E901AA437015
:1025C00031460C30FFF768FE2846214640F8044BA0
:1025D000FFF732FF3046FFF76CFE05A8FFF769FEF4
:1025E00028460AB0BDE8F0870C234FF0000A1420FB
:1025F000CDE908AA0793FDF758FD014628B1C0E9C7
:1026000001AA80F800A080F801A004A80391FFF7B8
:1026100013FF224B08200893FDF747FD824628B19F
:10262000039B04A940F8043BFFF7AEFE424639463F
:10263000204600965FFA89F3CDF824A0FFF7DCFB73
:10264000B8B9039B5B7803F0FF0293B94FF69C7314
:1026500005A903A80592ADF81830FFF711FF05A8EA
:10266000FFF727FE05A80999FFF795FE06A8FEF7D4
:10267000A5F8039B04A906A80593FFF785FE059B13
:10268000069A2B6000236A6006A806930593FEF75E
:1026900095F804A8FEF792F8A2E700BF652708089E
:1026A000022AF8B5054607D0032A18D0012A01D11D
:1026B0000B6803600020F8BD18200E68FDF7F5FCDC
:1026C000044650B13146FFF7CBFE3069B6F91470BD
:1026D00008B103F0F7FA2061A7822C60EAE70468EA
:1026E000002CE7D004F11000FFF7E3FD2046FFF7D0
:1026F000CAFD1821204602F083FADBE738B5002333
:1027000083608B6804460D462BB102229847EB6824
:10271000E360AB68A360204638BD022A70B504466A
:1027200007D0032A12D0012A01D10B6803600020D0
:1027300070BD14200E68FDF7B8FC054620B1314687
:10274000FFF7DCFF337C2B742560F0E70468002C76
:10275000EDD02046FFF797FD1421204602F050FAF5
:10276000E5E70000F0B5044689B00D4601A8114622
:10277000FFF711FEA4B124B21DB1284603F0A2FA5E
:10278000054601A803A90395ADF81040FFF778FEB0
:1027900003A8FFF78EFD02A8FEF710F809B0F0BD00
:1027A0000123019DD5E84F2F002A03D1C5E8413F01
:1027B0000029F7D1EFD12B73BFF35B8F6B70BFF3A1
:1027C0005B8F2B1D53E8006F43E80042002AF9D1CC
:1027D000BFF35B8F002EDED02046FFF7A7FA074637
:1027E00060B1304605F10C01FFF715FE3046FFF7EA
:1027F0004AFD1021304602F003FACCE7314603A827
:10280000FFF77CFF2B7B10208DF81C30FDF74DFC73
:102810000546D0B187601420FDF747FC044678B127
:102820000146876003A8FFF7D5FD059BA268A3605A
:10283000069B0592E268E3609DF81C3006922374C3
:10284000064B2C60EB60064BAB6003A8FFF71BFD4B
:10285000002229460348FFF771FAC7E72924080830
:102860001B270808BF1F0808006800F017B910B53B
:102870000446016002710AB1FFF7F6FF204610BD61
:1028800038B504460D4602F089F92A46014620462D
:10289000FFF7EDFF204638BD006800F008B92DE9CC
:1028A000FF4104460D4617461E46FFF7DDFF36235F
:1028B0008DF8003000234FF0010801930A23694688
:1028C000206803938DF8088000F0C9F82068294635
:1028D00003689B6898474146206800F0D8F8054691
:1028E00040B16FF09F052046FFF7D6FF284604B0A1
:1028F000BDE8F081022369462068019300F07CF86E
:102900000228EED1206803685B6998473870206818
:1029100003685B6998473070E5E70000002313B552
:1029200004218DF806308DF807300DF106020DF107
:102930000703FFF7B4FFA0B99DF8070002F0BCFA47
:102940000022094B02F022FB02F07AFD04469DF8BA
:10295000060002F07FFE0146204602F0C7FD02B0ED
:1029600010BD0248FBE700BF0000703F000080BFC1
:102970007047F8B5064615460C468F18BC4206D07F
:10298000336830469B6814F8011B9847F6E72846E1
:10299000F8BD0022007CFFF787B80021007CFFF71C
:1029A0008BB80021007CFFF78FB80021007CFFF777
:1029B00093B80021007CFFF797B810B504461421A6
:1029C00002F01EF9204610BD10B54FF47A7304468C
:1029D00008460021C4E90113034B1146236020740B
:1029E000FFF792F8204610BD006408080023007C21
:1029F0001A461946FFF740B87FB500221423CDE9E7
:102A00000122ADF804300B78007C8DF808304B685B
:102A10000393CB6804930B7A01A90593FFF78CF815
:102A200007B05DF804FB1FB5003B8DF800104FF0B8
:102A3000640118BF01230391694601928DF80830A3
:102A4000FFF7DAFF05B05DF804FB0123FFF7EBBFEA
:102A50000022007CFFF718B8C9B2FFF7F9BF7FB5B5
:102A600000220B46CDE901221422ADF804205A6859
:102A700009780392DA681B7A0492007C01AA8DF827
:102A800008100593FFF700F807B05DF804FB00227B
:102A9000007CFFF701B80121FFF7F9BF08B500215D
:102AA000007CFFF739F8B0FA80F0400908BD08B59E
:102AB0000021007CFFF738F8B0FA80F0400908BD2B
:102AC000004700002DE9FF4100241D460F469046B7
:102AD0000646FEF7C1FF0423A5428DF80C30A8BFBF
:102AE0009DF82830ADF80D408DF80F40A4BF03AC21
:102AF0008DF80E303A464346304606490094A8BF4A
:102B00008DF80D50FEF7A0FFB0FA80F0400904B038
:102B1000BDE8F081C12A0808704710B504460821B5
:102B200002F06EF8204610BDF8B50E46002400F104
:102B30000807051D17F8011D0A22304601F0AEFAFC
:102B4000AF42044401D12046F8BD002CF2D02E2122
:102B5000304601F08AFA0444ECE70000024A0260C1
:102B600000224260704700BF28640808024A0260E1
:102B70000A684260704700BF28640808014AC0E93B
:102B8000002170472864080810B59DF8084044EA01
:102B9000032444EA024444EA0164446010BD000096
:102BA00037B5044D05609DF818500095FFF7ECFF10
:102BB00003B030BD28640808012200F1100313F8A7
:102BC000101C1846012908D153F8041C02EB4102DD
:102BD000013A03F11003F2D17047022904BF53F800
:102BE000041C5218F4E70EB42DE9F04187B000AF91
:102BF00007F1340555F8048B04462B464246102154
:102C000007F108007D60FFF7B7F90F281BD900F125
:102C1000080323F007036E46ADEB030D4246411C4B
:102C20002B4668467D60FFF7A7F9021E04DD236886
:102C3000694620469B689847B5461C37BD46BDE8A7
:102C4000F04103B070470028F7D0236802469B6824
:102C5000204607F108019847EFE710B504460368DE
:102C60009B689847A368013BA3602BB92368204663
:102C7000BDE81040DB68184710BD07B503688DF844
:102C8000071001229B680DF10701984703B05DF81A
:102C900004FB38B50B68044603604D6843689D42E9
:102CA0000CD015B16B6801336B60606828B1436864
:102CB000013B43600BB9FFF7D0FF6560204638BD8C
:102CC0000B461146002210B50446C0E9002283607D
:102CD0000BB9204610BDFFF7DCFFFAE7034680681A
:102CE00020B30278032A1AD8DFE802F00417021B87
:102CF000052070471B685A684368D05C2D2812D0A5
:102D0000A0F13003092B0ED974280ED066280CD000
:102D1000A0F16E03584258417047062070470020CA
:102D2000704704207047032070470220704710B599
:102D30000446FFF7D3FF02280ED0C31EDBB2012BDF
:102D400014D82268A36850685B680A22BDE8104066
:102D50000021184403F08CB82268A36852685B68AD
:102D6000D05CA0F174035842584110BD0020FCE72C
:102D70000B461146002210B50446C0E900220D485A
:102D8000C4E90202A3B11A78032A06D082B90A68FC
:102D900050685A68825C6E2A07D00A685868526880
:102DA0009B6802441B1AA260E3602046FFF771FF94
:102DB000204610BD9A64080838B500250B46044625
:102DC0001146C0E90055C0E90255C0E904554BB1B0
:102DD0001A78012A06D103F11002DB688260436190
:102DE000FFF757FF204638BD10B54369044663B16D
:102DF0008068013BE0601030A0602061636113B126
:102E0000FFF7DAFEA060012000E0184610BD10B503
:102E10007D210446FFF731FF01232046237110BDB9
:102E200008B50379012B02D0022B04D008BD2C2158
:102E3000FFF723FFFAE73A21FAE710B50446FFF758
:102E4000EFFF20467B21FFF718FF00232046237168
:102E500010BD000038B504460D46FFF7E1FF2368BA
:102E600020462A46DB680349984701232046237100
:102E700038BD00BF3464080838B504460D46FFF776
:102E8000CFFF236820462A46DB6803499847012381
:102E90002046237138BD00BF376408082DE9F04192
:102EA0000D46174622210446FFF7E7FE2946DFF8C4
:102EB00098802F44BD422A4638D015F8016B222E47
:102EC00003D05C2E01D01F2EF4D82368521A20465E
:102ED0009B6898475C212046FFF7CFFE0D2E0AD84D
:102EE000072E1CD9A6F10803052B18D8DFE803F03C
:102EF0000D0F11171315222E01D05C2E0FD1314664
:102F00002046FFF7BAFE2946D4E76221F8E774218C
:102F1000F6E76E21F4E76621F2E77221F0E7236815
:102F2000324641462046DB689847ECE78D4204D0A4
:102F3000236820469B686A1A984722212046FFF79B
:102F40009CFEBDE8F08100BF3A64080870B50446F5
:102F50000D461646FFF764FF204632462946FFF726
:102F60009DFF02232046237170BD70B504460D46B7
:102F70001646FFF755FF204632462946FFF78EFFDB
:102F800001232046237170BD80680368DB68184701
:102F90007047084611B10B685B6818477047704767
:102FA00070477047704738B504460D4600682E21BB
:102FB00002F06CFE23680246C01A286020B1137824
:102FC00003B101322068226038BD10B504460C21DF
:102FD00001F016FE204610BD10B50446042101F094
:102FE0000FFE204610BD10B50446042101F008FE76
:102FF000204610BD08B502F053FEB0FA80F040093B
:1030000008BD704710B50C4601F0D8FB844205D1CD
:1030100001F0D4FBBDE8104001F0B6BB01F008FCA4
:10302000844202D101F004FCF4E701F033FB844256
:1030300005D101F02FFBBDE8104001F028BB2CB1F9
:1030400023682046BDE810405B68184710BD38B5BE
:10305000054608460C4602F050FE21460246284628
:10306000BDE83840FFF781BF70B5044608460D46FD
:1030700002F043FE2368024629462046BDE8704020
:10308000DB68184707B503688DF807100122DB6875
:103090000DF10701984703B05DF804FB0EB403B5CA
:1030A00003AB53F8042B0021006A019301F013F8DD
:1030B00002B05DF804EB03B0704700002DE9F74F54
:1030C0004FF01408D0E9009517464C4608FB05F56B
:1030D0000093AB10174D5D43002D23DD6E1008FBF0
:1030E00006F004EB000ABAF804B03A465F4528BF80
:1030F0005A462058019102F008FE0123019978B93F
:103100005F4503D1009A13703546E5E78CBF012077
:1031100000200028F8D0AE1B0AF11404013EF3E7AA
:10312000C00FF6E7A4EB09040248A410604303B003
:10313000BDE8F08FCDCCCCCC7FB50369067E019184
:1031400003B3F9B1002500F10C04039503A901A80C
:10315000FFF729FF0146A8B10DF10B032046039AA2
:103160008DF80B50FFF7AAFF9DF80B3053B11423D5
:10317000246803FB0044B4F906300834002BA8BFD0
:10318000DEB2E3E7304604B070BD000010B5094C74
:103190002378BFF35B8FDB0709D42046FCF796FF4B
:1031A00028B12046FCF797FF034802F0EDFC0348E6
:1031B00010BD00BFD00100209F2F08088C00002008
:1031C00010B5094C2378BFF35B8FDB0709D4204689
:1031D000FCF77CFF28B12046FCF77DFF034802F096
:1031E000D3FC034810BD00BFD40100200330080801
:1031F0009000002038B500250446C0E90055C0E91C
:1032000004558560856140F8245FFEF795FBFFF764
:10321000BDFFE061FFF7D4FF25732062204638BD73
:1032200010B50A4C2378BFF35B8FDB070CD4204624
:10323000FCF74CFF40B10648FFF7DCFF2046FCF7E7
:103240004AFF044802F0A0FC014810BDCC01002058
:10325000DC0100201D3708080023024A0249034808
:10326000FEF72ABDA935080835350808B534080821
:1032700000231A4619461846FEF71EBD37B5044608
:103280000D6951F8043B01A80093FFF77DF86A46E9
:1032900029462046FFF714FD01A8FDF78FFA2046C6
:1032A00003B030BD37B504468D6851F8043B01A822
:1032B0000093FFF769F86A4629462046FFF77CFD30
:1032C00001A8FDF77BFA204603B030BD37B50446B0
:1032D000CD6851F8043B01A80093FFF755F86A4602
:1032E00029462046FFF744FD01A8FDF767FA20466E
:1032F00003B030BD70B58AB00D46014604A8FFF793
:10330000D1FF144E04A8FFF76FFDE8B1684604A989
:10331000FFF7DCFF31460298FFF76CFE044610B160
:103320002C1E18BF012401A8FDF748FA002CE9D093
:10333000684604A9FFF7A2FF6846FFF7F8FC28607B
:1033400001A8FDF73BFADDE705A8FDF737FA0AB05B
:1033500070BD00BF4064080837B50C4619492046C7
:10336000154602F09DFC48B901F028FA4FF41651B9
:1033700001F006FA01F022FA03B030BD20461249EE
:1033800002F08EFC40B901F053FA4FF4165101F0EF
:10339000F7F901F04DFAEFE720460C4902F080FC06
:1033A00070B94FF4165301A928460193FFF7A2FF05
:1033B00001F070F9019901F067F901F06BF9DBE7B1
:1033C0000020D9E7456408084C6408084F640808E1
:1033D00070B51426D0E90053044606FB0356AE42EE
:1033E00005D005F10800FFF7F3FF1435F7E7206873
:1033F000FEF7A2FD204670BD70B50446D0E900532B
:1034000005EB0316AE4204D0284600F0AAFE1035A4
:10341000F8E72068FEF790FD204670BD10B5044621
:103420000C30FFF7D5FF2046FFF7E6FF204610BD22
:1034300010B50446034B40F8043BFFF7EFFF20466E
:1034400010BD00BF1463080810B50446FFF7F0FF75
:103450002046242101F0D4FB204610BD10B50446BF
:10346000024B0360FFF7E4FF204610BDE864080844
:1034700010B50446FFF7F2FF2046242101F0C0FBFF
:10348000204610BD0022C0E90022826010B50C6801
:103490000A6004604C684A6044608C688A6084609A
:1034A00010BD10B5044603681868FEF75DFA2046A3
:1034B00010BD00002DE9F04F87B003931C4B8046F0
:1034C0005B688946C3F3080316466BB9FFF7A8FE8D
:1034D000044600F12403406A0593FEF73DFA237B7E
:1034E0002BB105A8FFF7DDFF07B0BDE8F08F012382
:1034F0005FFA89F92373D4E9005305EB830AAA45DF
:1035000012D055F8047B3146381DFFF715FE814572
:10351000F5D3039A3B680092D3F808B04A46334685
:1035200041463846D847EAE700232373D9E700BF6E
:1035300000ED00E02DE9F74F9B461A4B80465B6893
:103540008946C3F3080316466BB9FFF769FE0446C4
:1035500000F12403406A0193FEF7FEF9237B2BB1AF
:1035600001A8FFF79EFF03B0BDE8F08F0123F6B27C
:103570002373D4E9005305EB830A55450ED055F863
:10358000047B5946381DFFF7D7FD8642F5D33B68CB
:103590004A4641463846DB689847EEE700232373E6
:1035A000DEE700BF00ED00E02DE9F341164B0546D4
:1035B0005B680F46C3F308031BBBFFF731FE0446ED
:1035C00000F12403406A0193FEF7C6F9D4E90063D1
:1035D000462406EB8308B04509D101A8FFF761FF37
:1035E000A542B4BF0020012002B0BDE8F08156F82A
:1035F000040B39460430FFF79FFD8442A8BF044600
:10360000E9E70020F0E700BF00ED00E00B4670B5F1
:10361000044605C800EB8202824207D001461D68BD
:1036200051F8046BAE4203D00846F5E7002070BDA8
:10363000521A02F0C8FA63680120013B6360F6E7A2
:103640001FB5044600F12403406A01910393FEF77D
:1036500083F9204601A9FFF7D9FF18B163680BB9B8
:10366000FFF706FE03A8FFF71CFF04B010BD1823E8
:1036700070B50446D0E9045603FB0656AE4215D099
:10368000204605F11001FFF7C1FF63680BB9FFF792
:10369000EFFDE06929690368DB689847696919B13A
:1036A000206A0368DB6898471835E7E71826D4E9ED
:1036B000045306FB0356AE4204D0284600F051FDE9
:1036C0001835F8E70023636170BD73B50446FFF752
:1036D000CFFD04F12403606A0193FEF73DF9204613
:1036E000FFF7C5FF01A8FFF7DCFE606A08B1FEF72F
:1036F0002BF9D4E90453182606FB0356AE4204D036
:10370000284600F02EFD1835F8E72069FEF714FC76
:103710002068FEF711FC204602B070BD0148FFF79B
:10372000D4BF00BFDC0100208842F8B506460C4635
:10373000154627D9904226D20026A2F114056C1A0C
:10374000A1F114070444AF423DD0A4B12B6823601B
:10375000AB88A380B5F90630C4E902662661E38030
:10376000AB68A360AE60E368EA68E260EB6023697F
:103770002A6922612B6105F10800FFF729FE143D3B
:10378000143CE0E71FD00027AC421CD0A6B1236850
:103790003360A388B380B4F90630C6E90277376195
:1037A000F380A368B360A760F368E268F260E36047
:1037B000336922693261236104F10800FFF708FED2
:1037C00014341436E0E7F8BDF8B5D0E901539D4252
:1037D00004460E4617460DDB0135002D006804DD5A
:1037E000A900FEF7B1FB18B9F8BDFEF7A5FB002054
:1037F0002060A5602568626805EB86019200A2EB57
:103800008602081D02F0DFF945F826706368012082
:1038100001336360E8E737B5044600F12403406AEA
:103820000D460193FEF798F8D4E9003103EB8100CF
:1038300083421A460AD012680433AA42F8D101A87A
:10384000FFF72FFE0025284603B030BD2A4620464C
:10385000FFF7BAFF05460028F1D06368012B01D1BC
:10386000FFF7FAFC01A8FFF71CFEECE78842F8B569
:1038700004460D46164614D9904213D2A2F1100602
:10388000751AA1F110072C44B74218D01CB131466B
:10389000204600F0E0FC304600F063FC103E103C97
:1038A000F2E70CD0B5420AD01CB12946204600F000
:1038B000D2FC284600F055FC10351034F2E7F8BD74
:1038C00070B50E1E054611DD3001FEF72DFB0446D6
:1038D00058B1D5E9001201EB0212FFF7C7FF2868C3
:1038E000FEF72AFB01202C60AE6070BD0024F6E7D5
:1038F0002DE9F04F91460023462297B00391D9F865
:10390000041004469942C0E90033C0E90233C0E91B
:103910000433CDE90A3302760C9323DCD9E900574E
:10392000142303FB0757AF423BD029460DA800F0F4
:1039300092FC0DA911A80B9E00F08DFCDDE90B1384
:1039400099421BDA0A9B0B9A03EB0616314603EBEE
:10395000021206F11000FFF789FFEEB90B9B01334D
:103960000B9311E00AA8FFF7ABFF0028D6D10AA8F5
:10397000FFF742FD204617B0BDE8F08F01310AA8DD
:10398000FFF79EFF0028DDD111A800F0EAFB0DA88B
:1039900000F0E7FB1435C6E7304611A900F05BFCE8
:1039A000DCE700264FF0140A3746CDE90D660F9686
:1039B000DDE90A239E4280F297803301D3580893B1
:1039C0000BB90136F4E70AFB06F3099702930DAD34
:1039D00009A908A8FFF7E7FA83460028F1D00146B5
:1039E000099A28460DF11F038DF81F70FFF766FB3B
:1039F0009DF81F800190B8F1000F66D1BDF824300A
:103A0000CDE91388ADF848304FF6FF73CDF844B0D8
:103A1000ADF84A30CDF85480D5E9013293421ADB33
:103A200003F1010BBBF1000F4ADD0AFB0BF0FEF7BF
:103A30007BFA0490002845D0D5E900120AFB021257
:103A4000FFF772FE049B28680493FEF775FA049B47
:103A5000C5F808B02B60019BD5F800B00AFB03F352
:103A60006A680BEB030101F114000AFB02B2049136
:103A70000593FFF759FE0499A9B1119A059B4BF8DC
:103A80000320BDF848308B80BDF94A30C1E9027788
:103A90000F61CB80139B8B60149B1397CB60159B9E
:103AA00014970B6115976B6801336B6013A8FFF7D0
:103AB0008FFCB8F1000F08D00DA8FFF789FC56E77E
:103AC0004346C0E74FF00108F0E7019B2D680AFB71
:103AD0000355089B1B782BB9D9F80030029A134480
:103AE0001B7CEB80083573E72168226062686360A5
:103AF000A3680B920C9A0C93E368A2600D9A0D9345
:103B00002369E2600E9A0E93636922610F9A0F9304
:103B1000039B0A9162612376CEE700007FB50546DC
:103B20000E460446084B114645F8043B01A8FDF734
:103B300049FE314601AA2846FFF7DAFE01A8FDF743
:103B400083FC204604B070BD14630808F0B50F462E
:103B500087B03846254916461D460C9C02F0A0F851
:103B600000BBE4B129466846FFF78CFC24202049BD
:103B700001F048F8054670B1694603A8FDF722FE3A
:103B8000314603AA2846FFF7C9FF03A8FDF75CFCEE
:103B9000184B2C622B606846FDF756FC2C462046DD
:103BA00007B0F0BD3846144902F07AF8E0B9002CAD
:103BB000F5D029466846FFF765FC24200C4901F042
:103BC00021F805460028E6D0694603A8FDF7FAFD6E
:103BD000314603AA2846FFF7A1FF03A8FDF734FCEE
:103BE000064B2C622B60D6E70024D8E75764080800
:103BF000E0650808E86408085B640808D064080801
:103C0000014B024A1A607047D80100206C64080812
:103C10002DE9F047089DD0F8209004460E4617463F
:103C2000984600F0CBFD81454DD02B79190704D57E
:103C300020466A695449FFF731FAB8F1000F0DD0F8
:103C40005B212046FFF71EFA41462046FFF70CFA9B
:103C5000236802222046DB684C4998472B79DA0713
:103C600024D5D5F808802F21404602F073F808B11A
:103C700000F1010841462046FFF7F6F92B799B0732
:103C800008D53A212046FFF7FDF92046EA68404969
:103C9000FFF704FA2A79236812F0040F20464FF048
:103CA0000202DB6814BF3B493B4998472B79580710
:103CB0001DD529690B461A4613F8010B60B120285F
:103CC00008D11946F7E7354800F067F90028ACD06D
:103CD000BDE8F0872828EED12368521A2046DB6819
:103CE0009847236804222046DB682D499847002125
:103CF0003846FDF7D9FF01462046FFF7B5F923689E
:103D000002222046DB68244998471EB131462046EE
:103D1000FFF7AAF92B7913F0300F2CD02368214933
:103D2000DB680222204698472B79D9060AD52368FA
:103D3000072220461C49DB6898472046AA691B4990
:103D4000FFF7ACF92B799A0611D5DB0605D5236868
:103D500002222046DB680F49984723682046144911
:103D60000A22DB6898472046E969FFF77DF95D2163
:103D70002046FFF787F923682046BDE8F047022276
:103D8000DB680C49184700BF7064080877640808AE
:103D9000346408087A6408087F6408080402002074
:103DA0007D64080882640808856408080A620808B7
:103DB0008D640808986408082DE9F04385B0D0F8B0
:103DC000209005460F4690461E460C9C00F0F6FCDF
:103DD000814505D1494800F0E0F8002840F08A808C
:103DE0004FF000092B6A464A01A8019203938DF80F
:103DF0000890FFF722F849464046FDF755FF8046F8
:103E00004049012201A8FFF7A1F84146FFF71FF939
:103E10003FB13D49012201A8FFF798F83946FFF765
:103E200016F93EB13949012201A8FFF78FF8314652
:103E3000FFF70DF92379DF070ED5A6682F2130464D
:103E400001F088FF00B1461C3149012201A8FFF7AB
:103E50007DF83146FFF7FBF823799E0707D52D49FA
:103E6000022201A8FFF772F8E168FEF7F3FF237959
:103E7000580714D5266933461F4613F8012B2AB17B
:103E8000202A01D11E46F7E7282AF5D1022222492D
:103E900001A8FFF75BF83146BA1BFFF766F82379F4
:103EA000190707D51D49012201A8FFF74FF86169DD
:103EB000FEF7E2FF2379DA0608D5042218490DEB54
:103EC0000200FFF743F8A169FEF7C4FF23799B06C0
:103ED00007D51449062201A8FFF738F8E169FFF772
:103EE000B6F801A8FEF793FF286A022203680E497C
:103EF000DB68984705B0BDE8F08300BF04020020EE
:103F0000B86408084A640808BC5F08089B6408088D
:103F1000166108089D640808A0640808CC5F0808BA
:103F2000A3640808A8640808986408080023406887
:103F30001A46FDF799BF002202214068FDF7A4BF91
:103F4000002240681146FDF797BF002240681146E5
:103F5000FDF7A2BF002340681A461946FDF7A4BF2B
:103F6000002340681A461946FDF7A6BF00214068A5
:103F7000FDF7CABF00214068FDF7CEBF00224068B0
:103F800081F00101FDF7A0BF00224068FDF7ACBF42
:103F9000002240681146FDF7AFBF0022406811467D
:103FA000FDF79ABF70B51546002686B0044604A8F2
:103FB000FEF7D4FD2846039601F09FFE0A4B0096BB
:103FC00081B25B68284603AAFDF7A6FC30B13146F2
:103FD0002046FEF7D3FD204606B070BD204603A95B
:103FE000FEF7C4FDF7E700BF9C010020024B034A27
:103FF0001A6000225A6070470402002030650808E9
:1040000008B500F0CBFDBDE80840FEF747BD10B590
:104010000446017009B1FFF7F3FF204610BDF8B563
:1040200006460D4600248F18BD420CD0336830463A
:104030009B6815F8011B9847031E01DB1C44F3E73E
:10404000002C08BF1C462046F8BD70B505460C463E
:10405000084649B101F051FE2B6802462146284628
:10406000BDE87040DB68184770BD03689B6818475F
:1040700038B50D210546FFF7F8FF0A21044628460A
:10408000FFF7F3FF204438BD38B50546FFF7DDFFE5
:1040900004462846FFF7ECFF204438BD0023012AE0
:1040A00098BF0A2230B58BB00C468DF8243009A990
:1040B0002546B4FBF2F404FB1253DBB2092B94BF88
:1040C00030333733DBB2AA4201F8013DF0D9FFF7B4
:1040D000BCFF0BB030BD2DE9F04186B000AF054606
:1040E0000E46381D142114463B60FDF745FF13288A
:1040F0000ED82846391DFFF7A8FF04461EB12846F2
:10410000FFF7B6FF044420461837BD46BDE8F081EE
:1041100000F1080323F00703E846ADEB030D224648
:10412000411C3B686846FDF727FF69462846FFF7B4
:104130008CFF0446C546E1E70022014B9A607047B8
:104140000C02002070B5002604460D4640F8086FAA
:10415000FDF7F2FB28462570FDF7F6FC2046666069
:1041600070BD10B504460068FDF7E6FE204610BDA0
:1041700010B50446006808B1FDF7DEFE0023C4E96F
:104180000133236010BD38B504460D460068013187
:10419000FDF7DAFE10B1C4E90005012038BD10B505
:1041A0000368044623B143688B4201D3012010BD4C
:1041B0002046FFF7E8FF0028F9D0A368002BF5D1CF
:1041C00022681370F2E770B50E4611460446154694
:1041D000FFF7E5FF20B92046FFF7CAFF204670BD74
:1041E0002A4631462068A56001F0DFFC00212268E4
:1041F000A368D154F2E738B5002304460D46C0E960
:1042000000338360037339B1084601F076FD294617
:1042100002462046FFF7D7FF204638BD38B5054691
:1042200000680C4668B16A688B689A4207D30968CF
:1042300001F040FDA368AB600023A36038BDFDF72B
:104240007BFE23682B6063686B60A368AB60002310
:10425000C4E90033F1E7002310B50446C0E9003398
:1042600083600373FFF7DAFF204610BD884210B564
:104270000B46044604D0096821B19A68FFF7A3FFF2
:10428000204610BDFFF774FFFAE7002310B504467F
:10429000C0E9003383600373FFF7E8FF204610BDD9
:1042A00008B582683AB921B10878B0FA80F04009BF
:1042B00000E0012008BD006809B90078F5E701F0C9
:1042C000EFFCF2E758B50E462AB121B18468A3424B
:1042D00002D300230B7058BDE41A013A944228BF60
:1042E0001446016822461944304601F020FD00239F
:1042F0003355F0E710B50446006818B1FDF71CFE11
:104300000023236010BD38B5B1F904300D46838019
:104310000B4653F8062F0446C0F806209B884381BD
:10432000FFF7E8FF2B6813B1236000232B602046C2
:1043300038BDB1F9043010B50A6833B932B951F853
:10434000063F03608B88838010BD22B19488012CC6
:1043500003D0042C06D0042205E092898C710B81D5
:104360004A81ECE702220B814FF6FF738A714B8181
:10437000E5E707B50B4600210246009101208C219C
:10438000FDF700FD03B05DF804FB01460020FFF7D8
:10439000F0BF0020FFF7F9BF30B5044685B00846EE
:1043A00011461A460023FDF7B1FC00230193ADF836
:1043B00008308DF80A304FF6FF73094D01A9ADF8AA
:1043C0000C002846ADF80E30FFF79DFF01A8FFF75F
:1043D00091FF20462946FFF7ACFF204605B030BDCF
:1043E0001C02002002220020044B1A60044B054AE4
:1043F0001860988098719A60FDF778BC28020020B8
:104400001C0200200000FFFF2DE9F041154ADFF8F3
:104410006080D2E90032C01842EB0101124A8CB030
:10442000D2E90032C61841EB0207D8E90023BB42AB
:1044300008BFB24213D003A96846CDE90067FBF775
:10444000EFFD089B094D03F26C7303AC08930FCC8E
:104450000FC50FCC0FC5C8E9006723682B600CB0EF
:10446000BDE8F081600200205802002030020020E8
:104470006802002008B50020FDF7D6FC28B1FDF742
:10448000ABFC80F00100C0B208BD0120FCE70000D9
:1044900010B50A49044601F0CFFA68B92046084928
:1044A00001F0E8FA40B90749204601F027F901F088
:1044B00011FB054BC3E9000110BD00BF000040C166
:1044C00000006041000061456002002030B50446F4
:1044D000184893B0D0E90010521840EB0303164877
:1044E0000025D0E90010521840EB0303CDE900236A
:1044F000242200210DEB020001F07FFB09A9684690
:10450000FBF78EFD1622294603A8029501F075FBE4
:1045100002A909A801F012FB02A801F0EEFB12AB00
:10452000184400F8415C02A92046FFF764FE2046CB
:1045300013B030BD600200205802002010B50020EA
:10454000FDF742FA0446A0B9FDF7C8FB012810D1D7
:104550002046FDF7FBFB60B9FFF78CFF10B9FDF7B4
:104560002BFCF9E7FFF786FFBDE810400020FDF7C0
:104570002BBA204610BD1FB5FFF7E0FF1022002127
:10458000684601F03AFB00216846FDF72DFA0098D5
:1045900005B05DF804FB000008B5FFF7ECFFC1179C
:1045A000FFF732FF014B986808BD00BF30020020C2
:1045B00008B5FFF7E0FFC117FFF726FF014B58686A
:1045C00008BD00BF30020020024B1A68024B1A607F
:1045D000704700BF940000202C02002070474174F7
:1045E0007047704708B5007CFDF7FEFA20EAE070DE
:1045F00008BD08B5007CFDF7CFFA20EAE07008BDE1
:1046000008B5007CFDF7D8FA40EAE07008BD08B5AF
:10461000007CFDF7C9FA40EAE07008BD007CFDF7B8
:10462000D3BA70B5467C04460D462EB12946207C8F
:10463000BDE87040FDF7A8BA007CFDF7D5FA002868
:10464000F4DC304670BD10B50446142100F0D8FAF1
:10465000204610BD4FF0000C10B504460846114628
:104660004FF47A72C4E901C2044A20742260012224
:1046700062741A46FDF778FA204610BD886508086E
:104680000023007CFDF7B8BA0022FFF7F9BF007CD9
:10469000FDF772BA38B50C4D2978BFF35B8F11F076
:1046A00001040FD12846FBF711FD58B12146074BF5
:1046B000074A0848FFF7CEFF2846FBF70CFD0648DF
:1046C00001F062FA034838BD70020020F8020020B1
:1046D000740200207C030020E34508084174704701
:1046E0007047704708B50021007CFDF7B5FA40EA35
:1046F000E07008BD08B50121007CFDF7ADFA40EA85
:10470000E07008BD08B5007CFDF79EFA20EAE07075
:1047100008BD08B5007CFDF78FFA20EAE07008BDFF
:1047200038B50446007C0D46FDF78EFA002801DC02
:10473000607C28B12946207CFDF796FA20EAE070DB
:1047400038BD007CFDF798BA10B50446142100F07E
:1047500057FA204610BD704710B54FF47A730446DF
:1047600008460021C4E90113044B2074236001238F
:1047700011466374FDF748FA204610BDB865080875
:104780000022007CFDF748BA007CFDF74DBA00001E
:1047900010B504461422002101F02FFA054B2046E3
:1047A0006360054BE36040F2011323818123238280
:1047B00010BD00BFC0030020C104002030B50E4D65
:1047C00087B001A8FFF7E4FF2978BFF35B8F11F0F2
:1047D00001040ED12846FBF779FC50B1214601AA0D
:1047E0000648FFF7B9FF2846FBF775FC044801F0BF
:1047F000CBF9024807B030BD900300209803002099
:10480000E146080810B504461422002101F0F5F92C
:10481000054B20466360054BE36040F201132381A2
:104820008123238210BD00BF4205002043060020E3
:1048300010B50E4C86B001A8FFF7E4FF2378BFF354
:104840005B8FDB070ED42046FBF740FC50B1012103
:1048500001AA0748FFF780FF2046FBF73CFC05480C
:1048600001F092F9024806B010BD00BF9403002089
:10487000AC03002057470808014B1860704700BF81
:104880009800002008B5174B43B1FFF797FF036866
:104890001B699847002801DDAFF30080124B43B13C
:1048A000FFF7F8FE03681B699847002801DDAFF3A6
:1048B00000800E4B0BB1AFF300800D4B0BB1AFF38B
:1048C00000800C4B0BB1AFF300800B4B43B1FFF7F3
:1048D000AFFF03681B699847002801DDAFF3008034
:1048E00008BD00BF00000000000000000000000044
:1048F00000000000000000000000000008B5FFF705
:10490000C1FFFDF759F8014B186008BDDC06002017
:104910000548064A08B5121A054901F046F9054B43
:10492000054A1A6008BD00BF00400240184002401E
:1049300060670808144002401E1C279A002307B530
:104940001A466FF077010093FDF712FA03B05DF895
:1049500004FB000007B543880A2B08D0502B0BD16D
:10496000094B1B684BB103B05DF804EB1847FFF728
:10497000E5FF03B05DF804FB00231A466FF07701F2
:104980000093FDF7F5F9F4E7C8060020002110B503
:104990001148FDF709FB114B1A68114B9A420CBFE5
:1049A000012200220F4B1A7001D0FFF7B1FFFCF774
:1049B000F3FF044601F02AF90B4B13B12046AFF385
:1049C000008000210848FDF73FFABDE810400021B3
:1049D0000648FDF7C3B900BF7948080814400240F3
:1049E0001E1C279AC4060020000000005549080834
:1049F000024B986808B1FCF7A7BF7047D0060020AB
:104A00002E2870B5044601D9002070BDA0F10D0319
:104A1000022B0BD9012824D800F09CF80021007C3F
:104A2000FDF76AF880F00100C0B2EEE7124E31786F
:104A3000BFF35B8F11F001050DD13046FBF746FB4C
:104A400048B129460D48FFF77DFB3046FBF743FB95
:104A50000B4801F099F8094B1878FDF77DF800280C
:104A6000D2D1123C012C05D8FFF714FE007CFDF7D3
:104A7000B3F8D7E70120C8E7CC060020D006002015
:104A8000F14908082E2838B504460D460AD8FF29F2
:104A900008D0FFF7B5FF28B129462046BDE83840C9
:104AA000FCF7BABF38BD38B504460D46FCF7BCFF6D
:104AB000FF2810D0062804D84D2323FA00F0C3079E
:104AC00009D42046FFF79CFF28B129462046BDE8BF
:104AD0003840FCF7B1BF38BD10B5044609289CBF6B
:104AE0000A34A4B22046FFF78BFF50B103212046C1
:104AF000FCF78AFF032804D12046BDE81040FCF7EC
:104B0000B3BF002010BD7047002370B5202543803F
:104B10001423084E0446038031468560056128460B
:104B200000F072F831466060284600F06DF8E060F1
:104B3000204670BDE0650808704710B50446FFF7D1
:104B4000E3FF204610BD10B50446FFF7DDFF204609
:104B500010BD000030B50E4D87B02978BFF35B8FD4
:104B600011F0010411D12846FBF7B0FA68B101A891
:104B7000FFF7E3FF214601AA0648FDF725FF284677
:104B8000FBF7A9FA044800F0FFFF024807B030BD68
:104B9000E0060020E8060020074B080810B50E4C80
:104BA00086B02378BFF35B8FDB0711D42046FBF779
:104BB0008DFA68B101A8FFF7C6FF022101AA0748D4
:104BC000FDF702FF2046FBF786FA054800F0DCFF00
:104BD000024806B010BD00BFE4060020FC0600201D
:104BE000394B0808002307B51A46194600930348B5
:104BF000FDF7D6FF03B05DF804FB00BF10070020EF
:104C0000FBF757BAFBF751BAFBF751BA08B5FDF7F6
:104C1000BBF9000081F0004102E000BF83F00043D7
:104C200030B54FEA41044FEA430594EA050F08BF47
:104C300090EA020F1FBF54EA000C55EA020C7FEA0B
:104C4000645C7FEA655C00F0E2804FEA5454D4EB88
:104C50005555B8BF6D420CDD2C4480EA020281EA52
:104C6000030382EA000083EA010180EA020281EA8A
:104C70000303362D88BF30BD11F0004F4FEA0131DC
:104C80004FF4801C4CEA113102D0404261EB4101EB
:104C900013F0004F4FEA03334CEA133302D0524271
:104CA00063EB430394EA050F00F0A780A4F101042D
:104CB000D5F1200E0DDB02FA0EFC22FA05F2801867
:104CC00041F1000103FA0EF2801843FA05F359414D
:104CD0000EE0A5F120050EF1200E012A03FA0EFCCC
:104CE00028BF4CF0020C43FA05F3C01851EBE371F6
:104CF00001F0004507D54FF0000EDCF1000C7EEB13
:104D000000006EEB0101B1F5801F1BD3B1F5001F50
:104D10000CD349085FEA30004FEA3C0C04F101046F
:104D20004FEA445212F5800F80F09A80BCF1004F98
:104D300008BF5FEA500C50F1000041EB045141EA1A
:104D4000050130BD5FEA4C0C404141EB0101013CE3
:104D500028BFB1F5801FE9D291F0000F04BF0146D2
:104D60000020B1FA81F308BF2033A3F10B03B3F1A4
:104D700020020CDA0C3208DD02F1140CC2F10C0234
:104D800001FA0CF021FA02F10CE002F11402D8BF92
:104D9000C2F1200C01FA02F120FA0CFCDCBF41EA5E
:104DA0000C019040E41AA2BF01EB0451294330BD2D
:104DB0006FEA04041F3C1CDA0C340EDC04F114040A
:104DC000C4F1200220FA04F001FA02F340EA0300E1
:104DD00021FA04F345EA030130BDC4F10C04C4F127
:104DE000200220FA02F001FA04F340EA0300294607
:104DF00030BD21FA04F0294630BD94F0000F83F451
:104E0000801306BF81F480110134013D4EE77FEA33
:104E1000645C18BF7FEA655C29D094EA050F08BF7F
:104E200090EA020F05D054EA000C04BF1946104660
:104E300030BD91EA030F1EBF0021002030BD5FEAA4
:104E4000545C05D14000494128BF41F0004130BDCC
:104E500014F580043CBF01F5801130BD01F0004520
:104E600045F0FE4141F470014FF0000030BD7FEA93
:104E7000645C1ABF194610467FEA655C1CBF0B468E
:104E8000024650EA013406BF52EA033591EA030FA5
:104E900041F4002130BD00BF90F0000F04BF00219D
:104EA000704730B54FF4806404F132044FF00005D0
:104EB0004FF0000150E700BF90F0000F04BF002149
:104EC000704730B54FF4806404F1320410F00045AF
:104ED00048BF40424FF000013EE700BF42004FEAAA
:104EE000E2014FEA31014FEA02701FBF12F07F4327
:104EF00093F07F4F81F06051704732F07F4208BFDE
:104F0000704793F07F4F04BF41F40021704730B5E4
:104F10004FF4607401F0004521F000411CE700BF30
:104F200050EA010208BF704730B54FF000050AE0B3
:104F300050EA010208BF704730B511F0004502D5B4
:104F4000404261EB41014FF4806404F132045FEAB6
:104F5000915C3FF4D8AE4FF003025FEADC0C18BF5F
:104F600003325FEADC0C18BF033202EBDC02C2F151
:104F7000200300FA03FC20FA02F001FA03FE40EAE3
:104F80000E0021FA02F11444BDE600BF70B54FF0E7
:104F9000FF0C4CF4E06C1CEA11541DBF1CEA1355C5
:104FA00094EA0C0F95EA0C0F00F0DEF82C4481EA2D
:104FB000030621EA4C5123EA4C5350EA013518BF4D
:104FC00052EA033541F4801143F4801338D0A0FB3A
:104FD00002CE4FF00005E1FB02E506F00042E0FBE7
:104FE00003E54FF00006E1FB03569CF0000F18BFED
:104FF0004EF0010EA4F1FF04B6F5007F64F5407495
:1050000004D25FEA4E0E6D4146EB060642EAC62127
:1050100041EA55514FEAC52040EA5E504FEACE2E94
:10502000B4F1FD0C88BFBCF5E06F1ED8BEF1004F97
:1050300008BF5FEA500E50F1000041EB045170BD13
:1050400006F0004646EA010140EA020081EA030157
:10505000B4EB5C04C2BFD4EB0C0541EA045170BD53
:1050600041F480114FF0000E013C00F3AB8014F1CD
:10507000360FDEBF002001F0004170BDC4F1000416
:10508000203C35DA0C341BDC04F11404C4F1200597
:1050900000FA05F320FA04F001FA05F240EA0200F2
:1050A00001F0004221F0004110EBD37021FA04F628
:1050B00042EB06015EEA430E08BF20EAD37070BDE2
:1050C000C4F10C04C4F1200500FA04F320FA05F041
:1050D00001FA04F240EA020001F0004110EBD37043
:1050E00041F100015EEA430E08BF20EAD37070BDB3
:1050F000C4F1200500FA05F24EEA020E20FA04F38C
:1051000001FA05F243EA020321FA04F001F000413A
:1051100021FA04F220EA020000EBD3705EEA430EAB
:1051200008BF20EAD37070BD94F0000F0FD101F0DA
:105130000046400041EB010111F4801F08BF013C13
:10514000F7D041EA060195F0000F18BF704703F051
:105150000046520043EB030313F4801F08BF013DD8
:10516000F7D043EA0603704794EA0C0F0CEA135594
:1051700018BF95EA0C0F0CD050EA410618BF52EA4E
:105180004306D1D181EA030101F000414FF0000054
:1051900070BD50EA410606BF1046194652EA430662
:1051A00019D094EA0C0F02D150EA013613D195EAD6
:1051B0000C0F05D152EA03361CBF104619460AD11E
:1051C00081EA030101F0004141F0FE4141F4700128
:1051D0004FF0000070BD41F0FE4141F4780170BD18
:1051E00070B54FF0FF0C4CF4E06C1CEA11541DBF7D
:1051F0001CEA135594EA0C0F95EA0C0F00F0A7F87F
:10520000A4EB050481EA030E52EA03354FEA0131AB
:1052100000F088804FEA03334FF0805545EA1313BE
:1052200043EA12634FEA022245EA111545EA106586
:105230004FEA00260EF000419D4208BF964244F11D
:10524000FD0404F5407402D25B084FEA3202B61A3C
:1052500065EB03055B084FEA32024FF480104FF410
:10526000002CB6EB020E75EB030E22BFB61A754684
:1052700040EA0C005B084FEA3202B6EB020E75EB17
:10528000030E22BFB61A754640EA5C005B084FEA7F
:105290003202B6EB020E75EB030E22BFB61A75464C
:1052A00040EA9C005B084FEA3202B6EB020E75EB57
:1052B000030E22BFB61A754640EADC0055EA060E18
:1052C00018D04FEA051545EA16754FEA06164FEA5B
:1052D000C30343EA52734FEAC2025FEA1C1CC0D107
:1052E00011F4801F0BD141EA00014FF000004FF094
:1052F000004CB6E711F4801F04BF01430020B4F155
:10530000FD0C88BFBCF5E06F3FF6AFAEB5EB030C0C
:1053100004BFB6EB020C5FEA500C50F1000041EB09
:10532000045170BD0EF0004E4EEA113114EB5C04D6
:10533000C2BFD4EB0C0541EA045170BD41F48011A9
:105340004FF0000E013C90E645EA060E8DE60CEAB1
:10535000135594EA0C0F08BF95EA0C0F3FF43BAFCE
:1053600094EA0C0F0AD150EA01347FF434AF95EA85
:105370000C0F7FF425AF104619462CE795EA0C0F69
:1053800006D152EA03353FF4FDAE1046194622E736
:1053900050EA410618BF52EA43067FF4C5AE50EA10
:1053A00041047FF40DAF52EA43057FF4EBAE12E700
:1053B0004FEA410212F5001215D211D56FF478733D
:1053C000B3EB625212D94FEAC12343F0004343EAE0
:1053D000505311F0004F23FA02F018BF40427047BB
:1053E0004FF00000704750EA013005D111F0004045
:1053F00008BF6FF0004070474FF00000704700BFDB
:105400004A0011D212F5001211D20DD56FF4787343
:10541000B3EB62520ED44FEAC12343F0004343EA98
:10542000505323FA02F070474FF00000704750EAE3
:10543000013002D14FF0FF3070474FF0000070474D
:105440004FEA4102B2F1E04324BFB3F5001CDCF1A6
:10545000FE5C0DD901F0004C4FEAC0024CEA5070DE
:10546000B2F1004F40EB830008BF20F0010070470D
:1054700011F0804F21D113F13872BCBF01F0004010
:10548000704741F480114FEA5252C2F11802C2F142
:10549000200C10FA0CF320FA02F018BF40F00100C3
:1054A0004FEAC1234FEAD32303FA0CFC40EA0C0075
:1054B00023FA02F34FEA4303CCE77FEA625307D1B2
:1054C00050EA01331EBF4FF0FE4040F440007047E9
:1054D00001F0004040F0FE4040F40000704700BF83
:1054E00080F0004002E000BF81F0004142001FBF99
:1054F0005FEA410392EA030F7FEA226C7FEA236CA2
:105500006AD04FEA1262D2EB1363C1BFD218414096
:1055100048404140B8BF5B42192B88BF704710F02C
:10552000004F40F4000020F07F4018BF404211F0CF
:10553000004F41F4000121F07F4118BF494292EA37
:10554000030F3FD0A2F1010241FA03FC10EB0C0063
:10555000C3F1200301FA03F100F0004302D54942F0
:1055600060EB4000B0F5000F13D3B0F1807F06D39D
:1055700040084FEA310102F10102FE2A51D2B1F195
:10558000004F40EBC25008BF20F0010040EA03008A
:105590007047490040EB0000013A28BFB0F5000F0A
:1055A000EDD2B0FA80FCACF1080CB2EB0C0200FAC0
:1055B0000CF0AABF00EBC25052421843BCBFD0400F
:1055C0001843704792F0000F81F4000106BF80F489
:1055D00000000132013BB5E74FEA41037FEA226C4C
:1055E00018BF7FEA236C21D092EA030F04D092F017
:1055F000000F08BF0846704790EA010F1CBF00204B
:10560000704712F07F4F04D1400028BF40F00040A7
:10561000704712F100723CBF00F50000704700F0C7
:10562000004343F0FE4040F4000070477FEA2262EE
:1056300016BF08467FEA23630146420206BF5FEABF
:10564000412390EA010F40F4800070474FF00003BF
:1056500004E000BF10F0004348BF40425FEA000C86
:1056600008BF704743F0964301464FF000001CE02E
:1056700050EA010208BF70474FF000030AE000BF84
:1056800050EA010208BF704711F0004302D54042C2
:1056900061EB41015FEA010C02BF84460146002034
:1056A00043F0B64308BFA3F18053A3F50003BCFA4F
:1056B0008CF2083AA3EBC25310DB01FA02FC6344FC
:1056C00000FA02FCC2F12002BCF1004F20FA02F203
:1056D00043EB020008BF20F00100704702F12002F6
:1056E00001FA02FCC2F1200250EA4C0021FA02F257
:1056F00043EB020008BF20EADC7070474FF0FF0C5C
:105700001CEAD0521EBF1CEAD15392EA0C0F93EA56
:105710000C0F6FD01A4480EA010C400218BF5FEAF8
:1057200041211ED04FF0006343EA501043EA51116B
:10573000A0FB01310CF00040B1F5000F3EBF490065
:1057400041EAD3715B0040EA010062F17F02FD2A69
:105750001DD8B3F1004F40EBC25008BF20F001004C
:10576000704790F0000F0CF0004C08BF49024CEA63
:10577000502040EA51207F3AC2BFD2F1FF0340EAF5
:10578000C250704740F400004FF00003013A5DDC66
:1057900012F1190FDCBF00F000407047C2F10002A7
:1057A000410021FA02F1C2F1200200FA02FC5FEA94
:1057B000310040F1000053EA4C0308BF20EADC70DE
:1057C000704792F0000F00F0004C02BF400010F450
:1057D000000F013AF9D040EA0C0093F0000F01F0FD
:1057E000004C02BF490011F4000F013BF9D041EA1F
:1057F0000C018FE70CEAD15392EA0C0F18BF93EA21
:105800000C0F0AD030F0004C18BF31F0004CD8D14A
:1058100080EA010000F00040704790F0000F17BFD1
:1058200090F0004F084691F0000F91F0004F14D017
:1058300092EA0C0F01D142020FD193EA0C0F03D16F
:105840004B0218BF084608D180EA010000F0004072
:1058500040F0FE4040F40000704740F0FE4040F44D
:10586000400070474FF0FF0C1CEAD0521EBF1CEAEC
:10587000D15392EA0C0F93EA0C0F69D0A2EB03020A
:1058800080EA010C49024FEA402037D04FF08053A4
:1058900043EA111143EA10130CF000408B4238BF69
:1058A0005B0042F17D024FF4000C8B4224BF5B1A77
:1058B00040EA0C00B3EB510F24BFA3EB510340EAC5
:1058C0005C00B3EB910F24BFA3EB910340EA9C0073
:1058D000B3EBD10F24BFA3EBD10340EADC001B01E3
:1058E00018BF5FEA1C1CE0D1FD2A3FF650AF8B4287
:1058F00040EBC25008BF20F0010070470CF0004C94
:105900004CEA50207F32C2BFD2F1FF0340EAC250BE
:10591000704740F400004FF00003013A37E792F07F
:10592000000F00F0004C02BF400010F4000F013ADD
:10593000F9D040EA0C0093F0000F01F0004C02BFD8
:10594000490011F4000F013BF9D041EA0C0195E741
:105950000CEAD15392EA0C0F08D142027FF47DAFDA
:1059600093EA0C0F7FF470AF084676E793EA0C0FCA
:1059700004D14B023FF44CAF08466EE730F0004CC8
:1059800018BF31F0004CCAD130F000427FF45CAF58
:1059900031F000437FF43CAF5FE700BF4FF0FF3CC6
:1059A00006E000BF4FF0010C02E000BF4FF0010C19
:1059B0004DF804CD4FEA40024FEA41037FEA226CE2
:1059C00018BF7FEA236C11D001B052EA530C18BF04
:1059D00090EA010F58BFB2EB030088BFC81738BF69
:1059E0006FEAE17018BF40F0010070477FEA226C57
:1059F00002D15FEA402C05D17FEA236CE4D15FEA53
:105A0000412CE1D05DF8040B704700BF8446084686
:105A10006146FFE70FB5FFF7C9FF002848BF10F147
:105A2000000F0FBD4DF808EDFFF7F4FF0CBF01208C
:105A300000205DF808FB00BF4DF808EDFFF7EAFF16
:105A400034BF012000205DF808FB00BF4DF808EDD1
:105A5000FFF7E0FF94BF012000205DF808FB00BFC6
:105A60004DF808EDFFF7D2FF94BF012000205DF84C
:105A700008FB00BF4DF808EDFFF7C8FF34BF012059
:105A800000205DF808FB00BF4FEA4002B2F1FE4F74
:105A90000FD34FF09E03B3EB12620DD94FEA0023F0
:105AA00043F0004310F0004F23FA02F018BF4042C9
:105AB00070474FF00000704712F1610F01D14202B0
:105AC00005D110F0004008BF6FF0004070474FF064
:105AD0000000704710B500210446FFF7ADFF20B964
