:020000040808EA
:1000000000000808B05F0808000006000A000501AB
:080010000402FD0800000000DD
:040018000457080879
:10001C0008B5024B1B689B6D019308BD2C000608AC
:10002C0009480A4908B5884205D0094A824202D0DB
:10003C00121A05F08DF90748074A0021121A05F02B
:10004C00AFF9064808BD00BF00000020885E080814
:10005C000001002000010020A9070020A9070020B2
:10006C0070B504F0ABF80025054E064CA41BA40893
:10007C00A54200D170BD56F8043B98470135F7E70F
:10008C00485E0808685E080800F01EBF08B500F05E
:10009C009FFDBDE8084004F049B801F041BC01F0F7
:1000AC003FBC01F045BC000000210C2008B5024A01
:1000BC0001F0F0FAFEE700BFF11308080078B0FA7F
:1000CC0080F0400970470123037070470368C9B280
:1000DC009B68184700224270704770B506460C4664
:1000EC00154604F039F9317802F0CAF804F034F905
:1000FC00210AFFF7EBFF04F02FF9E1B2FFF7E6FF5F
:10010C0004F02AF9036829469B68984704F024F9FF
:10011C00BDE8704002F0D7B838B504460D4604F07F
:10012C001BF9217802F0ACF804F016F9290AFFF754
:10013C00CDFF04F011F9E9B2FFF7C8FF04F00CF998
:10014C0002F0C1F804F008F90122217802F095F8C8
:10015C0004F002F903685B699847C0B238BDF8B582
:10016C00044616460F4604F0F7F87C2102F08CF892
:10017C0004F0F2F821784900FFF7A8FF04F0ECF83E
:10018C00002102F09CF804F0E7F803227C2102F035
:10019C0074F804F0E1F803685B699847054604F0CD
:1001AC00DBF80368EDB25B699847044604F0D4F8B9
:1001BC0003685B699847C4F30313240204F4706466
:1001CC00C0B203EB051504443D803480F8BD13B573
:1001DC000446017004F0C0F802F020F820460DF13E
:1001EC00060201A9FFF7BBFFBDF804300A2B08D1AA
:1001FC00BDF80630B3F5A26F03D10120607002B0D8
:10020C0010BD0020FBE77047006A0368DB681847E5
:10021C0008B5044903F05CFC18B104220120024B20
:10022C001A7008BD5C5708087801002008B5074B08
:10023C001B784BB10121062004F04DF8BDE80840B5
:10024C000021062004F047B808BD00BF04000020C0
:10025C0008B5054903F03CFC20B10420012104F051
:10026C003AF8012008BD00BF5C57080837B50446B2
:10027C009DF818501D438DF800503C2301F096FD5D
:10028C00204603B030BD000010B50446094B036096
:10029C0002F0DEFB214602F0EBFD03F0A7FE03F0BB
:1002AC008BFE2046044B40F8043B02F0CFFC20466A
:1002BC0010BD00BF985A0808805A080810B50446AB
:1002CC00FFF7E2FF2046242104F09CF8204610BDE5
:1002DC00002340681A46194601F0EABA0022406829
:1002EC00114601F0D5BA0EB410B5002301682020D8
:1002FC008DB00FAA52F8044BCDE90403CDE90042AE
:10030C0003921E2004AA01F0CDF90DB0BDE81040F7
:10031C0003B0704781B20148FFF7FEBE29010020EF
:10032C000A4681B20148FFF7D8BE00BF2901002060
:10033C0070B5074E84B221463046FFF7EDFE611CC6
:10034C00054689B23046FFF7E7FE05EB002070BD8D
:10035C002901002070B50D46074E84B2CAB2304652
:10036C0021460134FFF7B9FE3046C5F30722A1B28E
:10037C00BDE87040FFF7B1BE2901002008B50A495D
:10038C0003F0A6FB70B100210220FFF7C9FF00218A
:10039C00064B14201960064B1970064B1960FFF7B9
:1003AC00D9FF012008BD00BF5C5708087001002070
:1003BC0028010020240100202DE9F0410F4E84B2C9
:1003CC0021463046FFF7A8FE611C054689B230462F
:1003DC00FFF7A2FEA11C804689B23046FFF79CFEB7
:1003EC00E11C074689B23046FFF796FE05EB08255F
:1003FC0005EB074505EB0060BDE8F0812901002005
:10040C002DE9F0472F4D2846FFF768FF044608B347
:10041C0000F0F0FF2C4D4FF0000A286001F0C8F9F5
:10042C0001F0CEF9002000F0F5FF47F22F580446FA
:10043C004FF00009002000F0EDFF061B61EB0A07EE
:10044C00B94508BFB04532D301F0C2F978BB01F011
:10045C00AFF9EFE7034602460146686801F020FA5F
:10046C00234622462146686801F0FAF9204600F03E
:10047C00D1FF8246002000F0CDFF0023B0EB0A082C
:10048C00124A61EB04094B4508BF424506D3284686
:10049C00FFF724FF10B901F08BF9EBE70948FFF7E0
:1004AC001DFF0028B4D100242046BDE8F08701F0E0
:1004BC008FF904460028F6D000F09CFF286001F06C
:1004CC0077F9F1E794010020D40600208F5F01003A
:1004DC0008B501F07DF980F00100C0B208BD000044
:1004EC002DE9F043002485B001A8CDE90144ADF815
:1004FC000C4001F048FB204600F08CFF42F20F78D4
:10050C0005464FF00009002000F084FF461B61EB0C
:10051C000407B94508BFB04505D3FFF7D9FF10B99B
:10052C0001F046F9EFE7094CFFF7D2FF0022022158
:10053C00606801F0A5F940F6B83001F039FA2046B0
:10054C00FFF7C6FE012005B0BDE8F0839401002042
:10055C0008B50720FFF7DEFE014B1870002008BD20
:10056C002001002008B500F045FF054B1B68C01AA0
:10057C00044B1B68984234BF0020012008BD00BF0B
:10058C00300100200800002008B5FFF7EBFF10B980
:10059C0001F00EF9F9E7BDE80840FFF7E3BF0000F2
:1005AC0008B500F027FF054B1B68C01A044B1B68ED
:1005BC00984234BF0020012008BD00BF3401002048
:1005CC0014000020002330B585B001A8CDE901331B
:1005DC00ADF80C3001F0D7FA00F00CFF43F697257C
:1005EC00044601F0F5F840B100F004FF001BA842EE
:1005FC0003D8642001F0DCF9F3E70848FFF768FE44
:10060C0042F2107001F0D4F9054B0A2201211B684B
:10061C0001A803F0D9FA05B030BD00BF9401002049
:10062C000C01002038B5046805467CB16368013BB9
:10063C0063605BB9236820469B689847A368013BBD
:10064C00A3601BB923682046DB689847284638BD51
:10065C002DE9FF410720FFF75DFE00238DF80030E8
:10066C00204B214A1B782149054602A8FFF7FEFDC5
:10067C0003A8FFF7D7FF08241D4E1E4FDFF87C8020
:10068C0000212046FFF74CFEB4F5005F13D103F0B8
:10069C00ADFC194903F010F90134B4F5004FEFD15A
:1006AC0029460720FFF73CFE09210020FFF738FE02
:1006BC0004B0BDE8F081B4F5804F03D103F096FC93
:1006CC004146E7E7B4F5C04F03D103F08FFC394640
:1006DC00E0E747F6FF739C42DED103F087FC31461E
:1006EC00D8E700BF1001002083570808285A0808D3
:1006FC00B4570808AB57080899570808A2570808B8
:10070C0008B5044903F0E4F910B1FFF7A1FF01208B
:10071C0008BD00BF5C570808002110B5A4B07C22AE
:10072C0005A8049104F03CFE204B1C78E20703D58D
:10073C001F4904A804F060FEA30703D51D4904A8B3
:10074C0004F05AFE600703D51B4904A804F054FEBC
:10075C00210703D5194904A804F04EFEE20603D57F
:10076C00174904A804F048FE230603D5154904A82C
:10077C0004F042FEFFF708FF134B1B7863B1002314
:10078C008DF80030114B02A81B78114904AAFFF711
:10079C006DFD03A8FFF746FF04A90E48FFF7A3FD64
:1007AC0000F028FE0C4B186024B010BD1101002085
:1007BC00B9570808CE570808E3570808F757080830
:1007CC0008580808195808088C010020100100204E
:1007DC0024580808D00100203001002000B5144B2B
:1007EC00C7B01B684FF480710393124B124A1B68FD
:1007FC0006A80293114B1B680193114B1B680093C5
:10080C00104B1B7801F0ACF800238DF800300E4B28
:10081C0006AA1B780D4904A8FFF728FD05A8FFF7C9
:10082C0001FF01220A4B1A7047B05DF804FB00BFB0
:10083C0070010020880100202B5808087C01002042
:10084C00240100201101002010010020725808081A
:10085C00280100201FB50C4699B9FFF795FE204BD7
:10086C008DF800401B781F4A1F4902A8FFF7FEFCB9
:10087C0003A8FFF7D7FE00F0BDFD1C4B186004B0B9
:10088C0010BD084604F060FDC838012819D8FFF7E0
:10089C007BFE174B1B7863B100238DF80030104B97
:1008AC0002A81B78134A1449FFF7E0FC03A8FFF7D2
:1008BC00B9FE00F09FFD00220C4B18600F4B1A7014
:1008CC00DDE700238DF80030054B02A822461B788B
:1008DC000549FFF7CBFC03A8FFF7A4FECFE700BF49
:1008EC0010010020845808088C580808300100209A
:1008FC008C010020995808086F5A0808280100201C
:10090C0030B5234985B0054603F0E2F8044618B328
:10091C000124204B07201C70FFF7FCFC1E4B07200A
:10092C00197841F008011970FFF7FAFCFFF72CFE5B
:10093C0000238DF80030194B194A1B78194902A86D
:10094C00FFF794FC03A8FFF76DFE00F053FD164B68
:10095C001860012005B030BD2846144903F0B8F8E2
:10096C000028F7D00B4B07201C70FFF7D3FC0A4B69
:10097C000720197801F0F7011970FFF7D1FCFFF788
:10098C0003FE064B8DF800401B78094AD6E700BFE2
:10099C005C5708088C010020200100201001002069
:1009AC00AB580808CE58080830010020BC5808087D
:1009BC00BE58080830B5254985B0054603F088F8BF
:1009CC00044620B3224A234C137843F010031370CF
:1009DC002360FFF7D9FD00238DF800301E4B1F4A12
:1009EC001F491B7802A8FFF741FC03A8FFF71AFE6A
:1009FC0022681C491C48FFF776FC00F0FBFC1B4BE3
:100A0C000422186001201A4B1A7005B030BD28461C
:100A1C00184903F05DF80028F7D00D4A0D4D1378F6
:100A2C0003F0EF0313702B60FFF7AEFD0A4B8DF84C
:100A3C000040114A0A491B7802A8FFF717FC03A8CB
:100A4C00FFF7F0FD2A680D49D4E700BF5C57080892
:100A5C00110100201401002010010020D3580808B7
:100A6C00CE580808E9580808D001002030010020B1
:100A7C0078010020BC5808080159080815590808C5
:100A8C00F0B5CBB00A22006803A904F0C3FDC5B2CF
:100A9C0005F10C03DBB2182B44D844B2204604F009
:100AAC00B3F903F00DF929460420FFF739FC03F0E4
:100ABC007AF900261C4FC1172346C7E900011B4ACF
:100ACC004FF480711A4D0AA800F04AFFFFF75CFD45
:100ADC008DF8006017492B780AAA06A8FFF7C6FB09
:100AEC0007A8FFF79FFD00F085FC134C2060FFF773
:100AFC004BFDD7E9002306A803F000F98DF8006040
:100B0C002B78069A0B4904A8FFF7B0FB05A8FFF752
:100B1C0089FD06A802F03DFF00F06CFC206001206E
:100B2C004BB0F0BD0020FBE78001002030590808D5
:100B3C001001002044590808300100200E2330B564
:100B4C00194C1A4922781A4D03FB021228788FB0DF
:100B5C0003FB001300922821164A04A800F000FFA2
:100B6C0000F036FE88B1144B1B7873B1FFF70CFD07
:100B7C0000238DF80030114B02A81B78104904AAF1
:100B8C00FFF774FB03A8FFF74DFD04A90D48FFF711
:100B9C00AAFB0D4B0D491A780A48FFF7A4FB2378E2
:100BAC002B700FB030BD00BF780100201800002062
:100BBC0060010020495908088C0100201001002018
:100BCC0057590808D0010020110100206859080865
:100BDC0030B5944C85B02378013B042B62D8DFE808
:100BEC0013F0F20005003D007800B8008E4B1B7826
:100BFC00022B01D0FFF7A2FFFFF7D2FC10B900F0D7
:100C0C00D7FDF9E7FFF7CCFCFFF7A2FC08B10423F2
:100C1C00237000F0EFFB854B186003F0D5F8844B84
:100C2C001B78984211D00423237003F0CDF80546AD
:100C3C0058B9804B014618601420FFF78BFB00F06D
:100C4C00C7FD10B1284600F0E3FD7B4B1A687B4BC7
:100C5C001B689A4226DC0323237023E0724B1B781B
:100C6C00032B01D0FFF76AFF00F0B2FD08B1FFF7CC
:100C7C0037FC0024724B214607201C7003F02BFB21
:100C8C0021461D2003F027FBFFF7D0FA03F0A8F84C
:100C9C003C226C4BC0F13C00424301211B6802A872
:100CAC0002F092FF00F094FD88B900F0A3FB664CB3
:100CBC002368C01A47F23053984208D900F080FDDF
:100CCC0000F098FB614920606148FFF70CFB05B010
:100CDC0030BD554B1B78042B01D0FFF72FFFFFF7CE
:100CEC00A5FA00235B4D2B7000F072FD40B9FFF7A5
:100CFC0087FB28B900F07EFB574B18600123ABE74C
:100D0C00564B1B780BB1FFF707FDFFF767FD00F0A3
:100D1C0071FB534B186003F057F8454B1870FFF7F5
:100D2C0033FC504B1B7863B100238DF800304E4BD5
:100D3C0002A81B784D4A4E49FFF798FA03A8FFF713
:100D4C0071FC00F057FB4B4B186001232B700523F3
:100D5C0082E7354B1B78052B01D0FFF7EFFE464B96
:100D6C001D78BDB902232370FFF70EFC3D4B1B7899
:100D7C005BB13D4B8DF800501B78404A02A83C49B2
:100D8C00FFF774FA03A8FFF74DFC00F033FB394B67
:100D9C00186087E700F02EFB314B1B68C01A384BEC
:100DAC001B689842FFF47EAF00F024FB2A4B1860BE
:100DBC0001232370FFF7E8FB00238DF800302A4B4A
:100DCC00304A1B78DAE7184B1B78012B01D0FFF760
:100DDC00B5FE00F00FFB204B1B68C01A2A4B1B689A
:100DEC009842FFF45FAF00241F4B8DF800401B7836
:100DFC00264A1F4902A8FFF739FA03A8FFF712FC8D
:100E0C004FF4FA6000F0D4FD214B1B68032B02DC7D
:100E1C0002F0D7FE46E721460220FFF781FAFFF7E2
:100E2C00D1FB3FE778010020600100203401002055
:100E3C0021010020240100207C0100200000002062
:100E4C00380100200C0100202C010020C159080899
:100E5C00D0010020040000207401002011010020AA
:100E6C00900100208C010020100100207859080806
:100E7C006F5A080830010020280100208D590808FD
:100E8C00880000209259080810000020A959080871
:100E9C007001002070B51426D0E90053044606FBFF
:100EAC000356AE4204D0284602F073FD1435F8E721
:100EBC00206800F03DFD204670BD00000246014850
:100ECC0000F050BE451B080830B50024A9B04FF403
:100EDC007A7000F06DFD0021192003F0EBF9002170
:100EEC001A2003F0E7F900211B2003F0E3F900219D
:100EFC001C2003F0DFF900210E2003F0DBF90021A8
:100F0C00112003F0D7F90021052003F0D3F90121BA
:100F1C00072003F0CFF901211D2003F0CBF90121AB
:100F2C001D2003F0D8F90121062003F0C3F9FFF7C7
:100F3C007DF90121042003F0BDF904A800F050FC58
:100F4C0000237D2208A904A802F0D4FD23462246E2
:100F5C007049CDE9004408A800F052FC2346022257
:100F6C006D496E4800F014FC234604226C496D4810
:100F7C0000F00EFC234602226B496C4800F008FC82
:100F8C00234602226A496B4800F002FC6A49234658
:100F9C0004220968694800F0FBFB234602226849D9
:100FAC00684800F0F5FB234602226749674800F0C9
:100FBC00EFFB674A6749684800F0D4FD6749684809
:100FCC00FFF77CFF674A6849634800F0CBFD674A2E
:100FDC006749614800F0C6FD66496748FFF76EFF38
:100FEC0066496748FFF76AFF66496748FFF766FF7F
:100FFC0050216648FFF7EBF8654D002876D100F0DC
:10100C00F9F9644B186001232B700220FFF782F969
:10101C000022454C1146206002A8029200F0D2F941
:10102C00029B142B06D12168022001312160C9B228
:10103C00FFF776F92368052B05DD04210220FFF765
:10104C006FF9FFF7BFFA0420FFF764F900F10B0307
:10105C00DBB2162B5CD840B203F0D6FE02F030FEA9
:10106C000720FFF757F94C4C4C4B2070C0F3C000D5
:10107C0018701420FFF75CF9334B186023789B072A
:10108C0006D50E20FFF798F90022454B18605A60E0
:10109C00444801F05BF804F0D1F8294B1860424B3E
:1010AC001B68984201DDFFF7ABF900244FF0FF33CA
:1010BC0001223E490094112001F01CF92B784EF6C8
:1010CC006021012B1CBF02232B700823ADF80830C4
:1010DC0001230393002302AA1846ADF80A4000F03E
:1010EC00A7FB04A802F055FC29B030BD2046FFF741
:1010FC0011F9092889D0FFF7ABFA2046FFF70AF956
:10110C0009287FF47CAF21460720FFF709F97CE71B
:10111C002748A3E761080808140100202458080890
:10112C0000400240E559080870010020EC590808FD
:10113C0088010020F75908080C000020035A080801
:10114C007C0100200B5A080824010020165A0808BC
:10115C00225A08080D070808451B080889030808C7
:10116C002D5A08083A5A08085D020808455A08081A
:10117C001D0208080D0908084E5A08088D0A0808AF
:10118C005B5A0808C1090808685A08082901002098
:10119C007801002074010020200100208C01002027
:1011AC006801002018010020000000203902080806
:1011BC000000A0C08842F8B504460D46164616D964
:1011CC00904215D2A2F11406751AA1F114072C4401
:1011DC00B7421CD02CB13146204602F054FC337C73
:1011EC002374304602F0D5FB143E143CF0E70ED0CD
:1011FC00B5420CD02CB12946204602F044FC2B7C85
:10120C002374284602F0C5FB14351434F0E7F8BDFE
:10121C0000232DE9F041C0E9003383604F68044698
:10122C009F420E4624DD4FF0140808FB07F000F037
:10123C0077FB0546E0B1D4E9001208FB0212FFF778
:10124C00B9FF206800F074FB2560A760D6E9007335
:10125C0008FB0378B84509D03946284602F02DFC26
:10126C003B7C143505F8043C1437F3E77368636072
:10127C002046BDE8F08100002DE9F0410024012654
:10128C002D4B8CB01C602D4B2D481E70FEF722FF91
:10129C00CDE90044029402F0A9FE2A4D0746A84667
:1012AC00694603A8FFF7B4FF03A906A8FFF7B0FF30
:1012BC00254B06A948F8043B09A8FFF7A9FF09AA82
:1012CC001E21404601F02CFF09A8FFF7E3FD06A8FC
:1012DC00FFF7E0FD1D4B03A82B602F62FFF7DAFD33
:1012EC001B4B2B6002F082FE4FF4165102F060FE95
:1012FC0001F0AEFB294601F0A6FE6846FFF7CAFDD9
:10130C00144B154A1C609C809C719A60022000F062
:10131C00E9F92146304600F0FDF93146042000F091
:10132C0049F821460D4800F0C3FE21460C4802F056
:10133C0086FA0CB0BDE8F0810C01002010010020F1
:10134C00290100203C010020805A0808DC5B0808B9
:10135C00985A0808000100200000FFFF1801002027
:10136C006101002008B5024B1B68DB6B019308BDC3
:10137C002000060808B5024B1B685B6C019308BD86
:10138C00D001040808B5024B1B689B6C019308BD87
:10139C00D001040808B5024B1B68DB6C019308BD37
:1013AC00D001040808B5024B1B685B6D019308BDA6
:1013BC00D001040808B5024B1B685B6E019308BD95
:1013CC00B801040808B5024B1B68DB6E019308BD1D
:1013DC00B801040808B5024B1B685B68019308BD93
:1013EC009C01040808B5024B1B68DB68019308BD1F
:1013FC009C01040808B5024B1B685B69019308BD8E
:10140C009C01040808B5024B1B689B6D019308BD39
:10141C009C01040808B5024B1B68DB6D019308BDE9
:10142C009C01040808B5024B1B685B6E019308BD58
:10143C009C01040808B5024B1B689B68019308BD0E
:10144C00B001040808B5024B1B68DB68019308BDAA
:10145C00B001040808B5024B1B681B69019308BD59
:10146C00B001040808B5024B1B689B69019308BDC9
:10147C00B001040808B5024B1B68DB69019308BD79
:10148C00B001040808B5024B1B68DB68019308BD6A
:10149C00AC01040808B5024B1B689B69019308BD9D
:1014AC00AC01040808B5024B1B68DB69019308BD4D
:1014BC00AC01040808B5024B1B681B6A019308BDFC
:1014CC00AC01040808B5024B1B685B6A019308BDAC
:1014DC00AC01040808B5024B1B689B6A019308BD5C
:1014EC00AC01040808B5024B1B68DB6A019308BD0C
:1014FC00AC01040808B5024B1B681B6B019308BDBB
:10150C00AC01040808B5024B1B685B6B019308BD6A
:10151C00AC01040808B5024B1B681B6C019308BD99
:10152C00AC01040808B5024B1B689B6C019308BD09
:10153C00AC01040808B5024B1B68DB6C019308BDB9
:10154C00AC01040808B5024B1B681B6D019308BD68
:10155C00AC01040808B5024B1B68DB69019308BD9C
:10156C00B401040808B5024B1B681B6A019308BD43
:10157C00B401040808B5024B1B689B69019308BDB4
:10158C00C401040808B5024B1B681B6A019308BD13
:10159C00C401040808B5024B1B685B6A019308BDC3
:1015AC00C401040808B5024B1B689B6A019308BD73
:1015BC00C401040808B5024B1B68DB6A019308BD23
:1015CC00C401040808B5024B1B681B6B019308BDD2
:1015DC00C401040808B5024B1B685B6B019308BD82
:1015EC00C401040808B5024B1B689B6B019308BD32
:1015FC00C401040808B5024B1B681B6C019308BDA1
:10160C00C401040808B5024B1B68DB6C019308BDD0
:10161C00C401040808B5024B1B681B68019308BD84
:10162C001C00060808B5024B1B685B68019308BDDB
:10163C001C00060808B5024B1B689B68019308BD8B
:10164C001C00060808B5024B1B681B69019308BDFA
:10165C001C00060808B5024B1B685B69019308BDAA
:10166C001C00060808B5024B1B689B69019308BD5A
:10167C001C00060808B5024B1B68DB69019308BD0A
:10168C001C00060808B5024B1B681B6A019308BDB9
:10169C001C00060808B5024B1B685B6B019308BD68
:1016AC00A001020808B5024B1B685B6D019308BDD5
:1016BC00A001020808B5024B1B68DB6E019308BD44
:1016CC00A001020808B5024B1B681B6F019308BDF3
:1016DC00A001020808B5024B1B681B68019308BDEA
:1016EC00A401040808B5024B1B685B68019308BD94
:1016FC00A401040808B5024B1B685B69019308BD83
:10170C00A401040808B5024B1B689B69019308BD32
:10171C00A401040808B5024B1B68DB6A019308BDE1
:10172C00A401040808B5024B1B68DB6C019308BDCF
:10173C00A401040808B5024B1B685B6D019308BD3E
:10174C00A401040808B5024B1B689B6D019308BDEE
:10175C00A401040808B5034B1B68D3F8903001931F
:10176C0008BD0000A401040808B5034B1B68D3F89E
:10177C009C30019308BD0000A401040808B5034B7C
:10178C001B68D3F8B830019308BD0000A40104080D
:10179C0008B5024B1B681B68019308BDCC010408FB
:1017AC0008B5024B1B685B68019308BDCC010408AB
:1017BC0008B5024B1B689B68019308BDCC0104085B
:1017CC0008B5024B1B68DB68019308BDCC0104080B
:1017DC0008B5024B1B685B69019308BDCC0104087A
:1017EC0008B5024B1B68DB69019308BDCC010408EA
:1017FC0008B5024B1B681B6A019308BDCC01040899
:10180C0008B5024B1B685B6A019308BDCC01040848
:10181C0008B5024B1B68DB6A019308BDCC010408B8
:10182C0008B5024B1B681B6B019308BDCC01040867
:10183C0008B5024B1B689B6B019308BDCC010408D7
:10184C0008B5024B1B68DB6B019308BDCC01040887
:10185C0008B5024B1B685B6C019308BDCC010408F6
:10186C0008B5024B1B685B68019308BDC8010408EE
:10187C0008B5024B1B689B68019308BDC80104089E
:10188C0008B5024B1B68DB68019308BDC80104084E
:10189C0008B5024B1B681B69019308BDC8010408FD
:1018AC0008B5024B1B685B69019308BDC8010408AD
:1018BC0008B5024B1B689B69019308BDC80104085D
:1018CC0008B5024B1B68DB69019308BDC80104080D
:1018DC0008B5024B1B681B6A019308BDC8010408BC
:1018EC0008B5024B1B681B6B019308BDC8010408AB
:1018FC0008B5024B1B685B6B019308BDC80104085B
:10190C0008B5024B1B681B6C019308BDC801040889
:10191C0008B5024B1B685B6C019308BDC801040839
:10192C0008B5024B1B681B68019308BDA001040895
:10193C0008B5024B1B685B68019308BDA001040845
:10194C0008B5024B1B689B68019308BDA0010408F5
:10195C0008B5024B1B681B69019308BDA001040864
:10196C0008B5024B1B68DB69019308BDA001040894
:10197C0008B5024B1B685B6A019308BDA001040803
:10198C0008B5024B1B68DB6A019308BDA001040873
:10199C0008B5024B1B681B6B019308BDA001040822
:1019AC0008B5024B1B685B6C019308BDA0010408D1
:1019BC000021FFF79FBE10B5836804460BB902F0F7
:1019CC0027FDC3689847A3681BB103222146204614
:1019DC0098472046BDE81040102102F013BDF0B529
:1019EC00002685B0044610460F461546039603F0B4
:1019FC0056FD7B6881B20096284603AAFFF7B2FC1D
:101A0C0030B13146204600F0D1FC204605B0F0BD87
:101A1C00204603A900F0C2FCF7E7002240681146FB
:101A2C00FFF756BF002240681146FFF761BF002246
:101A3C004068FFF755BF0022406881F00101FFF7B5
:101A4C003FBF002340681A461946FFF729BF002202
:101A5C0040681146FFF70CBF002202214068FFF7D7
:101A6C000FBF002340681A46FFF7FABE10B52824B2
:101A7C00074B22461846002103F092FC4FF0FF3230
:101A8C0042600422034B04805A60034A1A6010BD62
:101A9C009C01002094010020B05A080870470020D7
:101AAC00704710B50446102102F0ACFC204610BD66
:101ABC0008B5FFF7F6FF08BD10B58368044613B1EF
:101ACC00032201469847204610BD002230B54FF640
:101ADC009C74026084808D888C800C688580046086
:101AEC000A6030BD10B504460068FFF721FF2046A0
:101AFC0010BD38B5C468F4B12378022B03D104F1BE
:101B0C000C00FFF7EFFF656835B12846FFF7D4FFEF
:101B1C001021284602F076FCA56835B12846FFF75F
:101B2C00CBFF1021284602F06DFC2046BDE8384062
:101B3C00142102F067BC38BD10B588B00446684665
:101B4C0001F071FF694604A801F0B7FF04A8A04793
:101B5C00044604A801F01DFF684601F01AFF204658
:101B6C0008B010BD1FB500231024CDE9020101926D
:101B7C0069461A461846ADF80230ADF80040FFF73A
:101B8C000FFE04B010BD1FB50C230021ADF80430BE
:101B9C000368ADF80D108DF80630037A8DF80F1030
:101BAC008DF8073043680293437A01A88DF80C3006
:101BBC00FFF74EFE05B05DF804FB0B68036013B134
:101BCC005A6801325A60704773B50E46044656F88F
:101BDC00043B0D4601A831460093FFF7EEFF009B36
:101BEC00019A23600023626001A801930093FEF721
:101BFC0019FD3046FEF716FD2846082102F002FCBE
:101C0C00204602B070BD13B56C460B46024603C8A5
:101C1C0084E8030093E8030082E8030094E80300DF
:101C2C0083E8030002B010BD826810B50AB902F057
:101C3C00EFFBC368BDE81040184708B5006800F119
:101C4C001001FFF7F1FF08BD826810B50AB902F068
:101C5C00DFFBC368BDE81040184708B5006800F109
:101C6C001001FFF7F1FF08BD38B5002304460360EF
:101C7C0010200D46FEF711FA28B10123C0E90133FB
:101C8C00024BC56003602060204638BDEC5A080842
:101C9C0038B5002383608B6804460D462BB10222B5
:101CAC009847EB68E360AB68A360204638BD000042
:101CBC00F0B589B004686846FFF707FF4FF00203E0
:101CCC00D4E84F2F002A03D1C4E8413F0029F7D1B3
:101CDC0025D104F10C0569462846FFF7F6FE0123D1
:101CEC00BFF35B8F63700020BFF35B8F04F10803BD
:101CFC0053E8006F43E80002002AF9D1BFF35B8F71
:101D0C006EB1FFF70FFD78B129463046FFF78CFF17
:101D1C003046FFF7D1FE1021304602F073FB6846C7
:101D2C00FFF7E0FE09B0F0BD314602A8FFF7B0FFA7
:101D3C00E068B4F9105008B103F096FB069010203F
:101D4C00ADF81C50FEF7A9F90546E8B100278760ED
:101D5C001820FEF7A2F9044688B10146876002A854
:101D6C00FFF751FF049BA268A360059B0492E268F5
:101D7C0006A9E36004F110000592FFF7A6FE084BDC
:101D8C002C60EB60074BAB6006A8FFF7ABFE02A81C
:101D9C00FFF792FE002229460348FFF7CBFCB7E77A
:101DAC00471C0808DD1E0808C31908082DE9F04770
:101DBC008AB005460C46174698469DF84890FFF7A2
:101DCC0007FD07AE824638BB4FF62E73059005A96A
:101DDC003046ADF81830FFF778FE1420FEF75DF9A9
:101DEC00044648B1022303700123C0E901AA4370E1
:101DFC0031460C30FFF769FE2846214640F8044B6B
:101E0C00FFF732FF3046FFF76DFE05A8FFF76AFEBD
:101E1C0028460AB0BDE8F0870C234FF0000A1420C6
:101E2C00CDE908AA0793FEF738F9014628B1C0E9B5
:101E3C0001AA80F800A080F801A004A80391FFF784
:101E4C0013FF224B08200893FEF727F9824628B18E
:101E5C00039B04A940F8043BFFF7AFFE424639460A
:101E6C00204600965FFA89F3CDF824A0FFF7C0FC5A
:101E7C00B8B9039B5B7803F0FF0293B94FF69C73E0
:101E8C0005A903A80592ADF81830FFF711FF05A8B6
:101E9C00FFF728FE05A80999FFF796FE06A8FEF79E
:101EAC00C1FB039B04A906A80593FFF786FE059BBF
:101EBC00069A2B6000236A6006A806930593FEF72A
:101ECC00B1FB04A8FEF7AEFBA2E700BFA11F0808F8
:101EDC00022AF8B5054607D0032A18D0012A01D1E9
:101EEC000B6803600020F8BD18200E68FEF7D5F8CB
:101EFC00044650B13146FFF7CBFE3069B6F9147089
:101F0C0008B103F0B1FA2061A7822C60EAE70468FB
:101F1C00002CE7D004F11000FFF7E4FD2046FFF79A
:101F2C00CBFD1821204602F06DFADBE738B5002313
:101F3C0083608B6804460D462BB102229847EB68F0
:101F4C00E360AB68A360204638BD022A70B5044636
:101F5C0007D0032A12D0012A01D10B68036000209C
:101F6C0070BD14200E68FEF798F8054620B1314676
:101F7C00FFF7DCFF337C2B742560F0E70468002C42
:101F8C00EDD02046FFF798FD1421204602F03AFAD6
:101F9C00E5E70000F0B5044689B00D4601A81146EE
:101FAC00FFF712FEA4B124B21DB1284603F05CFA6F
:101FBC00054601A803A90395ADF81040FFF778FE7C
:101FCC0003A8FFF78FFD02A8FEF72CFB09B0F0BDAC
:101FDC000123019DD5E84F2F002A03D1C5E8413FCD
:101FEC000029F7D1EFD12B73BFF35B8F6B70BFF36D
:101FFC005B8F2B1D53E8006F43E80042002AF9D198
:10200C00BFF35B8F002EDED02046FFF78BFB07461D
:10201C0060B1304605F10C01FFF716FE3046FFF7B4
:10202C004BFD1021304602F0EDF9CCE7314603A808
:10203C00FFF77CFF2B7B10208DF81C30FEF72DF862
:10204C000546D0B187601420FEF727F8044678B116
:10205C000146876003A8FFF7D6FD059BA268A36025
:10206C00069B0592E268E3609DF81C30069223748F
:10207C00064B2C60EB60064BAB6003A8FFF71CFD16
:10208C00002229460348FFF755FBC7E7671C0808E1
:10209C00571F0808C3190808006800F017B910B5D5
:1020AC000446016002710AB1FFF7F6FF204610BD2D
:1020BC0038B504460D4602F073F92A46014620460F
:1020CC00FFF7EDFF204638BD006800F008B92DE998
:1020DC00FF4104460D4617461E46FFF7DDFF36232B
:1020EC008DF8003000234FF0010801930A23694654
:1020FC00206803938DF8088000F0C9F82068294601
:10210C0003689B6898474146206800F0D8F805465C
:10211C0040B16FF09F052046FFF7D6FF284604B06C
:10212C00BDE8F081022369462068019300F07CF839
:10213C000228EED1206803685B69984738702068E4
:10214C0003685B6998473070E5E70000002313B51E
:10215C0004218DF806308DF807300DF106020DF1D3
:10216C000703FFF7B4FFA0B99DF8070002F0A6FA29
:10217C000022094B02F00CFB02F03CFD04469DF8DA
:10218C00060002F041FE0146204602F089FD02B035
:10219C0010BD0248FBE700BF0000703F000080BF8D
:1021AC007047F8B5064615460C468F18BC4206D04B
:1021BC00336830469B6814F8011B9847F6E72846AD
:1021CC00F8BD0022007CFFF775B90021007CFFF7F9
:1021DC0079B90021007CFFF77DB90021007CFFF765
:1021EC0081B90021007CFFF785B910B50446142194
:1021FC0002F008F9204610BD10B54FF47A7304466E
:10220C0008460021C4E90113034B114623602074D6
:10221C00FFF780F9204610BD085B08080023007CFE
:10222C001A461946FFF72EB97FB500221423CDE9C3
:10223C000122ADF804300B78007C8DF808304B6827
:10224C000393CB6804930B7A01A90593FFF77AF9F2
:10225C0007B05DF804FB1FB5003B8DF800104FF084
:10226C00640118BF01230391694601928DF808306F
:10227C00FFF7DAFF05B05DF804FB0123FFF7EBBFB6
:10228C000022007CFFF706B9C9B2FFF7F9BF7FB592
:10229C0000220B46CDE901221422ADF804205A6825
:1022AC0009780392DA681B7A0492007C01AA8DF8F3
:1022BC0008100593FFF7EEF807B05DF804FB002259
:1022CC00007CFFF7EFB80121FFF7F9BF08B500213B
:1022DC00007CFFF727F9B0FA80F0400908BD08B57B
:1022EC000021007CFFF726F9B0FA80F0400908BD08
:1022FC00004700002DE9FF4100241D460F46904683
:10230C000646FFF7B7F80423A5428DF80C30A8BF9A
:10231C009DF82830ADF80D408DF80F40A4BF03ACEC
:10232C008DF80E303A464346304606490094A8BF15
:10233C008DF80D50FFF796F8B0FA80F0400904B014
:10234C00BDE8F081FD220808704710B5044608214D
:10235C0002F058F8204610BDF8B50E46002400F1E6
:10236C000807051D17F8011D0A22304601F0AEFAC8
:10237C00AF42044401D12046F8BD002CF2D02E21EE
:10238C00304601F08AFA0444ECE70000024A02608D
:10239C0000224260704700BF305B0808024A0260AE
:1023AC000A684260704700BF305B0808014AC0E908
:1023BC0000217047305B080810B59DF8084044EACE
:1023CC00032444EA024444EA0164446010BD000062
:1023DC0037B5044D05609DF818500095FFF7ECFFDC
:1023EC0003B030BD305B0808012200F1100313F874
:1023FC00101C1846012908D153F8041C02EB4102A9
:10240C00013A03F11003F2D17047022904BF53F8CB
:10241C00041C5218F4E70EB42DE9F04187B000AF5C
:10242C0007F1340555F8048B04462B46424610211F
:10243C0007F108007D60FFF79BFA0F281BD900F10C
:10244C00080323F007036E46ADEB030D4246411C17
:10245C002B4668467D60FFF78BFA021E04DD23686D
:10246C00694620469B689847B5461C37BD46BDE873
:10247C00F04103B070470028F7D0236802469B68F0
:10248C00204607F108019847EFE710B504460368AA
:10249C009B689847A368013BA3602BB9236820462F
:1024AC00BDE81040DB68184710BD07B503688DF810
:1024BC00071001229B680DF10701984703B05DF8E6
:1024CC0004FB38B50B68044603604D6843689D42B5
:1024DC000CD015B16B6801336B60606828B1436830
:1024EC00013B43600BB9FFF7D0FF6560204638BD58
:1024FC000B461146002210B50446C0E90022836049
:10250C000BB9204610BDFFF7DCFFFAE703468068E5
:10251C0020B30278032A1AD8DFE802F00417021B52
:10252C00052070471B685A684368D05C2D2812D070
:10253C00A0F13003092B0ED974280ED066280CD0CC
:10254C00A0F16E0358425841704706207047002096
:10255C00704704207047032070470220704710B565
:10256C000446FFF7D3FF02280ED0C31EDBB2012BAB
:10257C0014D82268A36850685B680A22BDE8104032
:10258C000021184403F046B82268A36852685B68BF
:10259C00D05CA0F174035842584110BD0020FCE7F8
:1025AC000B461146002210B50446C0E900220D4826
:1025BC00C4E90202A3B11A78032A06D082B90A68C8
:1025CC0050685A68825C6E2A07D00A68586852684C
:1025DC009B6802441B1AA260E3602046FFF771FF60
:1025EC00204610BDA25B080838B500250B460446F2
:1025FC001146C0E90055C0E90255C0E904554BB17C
:10260C001A78012A06D103F11002DB68826043615B
:10261C00FFF757FF204638BD10B54369044663B138
:10262C008068013BE0601030A0602061636113B1F1
:10263C00FFF7DAFEA060012000E0184610BD10B5CF
:10264C007D210446FFF731FF01232046237110BD85
:10265C0008B50379012B02D0022B04D008BD2C2124
:10266C00FFF723FFFAE73A21FAE710B50446FFF724
:10267C00EFFF20467B21FFF718FF00232046237134
:10268C0010BD000038B504460D46FFF7E1FF236886
:10269C0020462A46DB6803499847012320462371CC
:1026AC0038BD00BF3C5B080838B504460D46FFF743
:1026BC00CFFF236820462A46DB680349984701234D
:1026CC002046237138BD00BF3F5B08082DE9F0415F
:1026DC000D46174622210446FFF7E7FE2946DFF890
:1026EC0098802F44BD422A4638D015F8016B222E13
:1026FC0003D05C2E01D01F2EF4D82368521A20462A
:10270C009B6898475C212046FFF7CFFE0D2E0AD818
:10271C00072E1CD9A6F10803052B18D8DFE803F007
:10272C000D0F11171315222E01D05C2E0FD131462F
:10273C002046FFF7BAFE2946D4E76221F8E7742158
:10274C00F6E76E21F4E76621F2E77221F0E72368E1
:10275C00324641462046DB689847ECE78D4204D070
:10276C00236820469B686A1A984722212046FFF767
:10277C009CFEBDE8F08100BF425B080870B50446C2
:10278C000D461646FFF764FF204632462946FFF7F2
:10279C009DFF02232046237170BD70B504460D4683
:1027AC001646FFF755FF204632462946FFF78EFFA7
:1027BC0001232046237170BD80680368DB681847CD
:1027CC007047084611B10B685B6818477047704733
:1027DC0070477047704738B504460D4600682E2187
:1027EC0002F026FE23680246C01A286020B1137836
:1027FC0003B101322068226038BD10B504460C21AB
:10280C0001F000FE204610BD10B50446042101F075
:10281C00F9FD204610BD10B50446042101F0F2FD6F
:10282C00204610BD08B502F00DFEB0FA80F040094C
:10283C0008BD704710B50C4601F0D8FB844205D199
:10284C0001F0D4FBBDE8104001F0B6BB01F008FC70
:10285C00844202D101F004FCF4E701F033FB844222
:10286C0005D101F02FFBBDE8104001F028BB2CB1C5
:10287C0023682046BDE810405B68184710BD38B58A
:10288C00054608460C4602F00AFE2146024628463A
:10289C00BDE83840FFF781BF70B5044608460D46C9
:1028AC0002F0FDFD2368024629462046BDE8704033
:1028BC00DB68184707B503688DF807100122DB6841
:1028CC000DF10701984703B05DF804FB0EB403B596
:1028DC0003AB53F8042B0021006A019301F013F8A9
:1028EC0002B05DF804EB03B0704700002DE9F74F20
:1028FC004FF01408D0E9009517464C4608FB05F537
:10290C000093AB10174D5D43002D23DD6E1008FBBB
:10291C0006F004EB000ABAF804B03A465F4528BF4B
:10292C005A462058019102F0C2FD0123019978B951
:10293C005F4503D1009A13703546E5E78CBF012043
:10294C0000200028F8D0AE1B0AF11404013EF3E776
:10295C00C00FF6E7A4EB09040248A410604303B0CF
:10296C00BDE8F08FCDCCCCCC7FB50369067E019150
:10297C0003B3F9B1002500F10C04039503A901A8D8
:10298C00FFF729FF0146A8B10DF10B032046039A6E
:10299C008DF80B50FFF7AAFF9DF80B3053B11423A1
:1029AC00246803FB0044B4F906300834002BA8BF9C
:1029BC00DEB2E3E7304604B070BD000010B5094C40
:1029CC002378BFF35B8FDB0709D42046FDF776FB3A
:1029DC0028B12046FDF777FB034802F0AFFC034813
:1029EC0010BD00BFC8010020DB2708088C000020A8
:1029FC0010B5094C2378BFF35B8FDB0709D4204655
:102A0C00FDF75CFB28B12046FDF75DFB034802F0A7
:102A1C0095FC034810BD00BFCC0100203F280808DE
:102A2C009000002038B500250446C0E90055C0E9E7
:102A3C0004558560856140F8245FFEF79BFCFFF729
:102A4C00BDFFE061FFF7D4FF25732062204638BD3F
:102A5C0010B50A4C2378BFF35B8FDB070CD42046F0
:102A6C00FDF72CFB40B10648FFF7DCFF2046FDF7D5
:102A7C002AFB044802F062FC014810BDC40100208E
:102A8C00D4010020592F08080023024A02490348A8
:102A9C00FEF718BEE52D0808712D0808F12C080862
:102AAC0000231A4619461846FEF70CBE37B50446E5
:102ABC000D6951F8043B01A80093FFF77EF86A46B4
:102ACC0029462046FFF714FD01A8FDF7ABFD204673
:102ADC0003B030BD37B504468D6851F8043B01A8EE
:102AEC000093FFF76AF86A4629462046FFF77CFDFB
:102AFC0001A8FDF797FD204603B030BD37B504465D
:102B0C00CD6851F8043B01A80093FFF756F86A46CC
:102B1C0029462046FFF744FD01A8FDF783FD20461A
:102B2C0003B030BD70B58AB00D46014604A8FFF75E
:102B3C00D1FF144E04A8FFF76FFDE8B1684604A955
:102B4C00FFF7DCFF31460298FFF76CFE044610B12C
:102B5C002C1E18BF012401A8FDF764FD002CE9D040
:102B6C00684604A9FFF7A2FF6846FFF7F8FC286047
:102B7C0001A8FDF757FDDDE705A8FDF753FD0AB0E9
:102B8C0070BD00BF485B080837B50C461949204694
:102B9C00154602F057FC48B901F028FA4FF41651CB
:102BAC0001F006FA01F022FA03B030BD20461249BA
:102BBC0002F048FC40B901F053FA4FF4165101F001
:102BCC00F7F901F04DFAEFE720460C4902F03AFC18
:102BDC0070B94FF4165301A928460193FFF7A2FFD1
:102BEC0001F070F9019901F067F901F06BF9DBE77D
:102BFC000020D9E74D5B0808545B0808575B0808B0
:102C0C0070B51426D0E90053044606FB0356AE42B9
:102C1C0005D005F10800FFF7F3FF1435F7E720683E
:102C2C00FEF786FE204670BD70B50446D0E9005311
:102C3C0005EB0316AE4204D0284600F0AAFE103570
:102C4C00F8E72068FEF774FE204670BD10B5044608
:102C5C000C30FFF7D5FF2046FFF7E6FF204610BDEE
:102C6C0010B50446034B40F8043BFFF7EFFF20463A
:102C7C0010BD00BF805A080810B50446FFF7F0FFDE
:102C8C002046242101F0BEFB204610BD10B50446A1
:102C9C00024B0360FFF7E4FF204610BDF45B08080D
:102CAC0010B50446FFF7F2FF2046242101F0AAFBE1
:102CBC00204610BD0022C0E90022826010B50C68CD
:102CCC000A6004604C684A6044608C688A60846066
:102CDC0010BD10B5044603681868FEF763FB204668
:102CEC0010BD00002DE9F04F87B003931C4B8046BC
:102CFC005B688946C3F3080316466BB9FFF7A8FE59
:102D0C00044600F12403406A0593FEF743FB237B42
:102D1C002BB105A8FFF7DDFF07B0BDE8F08F01234D
:102D2C005FFA89F92373D4E9005305EB830AAA45AA
:102D3C0012D055F8047B3146381DFFF715FE81453E
:102D4C00F5D3039A3B680092D3F808B04A46334651
:102D5C0041463846D847EAE700232373D9E700BF3A
:102D6C0000ED00E02DE9F74F9B461A4B80465B685F
:102D7C008946C3F3080316466BB9FFF769FE044690
:102D8C0000F12403406A0193FEF704FB237B2BB173
:102D9C0001A8FFF79EFF03B0BDE8F08F0123F6B248
:102DAC002373D4E9005305EB830A55450ED055F82F
:102DBC00047B5946381DFFF7D7FD8642F5D33B6897
:102DCC004A4641463846DB689847EEE700232373B2
:102DDC00DEE700BF00ED00E02DE9F341164B0546A0
:102DEC005B680F46C3F308031BBBFFF731FE0446B9
:102DFC0000F12403406A0193FEF7CCFAD4E9006396
:102E0C00462406EB8308B04509D101A8FFF761FF02
:102E1C00A542B4BF0020012002B0BDE8F08156F8F5
:102E2C00040B39460430FFF79FFD8442A8BF0446CB
:102E3C00E9E70020F0E700BF00ED00E00B4670B5BD
:102E4C00044605C800EB8202824207D001461D6889
:102E5C0051F8046BAE4203D00846F5E7002070BD74
:102E6C00521A02F083FA63680120013B6360F6E7B3
:102E7C001FB5044600F12403406A01910393FEF749
:102E8C0089FA204601A9FFF7D9FF18B163680BB97D
:102E9C00FFF706FE03A8FFF71CFF04B010BD1823B4
:102EAC0070B50446D0E9045603FB0656AE4215D065
:102EBC00204605F11001FFF7C1FF63680BB9FFF75E
:102ECC00EFFDE06929690368DB689847696919B106
:102EDC00206A0368DB6898471835E7E71826D4E9B9
:102EEC00045306FB0356AE4204D0284600F051FDB5
:102EFC001835F8E70023636170BD73B50446FFF71E
:102F0C00CFFD04F12403606A0193FEF743FA2046D7
:102F1C00FFF7C5FF01A8FFF7DCFE606A08B1FEF7FA
:102F2C0031FAD4E90453182606FB0356AE4204D0FA
:102F3C00284600F02EFD1835F8E72069FEF7F8FC5E
:102F4C002068FEF7F5FC204602B070BD0148FFF783
:102F5C00D4BF00BFD40100208842F8B506460C4609
:102F6C00154627D9904226D20026A2F114056C1AD8
:102F7C00A1F114070444AF423DD0A4B12B682360E7
:102F8C00AB88A380B5F90630C4E902662661E380FC
:102F9C00AB68A360AE60E368EA68E260EB6023694B
:102FAC002A6922612B6105F10800FFF729FE143D07
:102FBC00143CE0E71FD00027AC421CD0A6B123681C
:102FCC003360A388B380B4F90630C6E90277376161
:102FDC00F380A368B360A760F368E268F260E36013
:102FEC00336922693261236104F10800FFF708FE9E
:102FFC0014341436E0E7F8BDF8B5D0E901539D421E
:10300C0004460E4617460DDB0135002D006804DD25
:10301C00A900FEF795FC18B9F8BDFEF789FC002055
:10302C002060A5602568626805EB86019200A2EB22
:10303C008602081D02F09AF945F826706368012093
:10304C0001336360E8E737B5044600F12403406AB6
:10305C000D460193FEF79EF9D4E9003103EB810094
:10306C0083421A460AD012680433AA42F8D101A846
:10307C00FFF72FFE0025284603B030BD2A46204618
:10308C00FFF7BAFF05460028F1D06368012B01D188
:10309C00FFF7FAFC01A8FFF71CFEECE78842F8B535
:1030AC0004460D46164614D9904213D2A2F11006CE
:1030BC00751AA1F110072C44B74218D01CB1314637
:1030CC00204600F0E0FC304600F063FC103E103C63
:1030DC00F2E70CD0B5420AD01CB12946204600F0CC
:1030EC00D2FC284600F055FC10351034F2E7F8BD40
:1030FC0070B50E1E054611DD3001FEF711FC0446BD
:10310C0058B1D5E9001201EB0212FFF7C7FF28688E
:10311C00FEF70EFC01202C60AE6070BD0024F6E7BB
:10312C002DE9F04F91460023462297B00391D9F830
:10313C00041004469942C0E90033C0E90233C0E9E7
:10314C000433CDE90A3302760C9323DCD9E900571A
:10315C00142303FB0757AF423BD029460DA800F0C0
:10316C0092FC0DA911A80B9E00F08DFCDDE90B1350
:10317C0099421BDA0A9B0B9A03EB0616314603EBBA
:10318C00021206F11000FFF789FFEEB90B9B013319
:10319C000B9311E00AA8FFF7ABFF0028D6D10AA8C1
:1031AC00FFF742FD204617B0BDE8F08F01310AA8A9
:1031BC00FFF79EFF0028DDD111A800F0EAFB0DA857
:1031CC0000F0E7FB1435C6E7304611A900F05BFCB4
:1031DC00DCE700264FF0140A3746CDE90D660F9652
:1031EC00DDE90A239E4280F297803301D35808937D
:1031FC000BB90136F4E70AFB06F3099702930DAD00
:10320C0009A908A8FFF7E7FA83460028F1D0014680
:10321C00099A28460DF11F038DF81F70FFF766FB06
:10322C009DF81F800190B8F1000F66D1BDF82430D5
:10323C00CDE91388ADF848304FF6FF73CDF844B0A4
:10324C00ADF84A30CDF85480D5E9013293421ADBFF
:10325C0003F1010BBBF1000F4ADD0AFB0BF0FEF78B
:10326C005FFB0490002845D0D5E900120AFB02123E
:10327C00FFF772FE049B28680493FEF759FB049B2E
:10328C00C5F808B02B60019BD5F800B00AFB03F31E
:10329C006A680BEB030101F114000AFB02B2049102
:1032AC000593FFF759FE0499A9B1119A059B4BF8A8
:1032BC000320BDF848308B80BDF94A30C1E9027754
:1032CC000F61CB80139B8B60149B1397CB60159B6A
:1032DC0014970B6115976B6801336B6013A8FFF79C
:1032EC008FFCB8F1000F08D00DA8FFF789FC56E74A
:1032FC004346C0E74FF00108F0E7019B2D680AFB3D
:10330C000355089B1B782BB9D9F80030029A13444B
:10331C001B7CEB80083573E7216822606268636070
:10332C00A3680B920C9A0C93E368A2600D9A0D9310
:10333C002369E2600E9A0E93636922610F9A0F93D0
:10334C00039B0A9162612376CEE700007FB50546A8
:10335C000E460446084B114645F8043B01A8FDF700
:10336C0057FF314601AA2846FFF7DAFE01A8FDF700
:10337C0091FD204604B070BD805A0808F0B50F4688
:10338C0087B03846254916461D460C9C02F05AF863
:10339C0000BBE4B129466846FFF78CFC2420204989
:1033AC0001F032F8054670B1694603A8FDF730FF0D
:1033BC00314603AA2846FFF7C9FF03A8FDF76AFDAB
:1033CC00184B2C622B606846FDF764FD2C4620469A
:1033DC0007B0F0BD3846144902F034F8E0B9002CBF
:1033EC00F5D029466846FFF765FC24200C4901F00E
:1033FC000BF805460028E6D0694603A8FDF708FF40
:10340C00314603AA2846FFF7A1FF03A8FDF742FDAA
:10341C00064B2C622B60D6E70024D8E75F5B0808CC
:10342C00EC5C0808F45B0808635B0808DC5B0808C4
:10343C00014B024A1A607047D0010020745B0808E7
:10344C002DE9F047089DD0F8209004460E4617460B
:10345C00984600F0CBFD81454DD02B79190704D54A
:10346C0020466A695449FFF731FAB8F1000F0DD0C4
:10347C005B212046FFF71EFA41462046FFF70CFA67
:10348C00236802222046DB684C4998472B79DA07DF
:10349C0024D5D5F808802F21404602F02DF808B12C
:1034AC0000F1010841462046FFF7F6F92B799B07FE
:1034BC0008D53A212046FFF7FDF92046EA68404935
:1034CC00FFF704FA2A79236812F0040F20464FF014
:1034DC000202DB6814BF3B493B4998472B795807DC
:1034EC001DD529690B461A4613F8010B60B120282B
:1034FC0008D11946F7E7354800F067F90028ACD039
:10350C00BDE8F0872828EED12368521A2046DB68E4
:10351C009847236804222046DB682D4998470021F0
:10352C003846FEF7C7F801462046FFF7B5F9236881
:10353C0002222046DB68244998471EB131462046BA
:10354C00FFF7AAF92B7913F0300F2CD023682149FF
:10355C00DB680222204698472B79D9060AD52368C6
:10356C00072220461C49DB6898472046AA691B495C
:10357C00FFF7ACF92B799A0611D5DB0605D5236834
:10358C0002222046DB680F499847236820461449DD
:10359C000A22DB6898472046E969FFF77DF95D212F
:1035AC002046FFF787F923682046BDE8F047022242
:1035BC00DB680C49184700BF785B08087F5B08087C
:1035CC003C5B0808825B0808875B0808FC0100204C
:1035DC00855B08088A5B08088D5B08087559080824
:1035EC00955B0808A05B08082DE9F04385B0D0F87E
:1035FC00209005460F4690461E460C9C00F0F6FCAB
:10360C00814505D1494800F0E0F8002840F08A8057
:10361C004FF000092B6A464A01A8019203938DF8DA
:10362C000890FFF722F849464046FEF743F88046DB
:10363C004049012201A8FFF7A1F84146FFF71FF905
:10364C003FB13D49012201A8FFF798F83946FFF731
:10365C0016F93EB13949012201A8FFF78FF831461E
:10366C00FFF70DF92379DF070ED5A6682F21304619
:10367C0001F042FF00B1461C3149012201A8FFF7BD
:10368C007DF83146FFF7FBF823799E0707D52D49C6
:10369C00022201A8FFF772F8E168FEF7F3FF237925
:1036AC00580714D5266933461F4613F8012B2AB147
:1036BC00202A01D11E46F7E7282AF5D102222249F9
:1036CC0001A8FFF75BF83146BA1BFFF766F82379C0
:1036DC00190707D51D49012201A8FFF74FF86169A9
:1036EC00FEF7E2FF2379DA0608D5042218490DEB20
:1036FC000200FFF743F8A169FEF7C4FF23799B068C
:10370C0007D51449062201A8FFF738F8E169FFF73D
:10371C00B6F801A8FEF793FF286A022203680E4947
:10372C00DB68984705B0BDE8F08300BFFC010020C2
:10373C00C45B0808525B08086C570808A35B0808B0
:10374C00A55B0808A75B0808AA5B08087C57080853
:10375C00AD5B0808B25B0808A05B08080023406852
:10376C001A46FEF77DB8002202214068FEF788B8A1
:10377C00002240681146FEF77BB8002240681146D3
:10378C00FEF786B8002340681A461946FEF788B83B
:10379C00002340681A461946FEF78AB80021406893
:1037AC00FEF7AEB800214068FEF7B2B800224068C0
:1037BC0081F00101FEF784B800224068FEF790B852
:1037CC00002240681146FEF793B80022406811466B
:1037DC00FEF77EB870B51546002686B0044604A8E0
:1037EC00FEF7D4FD2846039601F059FE0A4B0096CD
:1037FC0081B25B68284603AAFDF7B4FD30B13146AF
:10380C002046FEF7D3FD204606B070BD204603A926
:10381C00FEF7C4FDF7E700BF94010020024B034AFA
:10382C001A6000225A607047FC0100203C5C0808BA
:10383C0008B500F0B5FDBDE80840FEF747BD10B572
:10384C000446017009B1FFF7F3FF204610BDF8B52F
:10385C0006460D4600248F18BD420CD03368304606
:10386C009B6815F8011B9847031E01DB1C44F3E70A
:10387C00002C08BF1C462046F8BD70B505460C460A
:10388C00084649B101F00BFE2B680246214628463A
:10389C00BDE87040DB68184770BD03689B6818472B
:1038AC0038B50D210546FFF7F8FF0A2104462846D6
:1038BC00FFF7F3FF204438BD38B50546FFF7DDFFB1
:1038CC0004462846FFF7ECFF204438BD0023012AAC
:1038DC0098BF0A2230B58BB00C468DF8243009A95C
:1038EC002546B4FBF2F404FB1253DBB2092B94BF54
:1038FC0030333733DBB2AA4201F8013DF0D9FFF780
:10390C00BCFF0BB030BD2DE9F04186B000AF0546D1
:10391C000E46381D142114463B60FEF729F8132877
:10392C000ED82846391DFFF7A8FF04461EB12846BD
:10393C00FFF7B6FF044420461837BD46BDE8F081BA
:10394C0000F1080323F00703E846ADEB030D224614
:10395C00411C3B686846FEF70BF869462846FFF7A2
:10396C008CFF0446C546E1E70022014B9A60704784
:10397C000402002070B5002604460D4640F8086F7E
:10398C00FDF7F8FC28462570FDF7E4FD204666603F
:10399C0070BD10B504460068FDF7CAFF204610BD87
:1039AC0010B50446006808B1FDF7C2FF0023C4E956
:1039BC000133236010BD38B504460D460068013153
:1039CC00FDF7BEFF10B1C4E90005012038BD10B5EC
:1039DC000368044623B143688B4201D3012010BD18
:1039EC002046FFF7E8FF0028F9D0A368002BF5D19B
:1039FC0022681370F2E770B50E4611460446154660
:103A0C00FFF7E5FF20B92046FFF7CAFF204670BD3F
:103A1C002A4631462068A56001F09AFC00212268F4
:103A2C00A368D154F2E738B5002304460D46C0E92B
:103A3C0000338360037339B1084601F030FD294629
:103A4C0002462046FFF7D7FF204638BD38B505465D
:103A5C0000680C4668B16A688B689A4207D309689B
:103A6C0001F0FAFCA368AB600023A36038BDFDF73E
:103A7C005FFF23682B6063686B60A368AB600023F7
:103A8C00C4E90033F1E7002310B50446C0E9003364
:103A9C0083600373FFF7DAFF204610BD884210B530
:103AAC000B46044604D0096821B19A68FFF7A3FFBE
:103ABC00204610BDFFF774FFFAE7002310B504464B
:103ACC00C0E9003383600373FFF7E8FF204610BDA5
:103ADC0008B582683AB921B10878B0FA80F040098B
:103AEC0000E0012008BD006809B90078F5E701F095
:103AFC00A9FCF2E758B50E462AB121B18468A3425D
:103B0C0002D300230B7058BDE41A013A944228BF2B
:103B1C001446016822461944304601F0DAFC0023B1
:103B2C003355F0E710B50446006818B1FDF700FFF7
:103B3C000023236010BD38B5B1F904300D468380E5
:103B4C000B4653F8062F0446C0F806209B88438189
:103B5C00FFF7E8FF2B6813B1236000232B6020468E
:103B6C0038BDB1F9043010B50A6833B932B951F81F
:103B7C00063F03608B88838010BD22B19488012C92
:103B8C0003D0042C06D0042205E092898C710B81A1
:103B9C004A81ECE702220B814FF6FF738A714B814D
:103BAC00E5E707B50B4600210246009101208C2168
:103BBC00FDF7E4FD03B05DF804FB01460020FFF7C0
:103BCC00F0BF0020FFF7F9BF30B5044685B00846BA
:103BDC0011461A460023FDF795FD00230193ADF81D
:103BEC0008308DF80A304FF6FF73094D01A9ADF876
:103BFC000C002846ADF80E30FFF79DFF01A8FFF72B
:103C0C0091FF20462946FFF7ACFF204605B030BD9A
:103C1C001402002002220020044B1A60044B054AB7
:103C2C001860988098719A60FDF75CBD20020020A6
:103C3C00140200200000FFFF2DE9F041154ADFF8C7
:103C4C006080D2E90032C01842EB0101124A8CB0FC
:103C5C00D2E90032C61841EB0207D8E90023BB4277
:103C6C0008BFB24213D003A96846CDE90067FCF740
:103C7C00CFF9089B094D03F26C7303AC08930FCC7E
:103C8C000FC50FCC0FC5C8E9006723682B600CB0BB
:103C9C00BDE8F081580200205002002028020020CC
:103CAC006002002008B50020FDF7BAFD28B1FDF731
:103CBC008FFD80F00100C0B208BD0120FCE70000C0
:103CCC0010B50A49044601F091FA68B92046084932
:103CDC0001F0AAFA40B90749204601F0E9F801F0D1
:103CEC00D3FA054BC3E9000110BD00BF000040C171
:103CFC0000006041000061455802002030B50446C8
:103D0C00184893B0D0E90010521840EB0303164842
:103D1C000025D0E90010521840EB0303CDE9002335
:103D2C00242200210DEB020001F03AFB09A96846A0
:103D3C00FCF76EF91622294603A8029501F030FB18
:103D4C0002A909A801F0D4FA02A801F0A8FB12AB51
:103D5C00184400F8415C02A92046FFF764FE204697
:103D6C0013B030BD580200205002002010B50020C6
:103D7C00FDF748FB0446A0B9FDF7ACFC012810D1B7
:103D8C002046FDF7DFFC60B9FFF78CFF10B9FDF79B
:103D9C000FFDF9E7FFF786FFBDE810400020FDF7A7
:103DAC0031BB204610BD1FB5FFF7E0FF10220021EC
:103DBC00684601F0F5FA00216846FDF733FB0098E0
:103DCC0005B05DF804FB000008B5FFF7ECFFC11768
:103DDC00FFF732FF014B986808BD00BF2802002096
:103DEC0008B5FFF7E0FFC117FFF726FF014B586836
:103DFC0008BD00BF28020020024B1A68024B1A6053
:103E0C00704700BF940000202402002070474174CA
:103E1C007047704708B5007CFDF7ECFB20EAE070BA
:103E2C0008BD08B5007CFDF7BDFB20EAE07008BDBD
:103E3C0008B5007CFDF7C6FB40EAE07008BD08B58C
:103E4C00007CFDF7B7FB40EAE07008BD007CFDF795
:103E5C00C1BB70B5467C04460D462EB12946207C6C
:103E6C00BDE87040FDF796BB007CFDF7C3FB002856
:103E7C00F4DC304670BD10B50446142100F0C2FAD3
:103E8C00204610BD4FF0000C10B5044608461146F4
:103E9C004FF47A72C4E901C2044A207422600122F0
:103EAC0062741A46FDF766FB204610BD945C080848
:103EBC000023007CFDF7A6BB0022FFF7F9BF007CB6
:103ECC00FDF760BB38B50C4D2978BFF35B8F11F053
:103EDC0001040FD12846FCF7F1F858B12146074BE5
:103EEC00074A0848FFF7CEFF2846FCF7ECF80648CF
:103EFC0001F024FA034838BD68020020F0020020CB
:103F0C006C020020740300201F3E080841747047A7
:103F1C007047704708B50021007CFDF7A3FB40EA11
:103F2C00E07008BD08B50121007CFDF79BFB40EA61
:103F3C00E07008BD08B5007CFDF78CFB20EAE07052
:103F4C0008BD08B5007CFDF77DFB20EAE07008BDDC
:103F5C0038B50446007C0D46FDF77CFB002801DCDF
:103F6C00607C28B12946207CFDF784FB20EAE070B8
:103F7C0038BD007CFDF786BB10B50446142100F05B
:103F8C0041FA204610BD704710B54FF47A730446C1
:103F9C0008460021C4E90113044B2074236001235B
:103FAC0011466374FDF736FB204610BDC45C08084F
:103FBC000022007CFDF736BB007CFDF73BBB00000C
:103FCC0010B504461422002101F0EAF9054B2046F5
:103FDC006360054BE36040F201132381812323824C
:103FEC0010BD00BFB8030020B904002030B50E4D41
:103FFC0087B001A8FFF7E4FF2978BFF35B8F11F0BE
:10400C0001040ED12846FCF759F850B1214601AAFB
:10401C000648FFF7B9FF2846FCF755F8044801F0AD
:10402C008DF9024807B030BD8803002090030020B2
:10403C001D3F080810B504461422002101F0B0F908
:10404C00054B20466360054BE36040F2011323816E
:10405C008123238210BD00BF3A0500203B060020BF
:10406C0010B50E4C86B001A8FFF7E4FF2378BFF320
:10407C005B8FDB070ED42046FCF720F850B10121F2
:10408C0001AA0748FFF780FF2046FCF71CF80548FB
:10409C0001F054F9024806B010BD00BF8C0300209B
:1040AC00A4030020933F0808014B1860704700BF21
:1040BC009800002008B5174B43B1FFF797FF036832
:1040CC001B699847002801DDAFF30080124B43B108
:1040DC00FFF7F8FE03681B699847002801DDAFF372
:1040EC0000800E4B0BB1AFF300800D4B0BB1AFF357
:1040FC0000800C4B0BB1AFF300800B4B43B1FFF7BF
:10410C00AFFF03681B699847002801DDAFF30080FF
:10411C0008BD00BF0000000000000000000000000F
:10412C0000000000000000000000000008B5FFF7D0
:10413C00C1FFFDF75FF9014B186008BDD4060020E4
:10414C000548064A08B5121A054901F001F9054B54
:10415C00054A1A6008BD00BF0040024018400240EA
:10416C00705E0808144002401E1C279A002307B5F5
:10417C001A466FF077010093FDF7F6FA03B05DF87D
:10418C0004FB000007B543880A2B08D0502B0BD139
:10419C00094B1B684BB103B05DF804EB1847FFF7F4
:1041AC00E5FF03B05DF804FB00231A466FF07701BE
:1041BC000093FDF7D9FAF4E7C0060020002110B5F2
:1041CC001148FDF7EDFB114B1A68114B9A420CBFCD
:1041DC00012200220F4B1A7001D0FFF7B1FFFDF73F
:1041EC00F9F8044601F0E4F80B4B13B12046AFF399
:1041FC00008000210848FDF723FBBDE8104000219A
:10420C000648FDF7A7BA00BFB540080814400240A5
:10421C001E1C279ABC0600200000000091410808D3
:10422C00024B986808B1FDF7ADB87047C80600207E
:10423C002E2870B5044601D9002070BDA0F10D03E5
:10424C00022B0BD9012824D800F086F80021007C21
:10425C00FDF758F980F00100C0B2EEE7124E31784C
:10426C00BFF35B8F11F001050DD13046FBF726FF34
:10427C0048B129460D48FFF77DFB3046FBF723FF7D
:10428C000B4801F05BF8094B1878FDF76BF9002827
:10429C00D2D1123C012C05D8FFF714FE007CFDF79F
:1042AC00A1F9D7E70120C8E7C4060020C806002002
:1042BC002D4208082E2838B504460D460AD8FF2989
:1042CC0008D0FFF7B5FF28B129462046BDE8384095
:1042DC00FDF7B0B838BD38B504460D46FDF7B2F859
:1042EC00FF2810D0062804D84D2323FA00F0C3076A
:1042FC0009D42046FFF79CFF28B129462046BDE88B
:10430C003840FDF7A7B838BD70470000002370B5E2
:10431C00202543801423084E0446038031468560D3
:10432C000561284600F072F831466060284600F0BE
:10433C006DF8E060204670BDEC5C0808704710B565
:10434C000446FFF7E3FF204610BD10B50446FFF707
:10435C00DDFF204610BD000030B50E4D87B029782A
:10436C00BFF35B8F11F0010411D12846FBF7A6FEB9
:10437C0068B101A8FFF7E3FF214601AA0648FDF743
:10438C003BFF2846FBF79FFE044800F0D7FF02488E
:10439C0007B030BDD8060020E00600201543080801
:1043AC0010B50E4C86B02378BFF35B8FDB0711D4AE
:1043BC002046FBF783FE68B101A8FFF7C6FF022178
:1043CC0001AA0748FDF718FF2046FBF77CFE0548BD
:1043DC0000F0B4FF024806B010BD00BFDC060020A0
:1043EC00F406002049430808002307B51A4619466D
:1043FC0000930348FDF7ECFF03B05DF804FB00BF2E
:10440C0008070020FBF74DBEFBF747BEFBF747BE86
:10441C0008B5FDF7B5FA000081F0004102E000BFDD
:10442C0083F0004330B54FEA41044FEA430594EA68
:10443C00050F08BF90EA020F1FBF54EA000C55EAA3
:10444C00020C7FEA645C7FEA655C00F0E2804FEA74
:10445C005454D4EB5555B8BF6D420CDD2C4480EA56
:10446C00020281EA030382EA000083EA010180EA86
:10447C00020281EA0303362D88BF30BD11F0004FD4
:10448C004FEA01314FF4801C4CEA113102D040420A
:10449C0061EB410113F0004F4FEA03334CEA133345
:1044AC0002D0524263EB430394EA050F00F0A7805D
:1044BC00A4F10104D5F1200E0DDB02FA0EFC22FA58
:1044CC0005F2801841F1000103FA0EF2801843FA4C
:1044DC0005F359410EE0A5F120050EF1200E012A3D
:1044EC0003FA0EFC28BF4CF0020C43FA05F3C0187B
:1044FC0051EBE37101F0004507D54FF0000EDCF1F4
:10450C00000C7EEB00006EEB0101B1F5801F1BD39C
:10451C00B1F5001F0CD349085FEA30004FEA3C0CA0
:10452C0004F101044FEA445212F5800F80F09A8096
:10453C00BCF1004F08BF5FEA500C50F1000041EB9A
:10454C00045141EA050130BD5FEA4C0C404141EB9E
:10455C000101013C28BFB1F5801FE9D291F0000F99
:10456C0004BF01460020B1FA81F308BF2033A3F148
:10457C000B03B3F120020CDA0C3208DD02F1140C3F
:10458C00C2F10C0201FA0CF021FA02F10CE002F17A
:10459C001402D8BFC2F1200C01FA02F120FA0CFC73
:1045AC00DCBF41EA0C019040E41AA2BF01EB0451BC
:1045BC00294330BD6FEA04041F3C1CDA0C340EDCBA
:1045CC0004F11404C4F1200220FA04F001FA02F3FD
:1045DC0040EA030021FA04F345EA030130BDC4F1BB
:1045EC000C04C4F1200220FA02F001FA04F340EAB0
:1045FC000300294630BD21FA04F0294630BD94F061
:10460C00000F83F4801306BF81F480110134013D47
:10461C004EE77FEA645C18BF7FEA655C29D094EAB8
:10462C00050F08BF90EA020F05D054EA000C04BF36
:10463C001946104630BD91EA030F1EBF0021002021
:10464C0030BD5FEA545C05D14000494128BF41F0C0
:10465C00004130BD14F580043CBF01F5801130BD24
:10466C0001F0004545F0FE4141F470014FF00000AF
:10467C0030BD7FEA645C1ABF194610467FEA655C60
:10468C001CBF0B46024650EA013406BF52EA033502
:10469C0091EA030F41F4002130BD00BF90F0000FF0
:1046AC0004BF0021704730B54FF4806404F132042C
:1046BC004FF000054FF0000150E700BF90F0000FE5
:1046CC0004BF0021704730B54FF4806404F132040C
:1046DC0010F0004548BF40424FF000013EE700BFDC
:1046EC0042004FEAE2014FEA31014FEA02701FBF6C
:1046FC0012F07F4393F07F4F81F06051704732F09E
:10470C007F4208BF704793F07F4F04BF41F40021F4
:10471C00704730B54FF4607401F0004521F0004152
:10472C001CE700BF50EA010208BF704730B54FF0DC
:10473C0000050AE050EA010208BF704730B511F0DD
:10474C00004502D5404261EB41014FF4806404F115
:10475C0032045FEA915C3FF4D8AE4FF003025FEA9B
:10476C00DC0C18BF03325FEADC0C18BF033202EB1F
:10477C00DC02C2F1200300FA03FC20FA02F001FA79
:10478C0003FE40EA0E0021FA02F11444BDE600BF1C
:10479C0070B54FF0FF0C4CF4E06C1CEA11541DBFCB
:1047AC001CEA135594EA0C0F95EA0C0F00F0DEF896
:1047BC002C4481EA030621EA4C5123EA4C5350EA7B
:1047CC00013518BF52EA033541F4801143F48013CC
:1047DC0038D0A0FB02CE4FF00005E1FB02E506F05D
:1047EC000042E0FB03E54FF00006E1FB03569CF0B2
:1047FC00000F18BF4EF0010EA4F1FF04B6F5007FB8
:10480C0064F5407404D25FEA4E0E6D4146EB060629
:10481C0042EAC62141EA55514FEAC52040EA5E50B2
:10482C004FEACE2EB4F1FD0C88BFBCF5E06F1ED85C
:10483C00BEF1004F08BF5FEA500E50F1000041EB93
:10484C00045170BD06F0004646EA010140EA020040
:10485C0081EA0301B4EB5C04C2BFD4EB0C0541EA62
:10486C00045170BD41F480114FF0000E013C00F377
:10487C00AB8014F1360FDEBF002001F0004170BD9B
:10488C00C4F10004203C35DA0C341BDC04F11404B4
:10489C00C4F1200500FA05F320FA04F001FA05F240
:1048AC0040EA020001F0004221F0004110EBD3700D
:1048BC0021FA04F642EB06015EEA430E08BF20EA39
:1048CC00D37070BDC4F10C04C4F1200500FA04F3DC
:1048DC0020FA05F001FA04F240EA020001F000416E
:1048EC0010EBD37041F100015EEA430E08BF20EAE1
:1048FC00D37070BDC4F1200500FA05F24EEA020E29
:10490C0020FA04F301FA05F243EA020321FA04F057
:10491C0001F0004121FA04F220EA020000EBD3700E
:10492C005EEA430E08BF20EAD37070BD94F0000F0E
:10493C000FD101F00046400041EB010111F4801F42
:10494C0008BF013CF7D041EA060195F0000F18BFF3
:10495C00704703F00046520043EB030313F4801F2F
:10496C0008BF013DF7D043EA0603704794EA0C0FE9
:10497C000CEA135518BF95EA0C0F0CD050EA4106FF
:10498C0018BF52EA4306D1D181EA030101F000417C
:10499C004FF0000070BD50EA410606BF10461946A4
:1049AC0052EA430619D094EA0C0F02D150EA0136B0
:1049BC0013D195EA0C0F05D152EA03361CBF1046F1
:1049CC0019460AD181EA030101F0004141F0FE4190
:1049DC0041F470014FF0000070BD41F0FE4141F414
:1049EC00780170BD70B54FF0FF0C4CF4E06C1CEA14
:1049FC0011541DBF1CEA135594EA0C0F95EA0C0FC9
:104A0C0000F0A7F8A4EB050481EA030E52EA033583
:104A1C004FEA013100F088804FEA03334FF08055A4
:104A2C0045EA131343EA12634FEA022245EA1115D1
:104A3C0045EA10654FEA00260EF000419D4208BF82
:104A4C00964244F1FD0404F5407402D25B084FEA2F
:104A5C003202B61A65EB03055B084FEA32024FF4DB
:104A6C0080104FF4002CB6EB020E75EB030E22BF38
:104A7C00B61A754640EA0C005B084FEA3202B6EBF8
:104A8C00020E75EB030E22BFB61A754640EA5C00A7
:104A9C005B084FEA3202B6EB020E75EB030E22BF37
:104AAC00B61A754640EA9C005B084FEA3202B6EB38
:104ABC00020E75EB030E22BFB61A754640EADC00F7
:104ACC0055EA060E18D04FEA051545EA16754FEA59
:104ADC0006164FEAC30343EA52734FEAC2025FEA77
:104AEC001C1CC0D111F4801F0BD141EA00014FF006
:104AFC0000004FF0004CB6E711F4801F04BF0143D7
:104B0C000020B4F1FD0C88BFBCF5E06F3FF6AFAEF2
:104B1C00B5EB030C04BFB6EB020C5FEA500C50F182
:104B2C00000041EB045170BD0EF0004E4EEA113105
:104B3C0014EB5C04C2BFD4EB0C0541EA045170BD0C
:104B4C0041F480114FF0000E013C90E645EA060E50
:104B5C008DE60CEA135594EA0C0F08BF95EA0C0F7E
:104B6C003FF43BAF94EA0C0F0AD150EA01347FF4C6
:104B7C0034AF95EA0C0F7FF425AF104619462CE79D
:104B8C0095EA0C0F06D152EA03353FF4FDAE104600
:104B9C00194622E750EA410618BF52EA43067FF451
:104BAC00C5AE50EA41047FF40DAF52EA43057FF4E1
:104BBC00EBAE12E74A0011D212F5001211D20DD54C
:104BCC006FF47873B3EB62520ED44FEAC12343F007
:104BDC00004343EA505323FA02F070474FF00000B1
:104BEC00704750EA013002D14FF0FF3070474FF060
:104BFC00000070474FEA4102B2F1E04324BFB3F525
:104C0C00001CDCF1FE5C0DD901F0004C4FEAC00237
:104C1C004CEA5070B2F1004F40EB830008BF20F01B
:104C2C000100704711F0804F21D113F13872BCBFD5
:104C3C0001F00040704741F480114FEA5252C2F12A
:104C4C001802C2F1200C10FA0CF320FA02F018BF73
:104C5C0040F001004FEAC1234FEAD32303FA0CFCC6
:104C6C0040EA0C0023FA02F34FEA4303CCE77FEA55
:104C7C00625307D150EA01331EBF4FF0FE4040F49F
:104C8C004000704701F0004040F0FE4040F400004E
:104C9C00704700BF80F0004002E000BF81F000418F
:104CAC0042001FBF5FEA410392EA030F7FEA226CC6
:104CBC007FEA236C6AD04FEA1262D2EB1363C1BF56
:104CCC00D218414048404140B8BF5B42192B88BFC5
:104CDC00704710F0004F40F4000020F07F4018BFE8
:104CEC00404211F0004F41F4000121F07F4118BF08
:104CFC00494292EA030F3FD0A2F1010241FA03FCB0
:104D0C0010EB0C00C3F1200301FA03F100F0004397
:104D1C0002D5494260EB4000B0F5000F13D3B0F15F
:104D2C00807F06D340084FEA310102F10102FE2ACE
:104D3C0051D2B1F1004F40EBC25008BF20F001003E
:104D4C0040EA03007047490040EB0000013A28BFDD
:104D5C00B0F5000FEDD2B0FA80FCACF1080CB2EB60
:104D6C000C0200FA0CF0AABF00EBC25052421843DE
:104D7C00BCBFD0401843704792F0000F81F4000183
:104D8C0006BF80F400000132013BB5E74FEA410356
:104D9C007FEA226C18BF7FEA236C21D092EA030FC2
:104DAC0004D092F0000F08BF0846704790EA010F3C
:104DBC001CBF0020704712F07F4F04D1400028BF69
:104DCC0040F00040704712F100723CBF00F500004B
:104DDC00704700F0004343F0FE4040F40000704781
:104DEC007FEA226216BF08467FEA2363014642022D
:104DFC0006BF5FEA412390EA010F40F48000704740
:104E0C004FF0000304E000BF10F0004348BF4042E5
:104E1C005FEA000C08BF704743F0964301464FF021
:104E2C0000001CE050EA010208BF70474FF000037D
:104E3C000AE000BF50EA010208BF704711F00043BE
:104E4C0002D5404261EB41015FEA010C02BF84468E
:104E5C000146002043F0B64308BFA3F18053A3F5ED
:104E6C000003BCFA8CF2083AA3EBC25310DB01FA34
:104E7C0002FC634400FA02FCC2F12002BCF1004FB8
:104E8C0020FA02F243EB020008BF20F00100704749
:104E9C0002F1200201FA02FCC2F1200250EA4C009D
:104EAC0021FA02F243EB020008BF20EADC707047E3
:104EBC004FF0FF0C1CEAD0521EBF1CEAD15392EAF1
:104ECC000C0F93EA0C0F6FD01A4480EA010C4002CD
:104EDC0018BF5FEA41211ED04FF0006343EA501027
:104EEC0043EA5111A0FB01310CF00040B1F5000F69
:104EFC003EBF490041EAD3715B0040EA010062F118
:104F0C007F02FD2A1DD8B3F1004F40EBC25008BF01
:104F1C0020F00100704790F0000F0CF0004C08BF1F
:104F2C0049024CEA502040EA51207F3AC2BFD2F1EC
:104F3C00FF0340EAC250704740F400004FF00003FA
:104F4C00013A5DDC12F1190FDCBF00F00040704734
:104F5C00C2F10002410021FA02F1C2F1200200FA72
:104F6C0002FC5FEA310040F1000053EA4C0308BF39
:104F7C0020EADC70704792F0000F00F0004C02BF8A
:104F8C00400010F4000F013AF9D040EA0C0093F005
:104F9C00000F01F0004C02BF490011F4000F013B5F
:104FAC00F9D041EA0C018FE70CEAD15392EA0C0FCD
:104FBC0018BF93EA0C0F0AD030F0004C18BF31F038
:104FCC00004CD8D180EA010000F00040704790F00E
:104FDC00000F17BF90F0004F084691F0000F91F0B2
:104FEC00004F14D092EA0C0F01D142020FD193EA78
:104FFC000C0F03D14B0218BF084608D180EA010000
:10500C0000F0004040F0FE4040F40000704740F0DB
:10501C00FE4040F4400070474FF0FF0C1CEAD052A9
:10502C001EBF1CEAD15392EA0C0F93EA0C0F69D005
:10503C00A2EB030280EA010C49024FEA402037D070
:10504C004FF0805343EA111143EA10130CF0004067
:10505C008B4238BF5B0042F17D024FF4000C8B4257
:10506C0024BF5B1A40EA0C00B3EB510F24BFA3EB37
:10507C00510340EA5C00B3EB910F24BFA3EB910307
:10508C0040EA9C00B3EBD10F24BFA3EBD10340EA61
:10509C00DC001B0118BF5FEA1C1CE0D1FD2A3FF6A7
:1050AC0050AF8B4240EBC25008BF20F0010070475C
:1050BC000CF0004C4CEA50207F32C2BFD2F1FF03FF
:1050CC0040EAC250704740F400004FF00003013A30
:1050DC0037E792F0000F00F0004C02BF400010F4D4
:1050EC00000F013AF9D040EA0C0093F0000F01F0E8
:1050FC00004C02BF490011F4000F013BF9D041EA0A
:10510C000C0195E70CEAD15392EA0C0F08D142023C
:10511C007FF47DAF93EA0C0F7FF470AF084676E70F
:10512C0093EA0C0F04D14B023FF44CAF08466EE7E8
:10513C0030F0004C18BF31F0004CCAD130F00042B6
:10514C007FF45CAF31F000437FF43CAF5FE700BF0E
:10515C004FF0FF3C06E000BF4FF0010C02E000BF37
:10516C004FF0010C4DF804CD4FEA40024FEA4103D9
:10517C007FEA226C18BF7FEA236C11D001B052EA8F
:10518C00530C18BF90EA010F58BFB2EB030088BF55
:10519C00C81738BF6FEAE17018BF40F001007047C4
:1051AC007FEA226C02D15FEA402C05D17FEA236CA6
:1051BC00E4D15FEA412CE1D05DF8040B704700BFED
:1051CC00844608466146FFE70FB5FFF7C9FF002884
:1051DC0048BF10F1000F0FBD4DF808EDFFF7F4FFBD
:1051EC000CBF012000205DF808FB00BF4DF808ED56
:1051FC00FFF7EAFF34BF012000205DF808FB00BF79
:10520C004DF808EDFFF7E0FF94BF012000205DF89A
:10521C0008FB00BF4DF808EDFFF7D2FF94BF01204B
:10522C0000205DF808FB00BF4DF808EDFFF7C8FF44
:10523C0034BF012000205DF808FB00BF4FEA40029C
:10524C00B2F1FE4F0FD34FF09E03B3EB12620DD9A8
:10525C004FEA002343F0004310F0004F23FA02F012
:10526C0018BF404270474FF00000704712F1610FB9
:10527C0001D1420205D110F0004008BF6FF0004090
:10528C0070474FF00000704710B500210446FFF73F
:10529C00ADFF20B92046BDE8104000F009B804F17C
:1052AC00004000F005F8404261EB410110BD00BF29
:1052BC00D0B5FFF715FA00220B4B06460F46FFF749
:1052CC0067FAFFF777FC0446FFF7E8F90022074B73
:1052DC00FFF75EFA02460B4630463946FFF7A0F858
:1052EC00FFF768FC2146D0BD0000F03D0000F04106
:1052FC0010B50C46416986B001F26C710369826984
:10530C000491016803EB43030391416802EB4202F1
:10531C00029181680191C1682046009104490B44B7
:10532C0004490A440449FCF713FB204606B010BD9F
:10533C00225D08080D5D0808ED5C08080023014695
:10534C001A46184600F070B90A22002100F062B922
:10535C000A44914200F1FF3300D1704710B511F8A7
:10536C00014B914203F8014FF9D110BD884210B5A1
:10537C0001EB020402D98442234607D8431EA14202
:10538C0008D011F8012B03F8012FF8E7014602446D
:10539C008A4200D110BD13F8014D02F8014DF7E718
:1053AC0003460244934200D1704703F8011BF9E70E
:1053BC0038B50D4B04461D68AB6B7BB91820FCF758
:1053CC00AFFA0A4A0A4BA863C0E90023094B012231
:1053DC0083600B2383810023C0E904230022AB6B81
:1053EC001C615A6138BD00BF980000200E33CDAB54
:1053FC0034126DE6ECDE0500024610B51478134647
:10540C000132002CFAD1013B11F8012B03F8012FCA
:10541C00002AF9D110BD0346C9B2184613F8012B66
:10542C0012B18A42F9D17047002918BF0020704789
:10543C0010B50446FFF7EFFF18B9204600F02FF81F
:10544C00204410BD10F8012B11F8013B012A28BF94
:10545C009A42F7D0D01A7047034611F8012B03F883
:10546C00012B002AF9D17047024B0146186800F055
:10547C0003B800BF9800002070B5044608460D46DE
:10548C0000F00DF8461C31462046FCF781FA044624
:10549C0018B132462946FFF75BFF204670BD034624
:1054AC0013F8012B002AFBD1181A0138704710B5DC
:1054BC006AB10139841810F8013B11F8012F93429D
:1054CC0003D1A04201D0002BF5D1981A10BD104683
:1054DC00FCE7034610B5013932B111F8014F013A1E
:1054EC0003F8014B002CF7D100211A44934200D150
:1054FC0010BD03F8011BF9E738B503460C4669B932
:10550C00BDE83840FFF787BF0546431C21461846C7
:10551C00FFF781FF0028F7D1284638BD0025F5E7B5
:10552C002DE9F0478C468646394E60461CF8014BF7
:10553C00A55D15F00805F8D12D2C33D14FF00108DD
:10554C009CF8004000F1020C002B5CD0102B0CD10D
:10555C00302C0AD19CF8000000F0DF0058284DD107
:10556C0010239CF801400CF1020C002608F10047B6
:10557C00013FB7FBF3F9304603FB197AA4F1300570
:10558C00092D18D82C46A34224DD751C07D0814563
:10559C001DD301D1A2451ADB012600FB03401CF8E8
:1055AC00014BEBE72B2C08BF9CF80040A84608BF2A
:1055BC0000F1020CC8E7A4F14105192D01D8373CC4
:1055CC00E1E7A4F16105192D04D8573CDBE74FF056
:1055DC00FF36E4E7731C06D122233846CEF80030A0
:1055EC0042B9BDE8F087B8F1000F00D04042002A64
:1055FC00F7D00EB10CF1FF311160F2E73024002B23
:10560C00B3D10823B1E7302CA4D00A23ADE700BFF7
:10561C00475D080813460A46014602480068FFF732
:10562C007FBF00BF980000202DE9F843DFF8BC8055
:10563C000646D8F800001F460D46914600F058F873
:10564C00264B1C6834B9264C1C60264B13B11B68C6
:10565C00C4F8883063681F2B07DDD8F8000000F011
:10566C0049F84FF0FF30BDE8F8835EB3D4F88800FA
:10567C0088B91D4B23B9D8F8000000F03AF8F0E7D0
:10568C004FF48470FCF74CF90028F4D00023C0E9E7
:10569C004033C4F8880001226368022E40F823903E
:1056AC0002FA03F200EB8301D0F8003143EA020363
:1056BC00C0F80031C1F8807002BFD0F804311A4331
:1056CC00C0F804216368D8F800005A1C02336260E9
:1056DC0044F8235000F00EF80020C4E79C0700208B
:1056EC0010070020000000002D190808FC00002005
:1056FC0070477047704700002D0008086D000808BF
:10570C00950008089900080800000000556E6B6EA3
:10571C006F776E004E6F6E65005769466900475390
:10572C004D00554D54530043444D41004C544500DD
:10573C0049454545383032313534004C54455F438A
:10574C0041545F4D31004C54455F4341545F4E42D0
:10575C003100506F6F72004C6F77004D6564697546
:10576C006D005665727920476F6F640047726561F2
:10577C007400302E373300526573657474696E672C
:10578C0020696E2070726F677265737300323525F5
:10579C0020646F6E650035302520646F6E650037B0
:1057AC00352520646F6E6500446F6E6500426F6F27
:1057BC0073746572204E6F20466C6F772031202DEC
:1057CC002000426F6F73746572204E6F20466C6FB1
:1057DC00772032202D200053746F7261676520543E
:1057EC00616E6B204C6F77202D200050756D7020F2
:1057FC00312043616C6C6564202D200050756D70F8
:10580C0020322043616C6C6564202D20004C6F733A
:10581C007420506F77657200416C65727473007BF5
:10582C0022616C65727456616C7565223A25692C1F
:10583C00202270756D704D696E73223A25692C208B
:10584C002262617474657279223A25692C20227463
:10585C00656D70223A25692C20227265736574730C
:10586C00223A25697D004D6F6E69746F72696E679F
:10587C005F486F75726C79004E6F204461746100E3
:10588C00556269646F747320486F6F6B0052657357
:10589C00706F6E736520526563656976656400533D
:1058AC00657420566572626F7365204D6F64650078
:1058BC003000436C656172656420566572626F736B
:1058CC0065204D6F6465005475726E6564206F6E53
:1058DC002050756D702043616C6C65640050756D63
:1058EC00702063616C6C656420616C6572747320EC
:1058FC003D20256900436C65617265642050756DAF
:10590C00702043616C6C65640050756D7020636130
:10591C006E63656C6C656420616C65727473203D9C
:10592C002025690054696D65207A6F6E65206F665D
:10593C00667365742025690054696D650046726F45
:10594C006D20257320746F2025730053746174656A
:10595C00205472616E736974696F6E00416C65726C
:10596C007456616C7565203D20256900576169741A
:10597C00696E6720666F7220526573706F6E736507
:10598C000049646C6500526573706F6E73652054CA
:10599C00696D656F7574204572726F720045525255
:1059AC004F525F5354415445202D205265736574FA
:1059BC0074696E6700417474656D7074696E6720EC
:1059CC00746F207265636F6E6E65637420746F20E4
:1059DC005061727469636C65005369676E616C0029
:1059EC005265736574436F756E740054656D7065A4
:1059FC007261747572650052656C656173650073D4
:105A0C00746174654F664368670070756D704D699D
:105A1C006E757465730052657365742D4652414DF5
:105A2C000052657365742D436F756E747300486115
:105A3C0072642D52657365740053656E642D4E6FE0
:105A4C007700566572626F73652D4D6F64650053F8
:105A5C0065742D54696D657A6F6E6500536574506D
:105A6C00756D7053746174650000000000000000D7
:105A7C00000000000000000000000000B500080855
:105A8C00130208080000000000000000950208083E
:105A9C00C90208084D340808150208080000000067
:105AAC00000000006F1A0808651A08085B1A08083D
:105ABC00E90208084F1A0808DD020808A937080887
:105ACC00B1370808431A08083B1A0808311A0808A5
